:100000000080001025010000290400002B040000DE
:100010002D0400002F040000310400000000000047
:100020000000000000000000000000003304000099
:10003000350400000000000037040000DD09000066
:100040003B0400003B0400003B0400003B040000B4
:100050003B0400003B0400003B0400003B040000A4
:100060003B0400003B0400003B0400003B04000094
:100070003B0400003B0400003B0400003B04000084
:100080003B0400003B0400003B0400003B04000074
:100090003B0400003B0400003B0400003B04000064
:1000A0003B0400003B0400003B0400003B04000054
:1000B0003B0400003B0400003B0400003B04000044
:1000C0003B0400003B0400003B0400003B04000034
:1000D0003B0400003B0400003B0400003B04000024
:1000E0003B0400003B0400003B0400003B04000014
:1000F0003B0400003B0400003B0400003B04000004
:100100003B0400003B0400003B0400003B040000F3
:100110003B0400003B0400003B0400003B040000E3
:100120003B0400000148804701480047A107000048
:10013000C50B000010B540F21004C1F20004237892
:1001400063B940F20000C0F2000028B140F624403C
:10015000C0F20000AFF300800121217010BD00BF8C
:1001600008B540F20003C0F200034BB140F6244052
:1001700040F21401C0F20000C1F20001AFF30080B0
:1001800040F20000C1F20000016829B140F2000312
:10019000C0F2000303B1984708BD00BF4FF0000450
:1001A000EFF309842046704723461846034683F33D
:1001B000098870474FF00004EFF308842046704729
:1001C00023461846034683F30888704780B483B0FB
:1001D00000AF4FF000037B60EFF312837B607B681E
:1001E000184607F10C07BD4680BC704780B483B049
:1001F00000AF78607B6883F3118807F10C07BD4678
:1002000080BC704780B483B000AF4FF000037B60C8
:10021000EFF310837B607B68184607F10C07BD463F
:1002200080BC704780B483B000AF78607B6883F394
:10023000108807F10C07BD4680BC704780B483B0BE
:1002400000AF4FF000037B60EFF313837B607B68AC
:10025000184607F10C07BD4680BC704780B483B0D8
:1002600000AF78607B6883F3138807F10C07BD4605
:1002700080BC704780B483B000AF4FF000037B6058
:10028000EFF314837B607B68184607F10C07BD46CB
:1002900080BC704780B483B000AF78607B6883F324
:1002A000148807F10C07BD4680BC704780B485B048
:1002B00000AF78604FF00003FB607B681BBAFB6007
:1002C000FB68184607F11407BD4680BC704700BFA5
:1002D00080B485B000AF0346FB804FF00003FB60A5
:1002E000FB885BBAFB60FB68184607F11407BD4644
:1002F00080BC704780B485B000AF0346FB804FF0F0
:100300000003FB60FB88DBBAFB60FB68184607F163
:100310001407BD4680BC704780B485B000AF7860DC
:100320004FF00003FB607B6893FAA3F3FB60FB686C
:10033000184607F11407BD4680BC704780B485B0ED
:1003400000AF78604FF00003FB737B68D3E84F3F4A
:10035000FB73FB7B184607F11407BD4680BC704752
:1003600080B485B000AF78604FF00003FB817B68FC
:10037000D3E85F3FFB81FB89184607F11407BD46B0
:1003800080BC704780B485B000AF78604FF0000348
:10039000FB607B6853E8003FFB60FB68184607F191
:1003A0001407BD4680BC704780B485B000AF0346DB
:1003B0003960FB714FF00003FB603B68FA79C3E8DA
:1003C000432FFB60FB68184607F11407BD4680BC4D
:1003D000704700BF80B485B000AF03463960FB8032
:1003E0004FF00003FB603B68FA88C3E8532FFB60C3
:1003F000FB68184607F11407BD4680BC704700BF74
:1004000080B485B000AF786039604FF00003FB60C6
:100410003B687A6843E80023FB60FB68184607F1F5
:100420001407BD4680BC7047FEE7FEE7FEE7FEE727
:10043000FEE7FEE7FEE7FEE7FEE7FEE780B400AF7B
:1004400000BFBD4680BC704780B483B000AF4FF0A2
:1004500000037B6048F20003C4F204035B6A4FEAC6
:10046000531303F00F030F2B00F2838001A252F805
:1004700023F000BFB5040000C1040000CD0400005B
:10048000D9040000E5040000F1040000FD040000B0
:100490000905000015050000210500002D050000DC
:1004A0003905000045050000510500005D0500000C
:1004B0006905000041F68023C0F206037B6058E026
:1004C0004AF22013C0F207037B6052E043F200536C
:1004D000C0F20C037B604CE04CF6E003C0F210036A
:1004E0007B6046E045F6C043C0F215037B6040E008
:1004F00046F60023C0F218037B603AE047F24073EF
:10050000C0F21B037B6034E048F28043C0F21E035C
:100510007B602EE049F2C013C0F221037B6028E02B
:1005200049F60073C0F224037B6022E04AF64043A0
:10053000C0F227037B601CE043F2E023C0F22903F2
:100540007B6016E044F22003C0F22C037B6010E0D5
:1005500044F66053C0F22F037B600AE04DF2004383
:10056000C0F230037B6004E04EF24013C0F233036C
:100570007B6048F20003C4F204035B6A03F01F03CC
:100580004FEA430303F102037A68B2FBF3F37B60A3
:1005900048F20003C4F204031B6F03F00303032BB0
:1005A00000F2E78001A252F823F000BFBD05000071
:1005B000D1050000450600005306000040F2080384
:1005C000C1F2000341F60032C0F2B7021A60D0E077
:1005D00048F20003C4F204031B6C03F00303032B73
:1005E00000F2C68001A252F823F000BFFD05000012
:1005F00011060000250600003306000040F2080343
:10060000C1F2000341F60032C0F2B7021A6018E0EE
:1006100040F20803C1F2000341F60032C0F2B70213
:100620001A600EE040F20803C1F200037A681A6013
:1006300007E040F20803C1F200034FF000021A6025
:1006400097E096E040F20803C1F200037A681A606E
:100650008FE048F20003C4F204031B6C03F00303B1
:10066000032B00F2868001A252F823F07D060000E1
:10067000CD0600001D0700006107000048F20003DE
:10068000C4F204039B6803F4C073002B09D040F24A
:100690000803C1F2000341F60032C0F2B7021A604B
:1006A00067E048F20003C4F204039B6803F01F03F1
:1006B00003F1010241F60033C0F2B70303FB02F27B
:1006C00040F20803C1F200031A6052E048F200034E
:1006D000C4F204039B6803F4C073002B09D040F2FA
:1006E0000803C1F2000341F60032C0F2B7021A60FB
:1006F0003FE048F20003C4F204039B6803F01F03C9
:1007000003F1010241F60033C0F2B70303FB02F22A
:1007100040F20803C1F200031A602AE048F2000325
:10072000C4F204039B6803F4C073002B06D040F2AC
:100730000803C1F200037A681A601AE048F2000365
:10074000C4F204039B6803F01F0303F101037A68FA
:1007500002FB03F240F20803C1F200031A6008E052
:1007600040F20803C1F200034FF000021A6000E0FB
:1007700000BF40F20803C1F200031A6848F2000308
:10078000C4F204039B6FB2FBF3F240F20803C1F220
:1007900000031A6007F10C07BD4680BC704700BF1C
:1007A00080B582B000AF48F20003C4F2040348F2FF
:1007B0000002C4F20402D2F8382222F02002C3F868
:1007C000382248F20003C4F204034FF000021A6218
:1007D0004FF000037B6005E0FFF730FE7B6803F11C
:1007E00001037B607B68C72BF6D948F20003C4F293
:1007F00004034FF001021A6448F20003C4F2040338
:100800004FF001025A6448F20003C4F204034FF0AF
:1008100000025A6448F20003C4F204034FF00102DC
:100820005A6448F20003C4F204035B6C03F0010352
:10083000002BF6D048F20003C4F204034FF0050287
:100840009A6048F20003C4F2040348F20002C4F2C2
:100850000402D2F8382222F08002C3F8382248F28B
:100860000003C4F20403DB6803F00103002BF6D09D
:1008700048F20003C4F204034FF003021A6748F27F
:100880000003C4F204034FF001025A6748F2000368
:10089000C4F204034FF000025A6748F20003C4F2A6
:1008A00004034FF001025A6748F20003C4F2040344
:1008B0005B6F03F00103002BF6D048F20003C4F293
:1008C000040348F20002C4F20402D2F8382242F4CF
:1008D0008062C3F8382248F20003C4F2040348F2ED
:1008E0000002C4F20402D2F8382242F48072C3F843
:1008F000382248F20003C4F204034FF001029A6761
:1009000048F20003C4F2040340F25F02C0F20102A5
:10091000C3F8802007F10807BD4680BD80B483B0CE
:1009200000AF03463960FB7197F90730002B10DAEE
:100930004EF60053CEF20003FA7902F00F02A2F154
:1009400004013A68D2B24FEA4212D2B20B441A768C
:100950000DE04EF20013CEF2000397F907103A684B
:10096000D2B24FEA4212D2B20B4483F8002307F10D
:100970000C07BD4680BC704780B582B000AF786080
:100980007A686FF07F439A4202D94FF001031FE06B
:100990004EF21003CEF200037A6822F07F4202F199
:1009A000FF325A604FF0FF304FF00701FFF7B6FFFC
:1009B0004EF21003CEF200034FF000029A604EF2A6
:1009C0001003CEF200034FF007021A604FF000034D
:1009D000184607F10807BD4680BD00BF80B400AFD0
:1009E00040F22C03C1F200031B6803F1010240F244
:1009F0002C03C1F200031A60BD4680BC704700BFE3
:100A000080B485B000AF786040F22C03C1F20003DF
:100A10001B68FB6040F22C03C1F200031A68FB68FC
:100A2000C3EB02027B689A42F4D307F11407BD4678
:100A300080BC704780B400AF48F20003C4F20403E6
:100A400048F20002C4F20402D2F8802042F04002D0
:100A5000C3F8802040F20003C5F2020303F500430F
:100A60004FF0FF021A60BD4680BC704780B483B06F
:100A700000AF786040F20003C5F2020340F20002CA
:100A8000C5F2020202F57E5202F17C0211687A6818
:100A900041EA020203F57E5303F17C031A6007F179
:100AA0000C07BD4680BC704780B483B000AF78604F
:100AB00040F20003C5F2020340F20002C5F2020256
:100AC00002F57E5202F17C0211687A686FEA020236
:100AD00001EA020203F57E5303F17C031A6007F179
:100AE0000C07BD4680BC704780B500AF40F20803DC
:100AF000C1F200031A6844F6D353C1F26203A3FBA8
:100B000002134FEA93131846FFF736FF0346002BF4
:100B100000D0FEE7FFF78EFF4FF00100FFF7A6FFC2
:100B20004FF06400FFF76CFF4FF00100FFF7BCFFD0
:100B30004FF06400FFF764FFEEE700BF1C4C1D4B55
:100B400022E058689968DD6888420DD0002206E0EE
:100B500000EB020C0832DCE9006741E902678C46D1
:100B60000831AA42F4D101E000EB050C6146186996
:100B7000002204E008320026002741E9026708311C
:100B80008242F7D11433013C002CDAD100F022F874
:100B9000094B0BB9204600E01868084901B1096803
:100BA0000022FFF7A1FF064B0BB1AFF30080FEE779
:100BB00001000000480C00000000000000000000E0
:100BC0000000000001498D460149084700800010DF
:100BD0003D0B000070B540F6344640F63445C0F297
:100BE0000006C0F20005761BB61006D0002455F8AA
:100BF000243001349847A642F9D840F6344540F6EF
:100C00003846C0F20005C0F20006761B00F00CF872
:100C1000B61006D0002455F8243001349847A64277
:100C2000F9D870BD00000000F8B500BFF8BC08BCE2
:100C30009E46704761010000F8B500BFF8BC08BCD3
:100C40009E4670473501000000000000680C00005F
:0C0C500000000010100000002000000058
:080C5C00C8F4FF7F0100000055
:100C6800000000000000000000A24A04000000008C
:0400000300000BC529
:00000001FF
