:020000040000FA
:10000000F07F0010CD02000041030000410300001A
:10001000410300003F70FFEF4103000000000000BB
:1000200000000000000000000000000000000000D0
:1000300000000000000000000000000000000000C0
:1000400041030000410300004103000041030000A0
:100050004103000041030000410300004103000090
:100060004103000041030000410300004103000080
:100070004103000041030000410300004103000070
:100080004103000041030000410300004103000060
:100090004103000041030000410300004103000050
:1000A00025700000410300004103000041030000EF
:1000B0004103000041030000410300004103000030
:1000C00041030000410300004103000010B540F26D
:1000D0002814C1F20004237863B940F20000C0F292
:1000E000000028B148F26030C0F20000AFF3008099
:1000F0000121217010BD00BF08B540F20003C0F21D
:1001000000034BB148F2603040F22C11C0F2000005
:10011000C1F20001AFF3008040F22C00C1F20000F8
:10012000016829B140F20003C0F2000303B198470F
:1001300008BD00BF80B400AFBD4680BC704700BFA3
:1001400080B483B000AF0346FB7107F10C07BD46D6
:1001500080BC704780B582B000AF00F071F840F20B
:100160007820C1F2000000F0F9FA40F2EC10C1F280
:10017000000000F0F3FA4FF00000FFF7E1FF40F25B
:100180000400C1F2000007F07FFE0346FB711AE095
:1001900040F27823C1F2000393F88830DBB2802B61
:1001A00015D040F20400C1F2000007F0D7FE03466C
:1001B00040F27820C1F20000194600F0E7FAFB791E
:1001C00003F1FF33FB71FB79002BE1D100E000BFAD
:1001D00040F2EC13C1F2000393F88830DBB2002B3D
:1001E0000DD040F2EC10C1F2000000F01FFB0346FE
:1001F00040F20400C1F20000194607F089FC40F209
:100200000400C1F2000007F0EFFB06F0CDFF0DE0A7
:1002100040F27820C1F2000000F008FB034640F2F3
:10022000EC10C1F20000194600F0B0FA40F2782359
:10023000C1F2000393F88830DBB2002BE8D19EE7CF
:1002400080B500AF00F080F8FFF774FF06F008FEFD
:10025000BD4680BD80B500AF4FF00000FFF770FFD6
:10026000BD4680BD80B500AF4FF00000FFF768FFCE
:10027000BD4680BD80B500AF4FF00000FFF760FFC6
:1002800040F20400C1F2000007F05CFB034683F07B
:100290000103DBB2002B03D04FF00000FFF750FF4B
:1002A000BD4680BD80B500AF40F20400C1F2000041
:1002B00007F0DEF8BD4680BD80B483B000AF786043
:1002C00007F10C07BD4680BC704700BF80B582B007
:1002D00000AF48F26433C0F200033B6040F2000319
:1002E000C1F200037B600BE03B681A687B681A6010
:1002F0007B6803F104037B603B6803F104033B600C
:100300007A6840F22403C1F200039A42ECD340F22F
:100310002813C1F200033B6007E03B684FF0000286
:100320001A603B6803F104033B603A6840F21433FF
:10033000C1F200039A42F0D3FFF70CFFFEE700BFC3
:1003400080B400AFFEE700BF80B584B000AF41F6D7
:10035000F173C1F6FF73FB604CF20003C4F20F03AC
:100360004FF00002C3F8C4204CF20003C4F20F03A4
:100370004FF40042C3F8C4204CF20003C4F202035D
:100380004FF000029A624CF20003C4F20F0345F2F0
:100390005552C0F25552C3F8A8214CF20003C4F2E2
:1003A0000F03D3F8883003F00073002B17D04CF202
:1003B0000003C4F20F034FF00102C3F880204CF297
:1003C0000003C4F20F034FF0AA02C3F88C204CF2D2
:1003D0000003C4F20F034FF05502C3F88C204CF217
:1003E0000003C4F20F034FF00002C3F880204CF268
:1003F0000003C4F20F034FF0AA02C3F88C204CF2A2
:100400000003C4F20F034FF05502C3F88C204CF2E6
:100410000003C4F20F034CF20002C4F20F02D2F840
:10042000A02142F02002C3F8A0214CF20003C4F244
:100430000F03D3F8A03103F04003002BF5D04CF2AA
:100440000003C4F20F034FF00102C3F80C214CF279
:100450000003C4F20F0340F23102C0F20202C3F8FB
:1004600084204CF20003C4F20F034FF0AA02C3F839
:100470008C204CF20003C4F20F034FF05502C3F876
:100480008C204CF20003C4F20F034FF00102C3F8BA
:1004900080204CF20003C4F20F034FF0AA02C3F80D
:1004A0008C204CF20003C4F20F034FF05502C3F846
:1004B0008C204CF20003C4F20F034FF00302C3F888
:1004C00004214CF20003C4F20F0344F23A021A6012
:1004D0004CF20003C4F20F03D3F8883003F08063BA
:1004E000002BF5D04CF20003C4F20F034FF00302CF
:1004F000C3F880204CF20003C4F20F034FF0AA02AD
:10050000C3F88C204CF20003C4F20F034FF05502E5
:10051000C3F88C204CF20003C4F20F03D3F88830E8
:1005200003F00073002BF5D04CF20003C4F20F036C
:10053000D3F8A83003F40073002B17D04CF200035B
:10054000C4F20F034FF00102C3F8A0204CF20003E5
:10055000C4F20F034FF0AA02C3F8AC204CF2000320
:10056000C4F20F034FF05502C3F8AC204CF2000365
:10057000C4F20F034FF00002C3F8A0204CF20003B6
:10058000C4F20F034FF0AA02C3F8AC204CF20003F0
:10059000C4F20F034FF05502C3F8AC204CF2000335
:1005A000C4F20F034FF02302C3F8A4204CF200035F
:1005B000C4F20F034FF0AA02C3F8AC204CF20003C0
:1005C000C4F20F034FF05502C3F8AC204CF2000305
:1005D000C4F20F034FF00102C3F8A0204CF2000355
:1005E000C4F20F034FF0AA02C3F8AC204CF2000390
:1005F000C4F20F034FF05502C3F8AC204CF20003D5
:10060000C4F20F03D3F8A83003F48063002BF5D0B5
:100610004CF20003C4F20F034FF00302C3F8A02012
:100620004CF20003C4F20F034FF0AA02C3F8AC204F
:100630004CF20003C4F20F034FF05502C3F8AC2094
:100640004CF20003C4F20F03D3F8A83003F4007394
:10065000002BF5D040F2E813C1F200034FF0000286
:100660001A704FF036037B6007F1040107F10402B2
:10067000FB68084611469847BB684FEA1363252B71
:1006800006D140F2E813C1F200034FF001021A70E4
:1006900007F11007BD4680BD80B487B000AF0B46A0
:1006A0003A600246FA807B71FB884FEA13239BB2C3
:1006B000BB73FB88FB734FF000033B614FF00003FB
:1006C000FB82BB7B022B0CD0032B13D0012B3BD125
:1006D00040F23003C1F200033B614FF01203FB8292
:1006E00032E040F24403C1F200033B614FF04803A3
:1006F000FB8229E0FB7B012B0FD0022B19D0002BB2
:1007000022D140F28C03C1F200033B6140F28C0322
:10071000C1F20003DBB2FB8216E040F29403C1F2A7
:1007200000033B6140F29403C1F20003DBB2FB82A1
:100730000AE040F2C803C1F200033B6140F2C80383
:10074000C1F20003DBB2FB823B683A691A60FB8AA4
:10075000184607F11C07BD4680BC704780B483B0C3
:1007600000AF78607B681A467B68C3F880207B689E
:100770001A467B68C3F884207B684FF0000283F838
:10078000882007F10C07BD4680BC704780B483B059
:1007900000AF78600B46FB707B6893F88830DBB263
:1007A000802B16D17B68D3F8843003F101027B687B
:1007B000C3F884207B68D3F884301A467B6803F141
:1007C00080039A4210D17B681A467B68C3F8842064
:1007D0000BE07B6893F88830DBB203F10103DAB2F7
:1007E0007B6883F8882000E000BF7B68D3F8803006
:1007F000FA781A707B68D3F8803003F101027B68C5
:10080000C3F880207B68D3F880301A467B6803F1F8
:1008100080039A4204D17B681A467B68C3F8802023
:1008200007F10C07BD4680BC704700BF80B485B09F
:1008300000AF78607B68D3F884301B78FB737B68EB
:10084000D3F8843003F101027B68C3F884207B680D
:1008500093F88830DBB203F1FF33DAB27B6883F8B8
:1008600088207B68D3F884301A467B6803F18003C4
:100870009A4204D17B681A467B68C3F88420FB7BCC
:10088000184607F11407BD4680BC704780B400AF1E
:100890004CF20003C4F20F03D3F888304FEA13631D
:1008A00003F00303032B40F0AC804CF20003C4F2CE
:1008B0000F03D3F80C3103F00303032B00F2F6808F
:1008C00001A252F823F000BFD90800003D09000042
:1008D000A3090000D90800004CF20003C4F20F0382
:1008E000D3F888304FEA43434FEA534303F1010200
:1008F00041F20023C0F27A0303FB02F24CF2000340
:10090000C4F20F03D3F888304FEA134303F0FF0318
:1009100003F10103B2FBF3F24CF20003C4F20F0344
:10092000D3F8043103F0FF0303F10103B2FBF3F248
:1009300040F22003C1F200031A60B8E04CF2000359
:10094000C4F20F03D3F888304FEA43434FEA5343CE
:1009500003F1010243F20063C0F26E1303FB02F2E3
:100960004CF20003C4F20F03D3F888304FEA13436C
:1009700003F0FF0303F10103B2FBF3F24CF20003B7
:10098000C4F20F03D3F8043103F0FF0303F10103B2
:10099000B2FBF3F240F22003C1F200031A6000BF81
:1009A00085E04CF20003C4F20F03D3F888304FEA1D
:1009B00043434FEA534303F101034FF47A4202FBEE
:1009C00003F24CF20003C4F20F03D3F888304FEA6D
:1009D000134303F0FF0303F10103B2FBF3F24CF204
:1009E0000003C4F20F03D3F8043103F0FF0303F153
:1009F0000103B2FBF3F240F22003C1F200031A60DC
:100A000055E04CF20003C4F20F03D3F80C3103F0AD
:100A10000303032B4BD801A252F823F02D0A000048
:100A2000590A0000850A00002D0A00004CF200035C
:100A3000C4F20F03D3F8043103F0FF0303F1010202
:100A400040F60013C0F23D03B3FBF2F240F2200384
:100A5000C1F200031A602AE04CF20003C4F20F0353
:100A6000D3F8043103F0FF0303F1010241F6003330
:100A7000C0F2B703B3FBF2F240F22003C1F200036D
:100A80001A6014E04CF20003C4F20F03D3F80431EF
:100A900003F0FF0303F101034FF4FA42B2FBF3F258
:100AA00040F22003C1F200031A6000E000BFBD461F
:100AB00080BC704780B400AF4CF20003C4F20F0357
:100AC0004FF02002C3F8A0214CF20003C4F20F0340
:100AD000D3F8A03103F04003002BF5D04CF2000313
:100AE000C4F20F034FF00302C3F804214CF20003D9
:100AF000C4F20F034FF00002C3F8A8214CF2000328
:100B0000C4F20F034FF00002C3F8AC214CF2000313
:100B1000C4F20F034FF00102C3F80C214CF20003A2
:100B2000C4F20F0340F26302C0F20502C3F884204E
:100B30004CF20003C4F20F034FF0AA02C3F88C205A
:100B40004CF20003C4F20F034FF05502C3F88C209F
:100B50004CF20003C4F20F034FF00102C3F88020EF
:100B60004CF20003C4F20F034FF0AA02C3F88C202A
:100B70004CF20003C4F20F034FF05502C3F88C206F
:100B80004CF20003C4F20F03D3F8883003F0806303
:100B9000002BF5D04CF20003C4F20F034FF0030218
:100BA000C3F880204CF20003C4F20F034FF0AA02F6
:100BB000C3F88C204CF20003C4F20F034FF055022F
:100BC000C3F88C204CF20003C4F20F03D3F8883032
:100BD00003F04073002BF5D04CF20003C4F20F0376
:100BE0004FF02302C3F8A4204CF20003C4F20F0319
:100BF0004FF0AA02C3F8AC204CF20003C4F20F037A
:100C00004FF05502C3F8AC204CF20003C4F20F03BE
:100C10004FF00102C3F8A0204CF20003C4F20F030E
:100C20004FF0AA02C3F8AC204CF20003C4F20F0349
:100C30004FF05502C3F8AC204CF20003C4F20F038E
:100C4000D3F8A83003F48063002BF5D04CF20003F6
:100C5000C4F20F034FF00302C3F8A0204CF20003CC
:100C6000C4F20F034FF0AA02C3F8AC204CF2000309
:100C7000C4F20F034FF05502C3F8AC204CF200034E
:100C8000C4F20F03D3F8A83003F44073002BF5D05F
:100C90004CF20003C4F20F0348F2DE72C0F22842A5
:100CA000C3F8C4204CF20003C4F20F034FF000025B
:100CB000C3F8C8214CF20003C4F20F0343F23A0216
:100CC0001A60BD4680BC70474FF00004EFF3098402
:100CD0002046704723461846034683F30988704729
:100CE0004FF00004EFF3088420467047234618466F
:100CF000034683F30888704780B483B000AF4FF099
:100D000000037B60EFF312837B607B68184607F17A
:100D10000C07BD4680BC704780B483B000AF7860DC
:100D20007B6883F3118807F10C07BD4680BC7047D0
:100D300080B483B000AF4FF000037B60EFF310830B
:100D40007B607B68184607F10C07BD4680BC704786
:100D500080B483B000AF78607B6883F3108807F1BC
:100D60000C07BD4680BC704780B483B000AF4FF025
:100D700000037B60EFF313837B607B68184607F109
:100D80000C07BD4680BC704780B483B000AF78606C
:100D90007B6883F3138807F10C07BD4680BC70475E
:100DA00080B483B000AF4FF000037B60EFF3148397
:100DB0007B607B68184607F10C07BD4680BC704716
:100DC00080B483B000AF78607B6883F3148807F148
:100DD0000C07BD4680BC704780B485B000AF78601A
:100DE0004FF00003FB607B681BBAFB60FB68184692
:100DF00007F11407BD4680BC704700BF80B485B0C2
:100E000000AF0346FB804FF00003FB60FB885BBA3A
:100E1000FB60FB68184607F11407BD4680BC7047AD
:100E200080B485B000AF0346FB804FF00003FB6049
:100E3000FB88DBBAFB60FB68184607F11407BD4668
:100E400080BC704780B485B000AF78604FF000037D
:100E5000FB607B6893FAA3F3FB60FB68184607F11D
:100E60001407BD4680BC704780B485B000AF786081
:100E70004FF00003FB737B68D3E84F3FFB73FB7BB2
:100E8000184607F11407BD4680BC704780B485B092
:100E900000AF78604FF00003FB817B68D3E85F3FD1
:100EA000FB81FB89184607F11407BD4680BC7047DB
:100EB00080B485B000AF78604FF00003FB607B68C2
:100EC00053E8003FFB60FB68184607F11407BD4676
:100ED00080BC704780B485B000AF03463960FB71B9
:100EE0004FF00003FB603B68FA79C3E8432FFB60D7
:100EF000FB68184607F11407BD4680BC704700BF69
:100F000080B485B000AF03463960FB804FF000032A
:100F1000FB603B68FA88C3E8532FFB60FB68184608
:100F200007F11407BD4680BC704700BF80B485B090
:100F300000AF786039604FF00003FB603B687A686F
:100F400043E80023FB60FB68184607F11407BD4621
:100F500080BC704780B586B000AFF860B9607A6039
:100F6000FB681B784FEA5313DBB203F003037B618A
:100F70007A6940F25813C1F2000353F822303B6102
:100F80003B69002B02D14FF0000305E03B69F86894
:100F9000B9687A6898470346184607F11807BD46AE
:100FA00080BD00BF80B584B000AF0346FB714FF039
:100FB00080004FF0010100F04DFB40F24413C1F2FC
:100FC0000003BB604FF00003FB6003E0FB6803F12C
:100FD0000103FB60FB68072BF8DD07F11007BD4636
:100FE00080BD00BF80B582B000AF40F25013C1F2A7
:100FF00000031B68402B03DD4FF040037B6005E0DE
:1010000040F25013C1F200031B687B6040F24C13A6
:10101000C1F200031B684FF0800019467A6800F0A7
:101020003FFB40F24C13C1F200031A687B681A447C
:1010300040F24C13C1F200031A6040F25013C1F2A7
:1010400000031A687B68C3EB020240F25013C1F23E
:1010500000031A6007F10807BD4680BD80B584B063
:1010600000AF02460B46FA71BB71FB79002B40F0D2
:101070000781BB7903F00403002B00F085804FF05B
:10108000000040F24411C1F200014FF0080200F0EC
:101090006DFB40F24413C1F200031B784FEA531377
:1010A000DBB203F00303FB60FA6840F26813C1F29D
:1010B000000353F8222040F24C13C1F200031A60DF
:1010C00040F24413C1F20003DB881A4640F2501389
:1010D000C1F200031A6040F24413C1F20003DB883E
:1010E0001A4640F25413C1F200031A6040F244134E
:1010F000C1F20003DB88002B0AD040F24413C1F296
:1011000000031B784FEAD313DBB2012B40F0BE8003
:1011100040F24410C1F2000040F25411C1F200014B
:1011200040F24C12C1F20002FFF714FF0346002BFD
:1011300004D1BB791846FFF735FFAAE040F244130B
:10114000C1F20003DB881A4640F25413C1F20003D7
:101150001B689A420ADD40F25413C1F200031A6878
:1011600040F25013C1F200031A600AE040F2441347
:10117000C1F20003DB881A4640F25013C1F20003AB
:101180001A60FFF72FFF84E040F25013C1F2000312
:101190001B68002B69DD40F24C13C1F200031A6892
:1011A00040F25013C1F200031B684FF000001146DB
:1011B0001A4600F0DBFA0346BB60BB68002B04DA7A
:1011C000BB791846FFF7EEFE63E040F24C13C1F224
:1011D00000031A68BB681A4440F24C13C1F20003C2
:1011E0001A6040F25013C1F200031A68BB68C3EBE7
:1011F000020240F25013C1F200031A6040F2501391
:10120000C1F200031B68002B42D140F24413C1F22B
:1012100000031B784FEA5313DBB203F00303FB60B8
:10122000FA6840F26813C1F2000353F8222040F23A
:101230004C13C1F200031A6040F24410C1F20000E6
:1012400040F25411C1F2000140F24C12C1F200020E
:10125000FFF780FE0346002B04D1BB791846FFF749
:10126000A1FE16E0FFF7BEFE13E04FF000004FF0C6
:1012700000014FF0000200F079FA0346BB6008E07D
:10128000FB79802B05D1FFF7ADFE02E000BF00E047
:1012900000BF07F11007BD4680BD00BF80B485B018
:1012A00000AFF860B9607A60FA6840F25813C1F292
:1012B0000003B96843F82210FA6840F26813C1F2DB
:1012C0000003796843F8221007F11407BD4680BC7B
:1012D000704700BF80B483B000AF78604CF2000369
:1012E000C5F20003D3F800227B6802EA03027B68A0
:1012F0009A42F3D14CF20003C5F200037A68C3F8B6
:10130000082207F10C07BD4680BC704780B582B04B
:1013100000AF0346FB714CF20003C5F200034FF02F
:101320003002C3F808224CF20003C5F20003FA7938
:101330004FEA024242F4A062C3F810224FF01000BC
:10134000FFF7C8FF07F10807BD4680BD80B582B032
:1013500000AF02460B46FA71BB80FB791846FFF7D7
:10136000D5FF4CF20003C5F20003BA884FEA0242EF
:1013700042F48072C3F810224FF01000FFF7AAFF6A
:1013800007F10807BD4680BD80B582B000AF0346B7
:10139000FB71FB791846FFF7B9FF4CF20003C5F269
:1013A0000003FA794FEA024242F40072C3F81022B5
:1013B0004FF02000FFF78EFF4CF20003C5F2000350
:1013C000D3F81432DBB2184607F10807BD4680BDDA
:1013D00080B582B000AF78600B467B804CF2000392
:1013E000C5F200034CF20002C5F20002D2F844122A
:1013F0004FF001007A6800FA02F241EA0202C3F8F3
:1014000044224CF20003C5F200037A68C3F8482274
:101410004CF20003C5F200037A88C3F84C224FF463
:101420008070FFF757FF07F10807BD4680BD00BF7A
:1014300080B582B000AF786039607B68DBB243F082
:101440004003DBB2DAB23B68002B02D04FF000035E
:1014500001E04FF0200310461946FFF777FF07F130
:101460000807BD4680BD00BF80B584B000AF02460E
:101470000B46FA71BB80FB7903F00F034FEA43027E
:10148000FB794FEAD313DBB242EA0303FB60BB886C
:10149000F8681946FFF79CFFF8684FF00101FFF765
:1014A000C7FF07F11007BD4680BD00BF80B485B0FF
:1014B00000AF03463960FB71FB7903F00F034FEA7D
:1014C0004302FB794FEAD313DBB242EA0303FB602A
:1014D000FB684FEAD37213444FEA63031A4640F2A3
:1014E0007C13C1F20003396843F822104CF2000368
:1014F000C5F200034CF20002C5F20002D2F8341229
:101500004FF00100FA6800FA02F241EA0202C3F861
:1015100034224CF20003C5F200034CF20002C5F283
:101520000002D2F8042242F00402C3F8042207F1B8
:101530001407BD4680BC704780B483B000AF7860AC
:1015400040F27813C1F200037A681A604CF200038B
:10155000C5F200034CF20002C5F20002D2F80422E8
:1015600042F00802C3F8042207F10C07BD4680BC14
:10157000704700BF80B483B000AF786040F2BC1306
:10158000C1F200037A681A604CF20003C5F200034E
:101590004CF20002C5F20002D2F8042242F001022D
:1015A000C3F8042207F10C07BD4680BC704700BF9A
:1015B00080B582B000AF0346FB71FB796FEA4363ED
:1015C0006FEA5363DBB24FF0D0001946FFF7BEFE5F
:1015D00007F10807BD4680BD80B582B000AF7860D6
:1015E0007B68002B0CBF002301234FF0FE0019463F
:1015F000FFF7ACFE07F10807BD4680BD80B582B09D
:1016000000AF0346FB71FB794FF0F3001946FFF77B
:101610009DFE07F10807BD4680BD00BF80B584B0C0
:1016200000AF0346FB71FB7903F00F034FEA43025F
:10163000FB794FEAD313DBB242EA0303FB60FB689A
:10164000DBB21846FFF7A0FE0346184607F1100765
:10165000BD4680BD80B584B000AF03463960FB71E4
:10166000FB7903F00F034FEA4302FB794FEAD313F0
:10167000DBB242EA0303FB60FB68DBB243F04003EA
:10168000DBB2DAB23B68002B0CBF0023012310460B
:101690001946FFF75BFE07F11007BD4680BD00BF8E
:1016A00080B586B000AF0346B9607A60FB73FB7B00
:1016B00003F00F034FEA4302FB7B4FEAD313DBB285
:1016C00042EA03037B614CF20003C5F20003FA7B9C
:1016D00002F00F024FEA820242F00202C3F828220F
:1016E0004CF20003C5F200037A68C3F8242223E019
:1016F0004CF20003C5F20003BA6802F1030212784B
:101700004FEA0261BA6802F1020212784FEA02421D
:1017100041EA0201BA6802F1010212784FEA02229C
:1017200041EA0201BA68127841EA0202C3F81C22B7
:10173000BB6803F10403BB604CF20003C5F2000375
:10174000D3F8283203F00203002BD1D17B69DBB23E
:101750001846FFF7DBFD4FF0FA00FFF7D7FD7B6877
:10176000184607F11807BD4680BD00BF80B588B098
:1017700000AF0346B9607A60FB73FB7B03F00F0395
:101780004FEA4302FB7B4FEAD313DBB242EA030387
:101790007B614CF20003C5F20003FA7B02F00F02FA
:1017A0004FEA820242F00102C3F828224CF2000301
:1017B000C5F20003D3F82032FB61FB6903F4006338
:1017C000002BF3D0FB6903F48063002B02D14FF0B0
:1017D000FF3343E0FB694FEA83534FEA9353FB61C6
:1017E0004FF00003BB614FF000033B6120E03B6919
:1017F00003F00303002B06D14CF20003C5F20003F3
:10180000D3F81832BB61BB68002B09D03A697B68FA
:101810009A4205DA3A69BB681344BA69D2B21A70BF
:10182000BB694FEA1323BB613B6903F101033B61D1
:10183000FA693B699A42DADC4CF20003C5F2000314
:101840004FF00002C3F828227B69DBB21846FFF78D
:101850005DFD4FF0F200FFF759FDFB69184607F1F7
:101860002007BD4680BD00BF80B582B000AF786064
:101870007B68002B0CBF002301234FF0D8001946D2
:10188000FFF764FD07F10807BD4680BD80B586B04F
:1018900000AF4CF20003C5F20003D3F800327B60C6
:1018A0007B6803F00103DBB2002B1CD04CF2000379
:1018B000C5F200034FF00102C3F8082240F2BC1346
:1018C000C1F200031B68002B0DD04FF0F500FFF7AD
:1018D0005BFD0346FB8240F2BC13C1F200031B68B0
:1018E000FA8A104698477B6803F00803002B25D03E
:1018F0004CF20003C5F200034FF00802C3F80822BF
:101900004FF0FE00FFF740FD0346BB73BB7B03F0C7
:101910001A03002B12D0BB7B03F01503FB7340F2BC
:101920007813C1F200031B68002B07D040F2781334
:10193000C1F200031B68FA7B104698477B6803F0EE
:101940000403002B68D04CF20003C5F200034FF0F3
:101950000402C3F808224FF000033B6159E04FF046
:1019600001023B6902FA03F3BB604CF20003C5F2CB
:101970000003D3F83022BB6802EA0303002B44D0F3
:101980004CF20003C5F20003BA68C3F838224FF0E6
:101990002000FFF79FFC4CF20003C5F20003D3F8D0
:1019A00014327B737B7B03F01F03FB733B694FEAAD
:1019B000D37213444FEA63031A4640F27C13C1F218
:1019C000000353F82230002B1FD03B694FEAD3723B
:1019D00013444FEA63031A4640F27C13C1F200033A
:1019E00053F822203B694FEAC313D9B23B694FEA4F
:1019F0006303DBB2DBB203F00F0341EA0303DBB2A4
:101A0000D9B2FB7B0846194690473B6903F10103B5
:101A10003B613B691F2BA2DD07F11807BD4680BD66
:101A200080B500AF4CF20003C4F202034CF2000296
:101A3000C4F20202D26822F0405222F03002DA6090
:101A40004CF20003C4F202034CF20002C4F20202A0
:101A5000D26842F0005242F01002DA604CF2000309
:101A6000C4F202034CF20002C4F20202526822F0F5
:101A700070525A604CF20003C4F202034CF20002AE
:101A8000C4F20202526842F0A0525A604CF20003C3
:101A9000C4F20F034CF20002C4F20F02D2F8C420C9
:101AA00042F00042C3F8C4204CF20003C5F2000328
:101AB0004FF01202C3F8F42F4CF20003C5F20003FA
:101AC000D3F8F83F03F01203122BF5D14CF20003C8
:101AD000C5F200034FF00002C3F804224CF20003E9
:101AE000C5F200034FF0FF32C3F808224CF20003A6
:101AF000C5F200034FF00002C3F82C224CF20003A1
:101B0000C5F200034FF00002C3F834224CF2000388
:101B1000C5F200034FF0FF32C3F838224CF2000345
:101B2000C5F200034FF00002C3F840224FF000005E
:101B3000FFF764FD4FF001031846BD4680BD00BFAE
:101B400080B483B000AF0346FB7107F10C07BD46BC
:101B500080BC704780B500AFFFF762FF41F64130AF
:101B6000C0F20000FFF7E8FC4FF0000041F25D0119
:101B7000C0F20001FFF79AFC4FF0800041F25D01D6
:101B8000C0F20001FFF792FC4FF000004FF040015F
:101B9000FFF76AFC4FF080004FF04001FFF764FC54
:101BA0004FF0000041F6F571C0F2000140F2C012A2
:101BB000C1F20002FFF772FB4FF001031846BD4669
:101BC00080BD00BF80B483B000AF786040F2D01316
:101BD000C1F200037A681A6007F10C07BD4680BCA9
:101BE000704700BF80B489B000AFBA607B60034625
:101BF000FB810B46BB81FB894FEA13239BB2BB756C
:101C0000FB89FB7540F2D013C1F200031B68BB6176
:101C10004FF00003FB6131E0BB6903F101031B7866
:101C2000BA7D9A4225D1FA7DFB699A421DD17B6823
:101C3000BA691A60BB7D022B0FD1BB6903F10203A5
:101C40001B781A46BB6903F103031B784FEA032391
:101C500042EA0302BB681A6004E0BB691B781A46BB
:101C6000BB681A604FF001030EE0FB6903F101034A
:101C7000FB61BB691B78BA691344BB61BB691B7804
:101C8000002BC9D14FF00003184607F12407BD46C9
:101C900080BC704780B586B000AF02460B46FA7133
:101CA000BB71FB79002B04D14FF00000FFF7DCFD86
:101CB00052E040F2D013C1F200031B68FB604FF00A
:101CC000FF33FB744FF0FF333B753DE0FB6803F1DE
:101CD00001031B78042B09D0052B0DD0022B2ED12C
:101CE000FB6803F105031B78FB7428E0FB6803F134
:101CF00003031B783B7522E0FA7CFB799A421ED1E4
:101D00003A7DBB799A421AD1FB6803F102031B7832
:101D10007B75FB6803F104031B781A46FB6803F12B
:101D200005031B784FEA03239BB242EA03039BB2ED
:101D3000FB827A7DFB8A10461946FFF795FBFB680C
:101D40001B78FA681344FB60FB681B78002BBDD13D
:101D50004FF00100FFF788FD4FF00103184607F12F
:101D60001807BD4680BD00BF80B586B000AFF860E3
:101D7000B9607A607B681B687B61FB685B78092BC4
:101D800061D801A252F823F0B11D00003B1E0000F3
:101D9000471E00003B1E0000471E0000CF1D000034
:101DA000DD1D0000411E0000F51D00000D1E00009D
:101DB0007B694FF000021A707B6903F101034FF059
:101DC00000021A70BB684FF002021A603EE0FB6826
:101DD0005B88DBB21846FFF7EBFB37E0FB685A88FD
:101DE000FB689B8810461946BA687B68FFF7FAFEC5
:101DF00003462DE040F2C813C1F200031A787B6954
:101E00001A70BB684FF001021A601FE0FB685B8824
:101E1000DBB218464FF00001FFF73CFF0346002BF2
:101E200002D14FF0000313E0FB685B88DAB240F2A6
:101E3000C813C1F200031A7008E04FF0000307E076
:101E40004FF0000304E04FF0000301E04FF0010306
:101E5000184607F11807BD4680BD00BF80B487B0A3
:101E600000AFF860B9607A607B681B687B61FB68D3
:101E70005B780B2B41D801A252F823F0AD1E000075
:101E8000CB1E0000FB1E0000CB1E0000FB1E00004E
:101E9000FB1E0000FB1E0000FB1E0000FB1E0000DE
:101EA000FB1E0000D11E0000E31E00007B694FF006
:101EB00000021A707B6903F101034FF000021A70EF
:101EC000BB684FF002021A601AE04FF0000319E0FD
:101ED0007B694FF000021A70BB684FF001021A6074
:101EE0000EE0FB685B88002B02D04FF0000309E096
:101EF000BB684FF000021A6002E04FF0000301E0FF
:101F00004FF00103184607F11C07BD4680BC70471F
:101F100080B586B000AFF860B9607A607B681B68F6
:101F20007B61FB685B780C2B59D801A252F823F037
:101F3000651F0000991F0000DF1F0000B91F00008F
:101F4000DF1F0000DF1F0000DF1F0000DF1F000099
:101F5000DF1F0000DF1F0000DF1F0000DF1F000089
:101F6000D91F0000FB689B88DBB21846FFF756FBC1
:101F7000034603F00203002B0CBF002201227B6901
:101F80001A707B6903F101034FF000021A70BB68FD
:101F90004FF002021A6025E0FB685B88002B08D135
:101FA000FB689B88DBB218464FF00001FFF752FB3D
:101FB00018E04FF0000317E0FB685B88002B08D1A6
:101FC000FB689B88DBB218464FF00101FFF742FB2C
:101FD00008E04FF0000307E04FF0000304E04FF08B
:101FE000000301E04FF00103184607F11807BD4652
:101FF00080BD00BF80B584B000AFF860B9607A6082
:1020000040F2CC13C1F200031B68002B0ED040F24B
:10201000CC13C1F200031B68F868B9687A68984766
:102020000346002B02D04FF0010320E0FB681B7831
:1020300003F01F03012B0AD0022B0FD0002B14D169
:10204000F868B9687A68FFF78FFE03460FE0F86812
:10205000B9687A68FFF702FF034608E0F868B968D4
:102060007A68FFF755FF034601E04FF0000318467A
:1020700007F11007BD4680BD80B483B000AF786023
:1020800040F2CC13C1F200037A681A6007F10C0722
:10209000BD4680BC704700BF80B400AF00BFBD46E6
:1020A00080BC704780B584B000AF4FF00003FB7078
:1020B00040F20C33C1F200037B604FF000037B72EF
:1020C0006CE04FF00003BB7240F2D413C1F2000386
:1020D0001B78DBB2002B28D14CF20003C5F20003C1
:1020E0004CF20002C5F20002D2F8282242F00102AE
:1020F000C3F82822FFF7D0FF4CF20003C5F200031B
:10210000D3F8182240F2D813C1F200031A6040F24B
:10211000D813C1F200031B68BB7240F2D413C1F2A2
:1021200000034FF001021A701DE040F2D813C1F213
:1021300000031A6840F2D413C1F200031B78DBB22B
:102140004FEAC30302FA03F3BB7240F2D413C1F2A5
:1021500000031B78DBB203F10103DAB240F2D413BF
:10216000C1F200031A7040F2D413C1F200031B78CD
:10217000DBB2042B06D140F2D413C1F200034FF0BE
:1021800000021A70BB7A1A467B681A707B6803F1EA
:1021900001037B607B7A03F101037B727B7A072B5F
:1021A0008FD940F20C33C1F200031B783B7240F22E
:1021B0000C33C1F200035B78092B5FD801A252F8FF
:1021C00023F000BFED210000052200007D22000069
:1021D000052200007D2200001D2200002F220000A9
:1021E0007D22000047220000592200003B7A802B0C
:1021F00002D03B7A822B38D100F04EFD4FF0010324
:10220000FB703BE03B7A002B02D03B7A022B2ED1B5
:1022100000F0AAFF4FF00103FB702FE03B7A002B88
:1022200027D100F057F94FF00103FB7026E03B7A0D
:10223000802B02D03B7A812B1DD100F095FC4FF012
:102240000103FB701AE03B7A802B16D100F05CFA98
:102250004FF00103FB7011E03B7A002B0ED100F030
:10226000BBF94FF00103FB7008E000BF06E000BFC0
:1022700004E000BF02E000BF00E000BFFB7883F095
:102280000103DBB2002B01D0FEF70CF84CF2000387
:10229000C5F20003D3F8283203F03C034FEA93035E
:1022A000DBB2FB724CF20003C5F200034FF03002C8
:1022B000C3F808224CF20003C5F20003FA7A4FEA91
:1022C000024242F4A062C3F810224CF20003C5F2AD
:1022D0000003D3F8003203F01003002BF5D04CF2CA
:1022E0000003C5F200034FF01002C3F808224CF2BD
:1022F0000003C5F20003D3F8283203F03C034FEA91
:102300009303DBB23B734CF20003C5F200033A7B4C
:102310004FEA024242F40072C3F810224CF200036A
:10232000C5F20003D3F8003203F02003002BF5D0F0
:102330004CF20003C5F200034FF02002C3F808225C
:102340004CF20003C5F20003D3F81432DBB203F001
:102350000403002B0CBF00230123002B00F0B680E8
:102360004CF20003C5F20003D3F8283203F03C031B
:102370004FEA9303DBB203F14003DBB27B734CF211
:102380000003C5F200034FF03002C3F808224CF2FC
:102390000003C5F200037A7B4FEA024242F4A062D6
:1023A000C3F810224CF20003C5F20003D3F8003248
:1023B00003F01003002BF5D04CF20003C5F200032C
:1023C0004FF01002C3F808224CF20003C5F20003DC
:1023D00040F20012C0F20102C3F810224CF20003D6
:1023E000C5F20003D3F8003203F01003002BF5D040
:1023F0004CF20003C5F200034FF01002C3F80822AC
:102400004CF20003C5F20003D3F8283203F03C037A
:102410004FEA9303DBB203F14003DBB2BB734CF230
:102420000003C5F200034FF03002C3F808224CF25B
:102430000003C5F20003BA7B4FEA024242F4A062F5
:10244000C3F810224CF20003C5F20003D3F80032A7
:1024500003F01003002BF5D04CF20003C5F200038B
:102460004FF01002C3F808224CF20003C5F200033B
:10247000D3F8283203F03C034FEA9303DBB203F1B5
:102480004003DBB2FB734CF20003C5F20003FA7B9E
:102490004FEA024242F40072C3F810224CF20003E9
:1024A000C5F20003D3F8003203F02003002BF5D06F
:1024B0004CF20003C5F200034FF02002C3F80822DB
:1024C0004CF20003C5F20003D3F8143207F11007F1
:1024D000BD4680BD80B582B000AF40F20C33C1F282
:1024E00000035B88DBB203F07F037B714CF20003D7
:1024F000C5F20003D3F8283203F03C034FEA9303FC
:10250000DBB203F14003DBB2BB714CF20003C5F256
:1025100000034FF03002C3F808224CF20003C5F26A
:102520000003BA794FEA024242F4A062C3F81022D3
:102530004CF20003C5F20003D3F8003203F010039D
:10254000002BF5D04CF20003C5F200034FF010024F
:10255000C3F808224CF20003C5F20003D3F8283276
:1025600003F03C034FEA9303DBB203F14003DBB219
:10257000FB714CF20003C5F20003FA794FEA024204
:1025800042F40072C3F810224CF20003C5F20003BB
:10259000D3F8003203F02003002BF5D04CF20003F7
:1025A000C5F200034FF02002C3F808224CF20003EA
:1025B000C5F20003D3F8143201F046F97B79002B01
:1025C00006D040F20933C1F200034FF003021A7043
:1025D00007F10807BD4680BD80B582B000AF40F26C
:1025E0000C33C1F200035B88DBB2012B00F2878061
:1025F0004CF20003C5F20003D3F8283203F03C0389
:102600004FEA9303DBB203F14003DBB2BB714CF240
:102610000003C5F200034FF03002C3F808224CF269
:102620000003C5F20003BA794FEA024242F4A06205
:10263000C3F810224CF20003C5F20003D3F80032B5
:1026400003F01003002BF5D04CF20003C5F2000399
:102650004FF01002C3F808224CF20003C5F2000349
:10266000D3F8283203F03C034FEA9303DBB203F1C3
:102670004003DBB2FB714CF20003C5F20003FA79B0
:102680004FEA024242F40072C3F810224CF20003F7
:10269000C5F20003D3F8003203F02003002BF5D07D
:1026A0004CF20003C5F200034FF02002C3F80822E9
:1026B0004CF20003C5F20003D3F8143240F20C339D
:1026C000C1F200035B88DAB240F20633C1F20003C4
:1026D0001A7001F0B9F840F20633C1F200031B781A
:1026E000002B02D04FF0040201E04FF0030240F251
:1026F0000933C1F200031A70FDF7BCFD00E000BF12
:1027000007F10807BD4680BD80B582B000AF4CF22E
:102710000003C5F20003D3F8283203F03C034FEA6C
:102720009303DBB203F14003DBB2FB704CF2000316
:10273000C5F200034FF03002C3F808224CF2000348
:10274000C5F20003FA784FEA024242F4A062C3F8ED
:1027500010224CF20003C5F20003D3F8003203F05C
:102760001003002BF5D04CF20003C5F200034FF02C
:102770001002C3F808224CF20003C5F20003D3F89C
:10278000283203F03C034FEA9303DBB203F140032A
:10279000DBB23B714CF20003C5F200033A794FEA19
:1027A000024242F40072C3F810224CF20003C5F258
:1027B0000003D3F8003203F02003002BF5D04CF2D5
:1027C0000003C5F200034FF02002C3F808224CF2C8
:1027D0000003C5F20003D3F8143240F20633C1F20D
:1027E00000031B787B7140F2DC13C1F200031B78FD
:1027F000DBB2032B3AD17A7940F2DC13C1F2000349
:102800001B78DBB24FEAC30302FA03F31A4640F225
:10281000E013C1F200031B6842EA030240F2E01336
:10282000C1F200031A604CF20003C5F200034CF23F
:102830000002C5F20002D2F8282242F00202C3F8D8
:102840002822FFF729FC4CF20003C5F2000340F2F6
:10285000E012C1F200021268C3F81C2240F2DC133D
:10286000C1F200034FF000021A7025E07A7940F2BD
:10287000DC13C1F200031B78DBB24FEAC30302FA98
:1028800003F31A4640F2E013C1F200031B6842EA68
:10289000030240F2E013C1F200031A6040F2DC13BD
:1028A000C1F200031B78DBB203F10103DAB240F29C
:1028B000DC13C1F200031A7040F2DC13C1F2000312
:1028C0001B78DBB2002B0AD04CF20003C5F20003E8
:1028D00040F2E012C1F200021268C3F81C224CF26E
:1028E0000003C5F20003D3F8283203F03C034FEA9B
:1028F0009303DBB2BB714CF20003C5F200034FF04F
:102900003002C3F808224CF20003C5F20003BA7982
:102910004FEA024242F4A062C3F810224CF20003D4
:10292000C5F20003D3F8003203F01003002BF5D0FA
:102930004CF20003C5F200034FF01002C3F8082266
:102940006FF00503FB714CF20003C5F200034FF07A
:102950003002C3F808224CF20003C5F20003FA79F2
:102960004FEA024242F4A062C3F810224CF2000384
:10297000C5F20003D3F8003203F01003002BF5D0AA
:102980004CF20003C5F200034FF01002C3F8082216
:1029900000F05AFF07F10807BD4680BD80B483B040
:1029A00000AF0346FB71FB7903F00F0303F1300323
:1029B000FB71FB79392B04D9FB7903F10703DBB2F7
:1029C00000E0FB79184607F10C07BD4680BC704754
:1029D00080B58CB000AF4FF003037B704FF02A033B
:1029E0003B704FF00E0387F82A304FF0000387F852
:1029F0002B303EE04FF0000387F82C3097F82B3057
:102A000003F00103DBB2002B0BD097F82C304FEA18
:102A1000131387F82C3097F82A3003F1010387F855
:102A20002A3097F82B1097F82C3087F82D3097F82C
:102A30002D3003F00F0303F1300387F82D3097F8A2
:102A40002D30392B05D997F82D3003F10703DBB270
:102A500001E097F82D301A464FEA410307F13001A3
:102A60000B4423F82E2C97F82B3003F1010387F841
:102A70002B3097F82B30132BBCD94CF20003C5F246
:102A80000003D3F8283203F03C034FEA9303DBB290
:102A900003F14003DBB287F82E304CF20003C5F29D
:102AA00000034FF03002C3F808224CF20003C5F2D5
:102AB000000397F82E204FEA024242F4A062C3F8C6
:102AC00010224CF20003C5F20003D3F8003203F0E9
:102AD0001003002BF5D04CF20003C5F200034FF0B9
:102AE0001002C3F808224CF20003C5F20003D3F829
:102AF000283203F03C034FEA9303DBB203F14003B7
:102B0000DBB287F82F304CF20003C5F2000397F8D0
:102B10002F204FEA024242F40072C3F810224CF216
:102B20000003C5F20003D3F8003203F02003002BAA
:102B3000F5D04CF20003C5F200034FF02002C3F8B9
:102B400008224CF20003C5F20003D3F814323B46CE
:102B500018464FF02A0101F039FEFFF79DFA07F100
:102B60003007BD4680BD00BF80B582B000AF40F2E7
:102B70000C33C1F200035B88B3F5777F02D1FFF716
:102B800027FF85E040F20C33C1F20003598840F280
:102B90000C33C1F200039B88DAB23B46084611466B
:102BA0001A46FDF779FD0346BB80BB88002B6ED02B
:102BB0004CF20003C5F20003D3F8283203F03C03C3
:102BC0004FEA9303DBB203F14003DBB2BB714CF27B
:102BD0000003C5F200034FF03002C3F808224CF2A4
:102BE0000003C5F20003BA794FEA024242F4A06240
:102BF000C3F810224CF20003C5F20003D3F80032F0
:102C000003F01003002BF5D04CF20003C5F20003D3
:102C10004FF01002C3F808224CF20003C5F2000383
:102C2000D3F8283203F03C034FEA9303DBB203F1FD
:102C30004003DBB2FB714CF20003C5F20003FA79EA
:102C40004FEA024242F40072C3F810224CF2000331
:102C5000C5F20003D3F8003203F02003002BF5D0B7
:102C60004CF20003C5F200034FF02002C3F8082223
:102C70004CF20003C5F20003D3F814323A68BB8863
:102C80001046194602F004F8FFF706FA00E000BF0C
:102C900007F10807BD4680BD80B584B000AF4FF096
:102CA00000037B7140F20C33C1F200031B78802BD0
:102CB00002D0822B18D053E240F20433C1F2000359
:102CC0001B78002B03D07B7943F001037B7140F22A
:102CD0000533C1F200031B78002B00F08F807B7955
:102CE00043F002037B718AE04CF20003C5F200035B
:102CF0004CF20002C5F20002D2F8281240F20C3267
:102D0000C1F20002928802F47F7241EA0202C3F823
:102D100028224CF20003C5F20003D3F8283203F056
:102D20003C034FEA9303DBB2BB714CF20003C5F2E4
:102D300000034FF03002C3F808224CF20003C5F242
:102D40000003BA794FEA024242F4A062C3F81022AB
:102D50004CF20003C5F20003D3F8003203F0100375
:102D6000002BF5D04CF20003C5F200034FF0100227
:102D7000C3F808224CF20003C5F20003D3F828324E
:102D800003F03C034FEA9303DBB2FB714CF2000308
:102D9000C5F20003FA794FEA024242F40072C3F826
:102DA00010224CF20003C5F20003D3F8003203F006
:102DB0002003002BF5D04CF20003C5F200034FF0C6
:102DC0002002C3F808224CF20003C5F20003D3F836
:102DD0001432DBB203F00203002B0CBF00230123EB
:102DE0007B714CF20003C5F200034CF20002C5F205
:102DF0000002D2F82822C3F8282200E000BF4CF2DB
:102E00000003C5F20003D3F8283203F03C034FEA75
:102E10009303DBB203F14003DBB23B724CF20003DD
:102E2000C5F200034FF03002C3F808224CF2000351
:102E3000C5F200033A7A4FEA024242F4A062C3F8B4
:102E400010224CF20003C5F20003D3F8003203F065
:102E50001003002BF5D04CF20003C5F200034FF035
:102E60001002C3F808224CF20003C5F20003D3F8A5
:102E7000283203F03C034FEA9303DBB203F1400333
:102E8000DBB27B724CF20003C5F200037A7A4FEAA0
:102E9000024242F40072C3F810224CF20003C5F261
:102EA0000003D3F8003203F02003002BF5D04CF2DE
:102EB0000003C5F200034FF02002C3F808224CF2D1
:102EC0000003C5F20003D3F814327B797B817B8940
:102ED000DBB23B7340F2DC13C1F200031B78DBB2C0
:102EE000032B3AD13A7B40F2DC13C1F200031B788A
:102EF000DBB24FEAC30302FA03F31A4640F2E013CF
:102F0000C1F200031B6842EA030240F2E013C1F27F
:102F100000031A604CF20003C5F200034CF20002F9
:102F2000C5F20002D2F8282242F00202C3F8282299
:102F3000FFF7B2F84CF20003C5F2000340F2E012D2
:102F4000C1F200021268C3F81C2240F2DC13C1F285
:102F500000034FF000021A7025E03A7B40F2DC13C8
:102F6000C1F200031B78DBB24FEAC30302FA03F39A
:102F70001A4640F2E013C1F200031B6842EA030262
:102F800040F2E013C1F200031A6040F2DC13C1F218
:102F900000031B78DBB203F10103DAB240F2DC1369
:102FA000C1F200031A707B894FEA13239BB2DBB294
:102FB0007B7340F2DC13C1F200031B78DBB2032BFE
:102FC0003AD17A7B40F2DC13C1F200031B78DBB20A
:102FD0004FEAC30302FA03F31A4640F2E013C1F2C8
:102FE00000031B6842EA030240F2E013C1F200034F
:102FF0001A604CF20003C5F200034CF20002C5F265
:103000000002D2F8282242F00202C3F82822FFF779
:1030100043F84CF20003C5F2000340F2E012C1F2A3
:1030200000021268C3F81C2240F2DC13C1F2000354
:103030004FF000021A7025E07A7B40F2DC13C1F2F7
:1030400000031B78DBB24FEAC30302FA03F31A460C
:1030500040F2E013C1F200031B6842EA030240F2AF
:10306000E013C1F200031A6040F2DC13C1F2000366
:103070001B78DBB203F10103DAB240F2DC13C1F2D8
:1030800000031A7040F2DC13C1F200031B78DBB2BC
:10309000002B0AD04CF20003C5F2000340F2E0120C
:1030A000C1F200021268C3F81C224CF20003C5F200
:1030B0000003D3F8283203F03C034FEA9303DBB25A
:1030C000BB734CF20003C5F200034FF03002C3F8AB
:1030D00008224CF20003C5F20003BA7B4FEA024219
:1030E00042F4A062C3F810224CF20003C5F20003C0
:1030F000D3F8003203F01003002BF5D04CF200039C
:10310000C5F200034FF01002C3F808226FF0050368
:10311000FB734CF20003C5F200034FF03002C3F81A
:1031200008224CF20003C5F20003FA7B4FEA024288
:1031300042F4A062C3F810224CF20003C5F200036F
:10314000D3F8003203F01003002BF5D04CF200034B
:10315000C5F200034FF01002C3F8082200F074FB20
:1031600007F11007BD4680BD80B582B000AF40F2C8
:103170000C33C1F200031B7803F01F03002B02D0B5
:10318000022B19D0CCE140F20C33C1F200035B8872
:10319000DBB2012B40F0C18140F20C33C1F20003DD
:1031A0005B78032B14BF00230123DAB240F205330E
:1031B000C1F200031A703BE140F20C33C1F200038C
:1031C0005B88DBB2002B40F0308140F20C33C1F25F
:1031D00000039B88DBB203F007037B707B78002B36
:1031E00000F09D814CF20003C5F200034CF2000296
:1031F000C5F20002D2F828127A784FEA820241EA38
:103200000202C3F828224CF20003C5F20003D3F8EF
:1032100044224CF20003C5F20003D3F8283203F035
:103220003C034FEA9303DBB24FF0010101FA03F3D1
:1032300002EA0303002B00F0FA8040F20C33C1F2E3
:1032400000035B78032B50D14CF20003C5F200035E
:10325000D3F8283203F03C034FEA9303DBB203F1C7
:103260004003DBB2BB704CF20003C5F200034FF029
:103270003002C3F808224CF20003C5F20003BA780A
:103280004FEA024242F4A062C3F810224CF200035B
:10329000C5F20003D3F8003203F01003002BF5D081
:1032A0004CF20003C5F200034FF01002C3F80822ED
:1032B0004CF20003C5F2000340F20012C0F201021A
:1032C000C3F810224CF20003C5F20003D3F8003219
:1032D00003F01003002BF5D04CF20003C5F20003FD
:1032E0004FF01002C3F80822A2E04CF20003C5F22E
:1032F0000003D3F8283203F03C034FEA9303DBB218
:1033000003F14003DBB2FB704CF20003C5F2000393
:103310004FF03002C3F808224CF20003C5F200035C
:10332000FA784FEA024242F4A062C3F810224CF24B
:103330000003C5F20003D3F8003203F01003002BA2
:10334000F5D04CF20003C5F200034FF01002C3F8B1
:1033500008224CF20003C5F200034FF48072C3F858
:1033600010224CF20003C5F20003D3F8003203F040
:103370001003002BF5D04CF20003C5F200034FF010
:103380001002C3F808227B783B714CF20003C5F2AF
:1033900000034FF03002C3F808224CF20003C5F2DC
:1033A00000033A794FEA024242F4A062C3F81022C5
:1033B0004CF20003C5F20003D3F8003203F010030F
:1033C000002BF5D04CF20003C5F200034FF01002C1
:1033D000C3F808226FF00D037B714CF20003C5F2B5
:1033E00000034FF03002C3F808224CF20003C5F28C
:1033F00000037A794FEA024242F4A062C3F8102235
:103400004CF20003C5F20003D3F8003203F01003BE
:10341000002BF5D04CF20003C5F200034FF0100270
:10342000C3F80822FEF738FE02E000BF00E000BF4C
:103430004CF20003C5F200034CF20002C5F2000298
:10344000D2F82822C3F828224CF20003C5F2000368
:10345000D3F8283203F03C034FEA9303DBB203F1C5
:103460004003DBB2BB714CF20003C5F200034FF026
:103470003002C3F808224CF20003C5F20003BA7907
:103480004FEA024242F4A062C3F810224CF2000359
:10349000C5F20003D3F8003203F01003002BF5D07F
:1034A0004CF20003C5F200034FF01002C3F80822EB
:1034B0004CF20003C5F20003D3F8283203F03C03BA
:1034C0004FEA9303DBB203F14003DBB2FB714CF232
:1034D0000003C5F20003FA794FEA024242F4007297
:1034E000C3F810224CF20003C5F20003D3F80032F7
:1034F00003F02003002BF5D04CF20003C5F20003CB
:103500004FF02002C3F808224CF20003C5F200037A
:10351000D3F8143200F098F902E000BF00E000BFD9
:1035200007F10807BD4680BD80B400AF00BFBD46AF
:1035300080BC704780B485B000AF0346FB80FB8839
:103540007B814FF00003FB734FF00803BB8107E062
:10355000FB7B03F10103FB73BB894FEA4303BB8190
:103560007A89BB899A42F3D8FB7B184607F1140786
:10357000BD4680BC704700BF80B485B000AF134625
:103580000246FA710A46BA717B714CF20003C5F229
:1035900000034CF20002C5F20002D2F82812FA79B8
:1035A0004FEA820241EA0202C3F828224CF20003E9
:1035B000C5F200034CF20002C5F20002D2F8341248
:1035C0004CF20002C5F20002D2F8282202F03C02BE
:1035D0004FEA9202D2B24FF0010000FA02F241EA41
:1035E0000202C3F834224CF20003C5F200034CF28D
:1035F0000002C5F20002D2F844124CF20002C5F2F9
:103600000002D2F8282202F03C024FEA9202D2B223
:103610004FF0010000FA02F241EA0202C3F844222C
:103620004CF20003C5F20003D3F8283203F03C0348
:103630004FEA9303DBB203F14003DBB2FB734CF2BE
:103640000003C5F200034FF03002C3F808224CF229
:103650000003C5F20003FA7B4FEA024242F4A06283
:10366000C3F810224CF20003C5F20003D3F8003275
:1036700003F01003002BF5D04CF20003C5F2000359
:103680004FF01002C3F808224CF20003C5F2000309
:103690004FF48072C3F810224CF20003C5F200030D
:1036A000D3F8003203F01003002BF5D04CF20003E6
:1036B000C5F200034FF01002C3F808224CF20003D9
:1036C000C5F20003D3F83432002B0CBF00230123D2
:1036D000DBB2184607F11407BD4680BC704700BF37
:1036E00080B483B000AF4FF00003BB71A2E04CF296
:1036F0000003C5F200034CF20002C5F20002D2F84A
:103700002812BA794FEA820241EA0202C3F828225B
:103710004CF20003C5F200034CF20002C5F20002B5
:10372000D2F834124CF20002C5F20002D2F828227C
:1037300002F03C024FEA9202D2B24FF0010000FACE
:1037400002F26FEA020201EA0202C3F834224CF2EA
:103750000003C5F200034CF20002C5F20002D2F8E9
:1037600044124CF20002C5F20002D2F8282202F004
:103770003C024FEA9202D2B24FF0010000FA02F28C
:103780006FEA020201EA0202C3F844224CF200038B
:10379000C5F20003D3F8283203F03C034FEA930349
:1037A000DBB203F14003DBB2FB714CF20003C5F264
:1037B00000034FF03002C3F808224CF20003C5F2B8
:1037C0000003FA794FEA024242F4A062C3F81022E1
:1037D0004CF20003C5F20003D3F8003203F01003EB
:1037E000002BF5D04CF20003C5F200034FF010029D
:1037F000C3F808224CF20003C5F2000340F20012A5
:10380000C0F22002C3F810224CF20003C5F20003FC
:10381000D3F8003203F01003002BF5D04CF2000374
:10382000C5F200034FF01002C3F80822BB7903F180
:103830000103BB71BB79062B7FF659AF07F10C076B
:10384000BD4680BC704700BF80B582B000AF40F27B
:103850000C33C1F200031B785BB2002B2FDA08E0B7
:1038600040F20933C1F200031B78DBB2002B00F0F9
:1038700093804CF20003C5F20003D3F830224CF2DF
:103880000003C5F20003D3F8283203F03C034FEAEB
:1038900093033B603B684FEA5303D9B23B68DBB20A
:1038A00003F001030B44DBB24FF0010101FA03F313
:1038B00002EA0303002BD3D0FFF736FE6DE040F29F
:1038C000DC13C1F200031B78DBB2002B0AD04CF2F0
:1038D0000003C5F2000340F2E012C1F200021268D8
:1038E000C3F81C224CF20003C5F20003D3F82832BF
:1038F00003F03C034FEA9303DBB2BB714CF20003CD
:10390000C5F200034FF03002C3F808224CF2000366
:10391000C5F20003BA794FEA024242F4A062C3F84A
:1039200010224CF20003C5F20003D3F8003203F07A
:103930001003002BF5D04CF20003C5F200034FF04A
:103940001002C3F808226FF00503FB714CF200036C
:10395000C5F200034FF03002C3F808224CF2000316
:10396000C5F20003FA794FEA024242F4A062C3F8BA
:1039700010224CF20003C5F20003D3F8003203F02A
:103980001003002BF5D04CF20003C5F200034FF0FA
:103990001002C3F8082200E000BF07F10807BD4687
:1039A00080BD00BF80B485B000AF4FF06403FB71F1
:1039B0004CF20003C5F20003D3F8283203F00403ED
:1039C000002B02D04FF00003A4E04CF20003C5F23C
:1039D0000003D3F830224CF20003C5F20003D3F801
:1039E000283203F03C034FEA9303BB60BB684FEA05
:1039F0005303D9B2BB68DBB203F001030B44DBB263
:103A00004FF0010101FA03F302EA0303002B02D095
:103A10004FF000037EE040F20933C1F200031B784F
:103A2000DBB2002B02D14FF0020373E04CF2000333
:103A3000C5F20003D3F8283203F03C034FEA9303A6
:103A4000DBB2BB734CF20003C5F200034FF030024F
:103A5000C3F808224CF20003C5F20003BA7B4FEA18
:103A6000024242F4A062C3F810224CF20003C5F2F5
:103A70000003D3F8003203F01003002BF5D04CF212
:103A80000003C5F200034FF01002C3F808224CF205
:103A90000003C5F20003D3F8283203F03C034FEAD9
:103AA0009303DBB2FB734CF20003C5F20003FA7B15
:103AB0004FEA024242F40072C3F810224CF20003B3
:103AC000C5F20003D3F8003203F02003002BF5D039
:103AD0004CF20003C5F200034FF02002C3F80822A5
:103AE0004CF20003C5F20003D3F81432DBB203F04A
:103AF0000203002B0CBF00230123002B02D04FF048
:103B0000010307E040F2E413C1F200034FF00002AA
:103B10001A804DE7184607F11407BD4680BC704770
:103B200080B584B000AF03463960FB80FFF73AFFF1
:103B300003467B737B7B002B68D07B7B6BE04FF075
:103B40000003FB7340F2D413C1F200031B78DBB215
:103B5000002B28D14CF20003C5F200034CF2000206
:103B6000C5F20002D2F8282242F00102C3F828224E
:103B7000FFF7DAFC4CF20003C5F20003D3F8182279
:103B800040F2D813C1F200031A6040F2D813C1F218
:103B900000031B68FB7340F2D413C1F200034FF023
:103BA00001021A701DE040F2D813C1F200031A6836
:103BB00040F2D413C1F200031B78DBB24FEAC30317
:103BC00002FA03F3FB7340F2D413C1F200031B7833
:103BD000DBB203F10103DAB240F2D413C1F2000305
:103BE0001A7040F2D413C1F200031B78DBB2042B2D
:103BF00006D140F2D413C1F200034FF000021A7054
:103C0000FB7BBB73FB8803F1FF33FB80FB88002B3E
:103C100095D14FF00003184607F11007BD4680BD4F
:103C200080B483B000AF78607B681B78184607F1DA
:103C30000C07BD4680BC704780B483B000AF78608D
:103C40007B681B78184607F10C07BD4680BC70479F
:103C500080B483B000AF78600B46FB707B68FA7865
:103C60001A7007F10C07BD4680BC704780B586B05E
:103C700000AFF8600B467A607B81FB683B61FFF721
:103C800091FE0346BB75BB7D002B75D0BB7D78E0F4
:103C90003B691B783A6902F101023A61FB7540F217
:103CA000DC13C1F200031B78DBB2032B3AD1FA7D9F
:103CB00040F2DC13C1F200031B78DBB24FEAC3030E
:103CC00002FA03F31A4640F2E013C1F200031B6844
:103CD00042EA030240F2E013C1F200031A604CF220
:103CE0000003C5F200034CF20002C5F20002D2F854
:103CF000282242F00202C3F82822FFF715FC4CF2FA
:103D00000003C5F2000340F2E012C1F200021268A3
:103D1000C3F81C2240F2DC13C1F200034FF0000292
:103D20001A7025E0FA7D40F2DC13C1F200031B7823
:103D3000DBB24FEAC30302FA03F31A4640F2E01380
:103D4000C1F200031B6842EA030240F2E013C1F231
:103D500000031A6040F2DC13C1F200031B78DBB2EF
:103D600003F10103DAB240F2DC13C1F200031A706E
:103D70007B8903F1FF337B817B89002B88D14FF056
:103D80000003184607F11807BD4680BD80B586B010
:103D900000AFF8600B467A607B81FB683B61FFF700
:103DA00001FE0346BB75BB7D002B78D0BB7D7BE05D
:103DB0003B693A6902F101023A611846FFF730FFA8
:103DC0000346FB7540F2DC13C1F200031B78DBB243
:103DD000032B3AD1FA7D40F2DC13C1F200031B78C9
:103DE000DBB24FEAC30302FA03F31A4640F2E013D0
:103DF000C1F200031B6842EA030240F2E013C1F281
:103E000000031A604CF20003C5F200034CF20002FA
:103E1000C5F20002D2F8282242F00202C3F828229A
:103E2000FFF782FB4CF20003C5F2000340F2E01200
:103E3000C1F200021268C3F81C2240F2DC13C1F286
:103E400000034FF000021A7025E0FA7D40F2DC1307
:103E5000C1F200031B78DBB24FEAC30302FA03F39B
:103E60001A4640F2E013C1F200031B6842EA030263
:103E700040F2E013C1F200031A6040F2DC13C1F219
:103E800000031B78DBB203F10103DAB240F2DC136A
:103E9000C1F200031A707B8903F1FF337B817B89B8
:103EA000002B85D14FF00003184607F11807BD46D7
:103EB00080BD00BF80B586B000AFF8600B467A6069
:103EC0007B81FB683B61FFF76DFD0346BB75BB7DE6
:103ED000002B78D0BB7D7BE03B693A6902F101029F
:103EE0003A611846FFF7A8FE0346FB7540F2DC1363
:103EF000C1F200031B78DBB2032B3AD1FA7D40F20A
:103F0000DC13C1F200031B78DBB24FEAC30302FAF1
:103F100003F31A4640F2E013C1F200031B6842EAC1
:103F2000030240F2E013C1F200031A604CF20003F6
:103F3000C5F200034CF20002C5F20002D2F82822BA
:103F400042F00202C3F82822FFF7EEFA4CF2000317
:103F5000C5F2000340F2E012C1F200021268C3F899
:103F60001C2240F2DC13C1F200034FF000021A7071
:103F700025E0FA7D40F2DC13C1F200031B78DBB2CE
:103F80004FEAC30302FA03F31A4640F2E013C1F208
:103F900000031B6842EA030240F2E013C1F200038F
:103FA0001A6040F2DC13C1F200031B78DBB203F1AC
:103FB0000103DAB240F2DC13C1F200031A707B890C
:103FC00003F1FF337B817B89002B85D14FF0000308
:103FD000184607F11807BD4680BD00BF80B586B002
:103FE00000AFF8600B467A607B81FA687B8903F149
:103FF000FF3313443B61FFF7D5FC0346BB75BB7D24
:10400000002B75D0BB7D78E03B691B783A6902F1E3
:10401000FF323A61FB7540F2DC13C1F200031B78FA
:10402000DBB2032B3AD1FA7D40F2DC13C1F200037C
:104030001B78DBB24FEAC30302FA03F31A4640F2DD
:10404000E013C1F200031B6842EA030240F2E013EE
:10405000C1F200031A604CF20003C5F200034CF2F7
:104060000002C5F20002D2F8282242F00202C3F890
:104070002822FFF759FA4CF20003C5F2000340F280
:10408000E012C1F200021268C3F81C2240F2DC13F5
:10409000C1F200034FF000021A7025E0FA7D40F2F1
:1040A000DC13C1F200031B78DBB24FEAC30302FA50
:1040B00003F31A4640F2E013C1F200031B6842EA20
:1040C000030240F2E013C1F200031A6040F2DC1375
:1040D000C1F200031B78DBB203F10103DAB240F254
:1040E000DC13C1F200031A707B8903F1FF337B817B
:1040F0007B89002B88D14FF00003184607F1180781
:10410000BD4680BD80B586B000AFF8600B467A60D2
:104110007B81FA687B8903F1FF3313443B61FFF72E
:1041200041FC0346BB75BB7D002B78D0BB7D7BE09B
:104130003B693A6902F1FF323A611846FFF77CFDAC
:104140000346FB7540F2DC13C1F200031B78DBB2BF
:10415000032B3AD1FA7D40F2DC13C1F200031B7845
:10416000DBB24FEAC30302FA03F31A4640F2E0134C
:10417000C1F200031B6842EA030240F2E013C1F2FD
:1041800000031A604CF20003C5F200034CF2000277
:10419000C5F20002D2F8282242F00202C3F8282217
:1041A000FFF7C2F94CF20003C5F2000340F2E0123F
:1041B000C1F200021268C3F81C2240F2DC13C1F203
:1041C00000034FF000021A7025E0FA7D40F2DC1384
:1041D000C1F200031B78DBB24FEAC30302FA03F318
:1041E0001A4640F2E013C1F200031B6842EA0302E0
:1041F00040F2E013C1F200031A6040F2DC13C1F296
:1042000000031B78DBB203F10103DAB240F2DC13E6
:10421000C1F200031A707B8903F1FF337B817B8934
:10422000002B85D14FF00003184607F11807BD4653
:1042300080BD00BF80B586B000AFF8600B467A60E5
:104240007B81FA687B8903F1FF3313443B61FFF7FD
:10425000A9FB0346BB75BB7D002B78D0BB7D7BE003
:104260003B693A6902F1FF323A611846FFF7D8FC20
:104270000346FB7540F2DC13C1F200031B78DBB28E
:10428000032B3AD1FA7D40F2DC13C1F200031B7814
:10429000DBB24FEAC30302FA03F31A4640F2E0131B
:1042A000C1F200031B6842EA030240F2E013C1F2CC
:1042B00000031A604CF20003C5F200034CF2000246
:1042C000C5F20002D2F8282242F00202C3F82822E6
:1042D000FFF72AF94CF20003C5F2000340F2E012A6
:1042E000C1F200021268C3F81C2240F2DC13C1F2D2
:1042F00000034FF000021A7025E0FA7D40F2DC1353
:10430000C1F200031B78DBB24FEAC30302FA03F3E6
:104310001A4640F2E013C1F200031B6842EA0302AE
:1043200040F2E013C1F200031A6040F2DC13C1F264
:1043300000031B78DBB203F10103DAB240F2DC13B5
:10434000C1F200031A707B8903F1FF337B817B8903
:10435000002B85D14FF00003184607F11807BD4622
:1043600080BD00BF80B586B000AFF8600B467A60B4
:104370007B81FB683B61FFF715FB0346BB75BB7D8B
:10438000002B6ED0BB7D71E04FF00003FB7540F257
:10439000D413C1F200031B78DBB2002B28D14CF2FE
:1043A0000003C5F200034CF20002C5F20002D2F88D
:1043B000282242F00102C3F82822FFF7B5F84CF298
:1043C0000003C5F20003D3F8182240F2D813C1F25B
:1043D00000031A6040F2D813C1F200031B68FB759A
:1043E00040F2D413C1F200034FF001021A701DE035
:1043F00040F2D813C1F200031A6840F2D413C1F29C
:1044000000031B78DBB24FEAC30302FA03F3FB7528
:1044100040F2D413C1F200031B78DBB203F10103B5
:10442000DAB240F2D413C1F200031A7040F2D4138E
:10443000C1F200031B78DBB2042B06D140F2D41387
:10444000C1F200034FF000021A70FB7D1A463B696F
:104450001A703B6903F101033B617B8903F1FF3370
:104460007B817B89002B8FD14FF00003184607F129
:104470001807BD4680BD00BF90B587B000AFF8609B
:104480000B467A607B81FB683B61FFF78BFA034642
:10449000BB75BB7D002B70D0BB7D73E03C693B6975
:1044A00003F101033B614FF00003FB7540F2D413AD
:1044B000C1F200031B78DBB2002B28D14CF20003C1
:1044C000C5F200034CF20002C5F20002D2F8282225
:1044D00042F00102C3F82822FFF726F84CF200034D
:1044E000C5F20003D3F8182240F2D813C1F200033A
:1044F0001A6040F2D813C1F200031B68FB7540F24A
:10450000D413C1F200034FF001021A701DE040F213
:10451000D813C1F200031A6840F2D413C1F20003A9
:104520001B78DBB24FEAC30302FA03F3FB7540F2D8
:10453000D413C1F200031B78DBB203F10103DAB23A
:1045400040F2D413C1F200031A7040F2D413C1F246
:1045500000031B78DBB2042B06D140F2D413C1F266
:1045600000034FF000021A70FB7D20461946FFF74A
:104570006FFB7B8903F1FF337B817B89002B8DD11E
:104580004FF00003184607F11C07BD4690BD00BF61
:1045900080B586B000AFF8600B467A607B81FA6820
:1045A0007B8903F1FF3313443B61FFF7FBF90346BB
:1045B000BB75BB7D002B6ED0BB7D71E04FF000035F
:1045C000FB7540F2D413C1F200031B78DBB2002B61
:1045D00028D14CF20003C5F200034CF20002C5F2F0
:1045E0000002D2F8282242F00102C3F82822FEF786
:1045F0009BFF4CF20003C5F20003D3F8182240F2EF
:10460000D813C1F200031A6040F2D813C1F20003BC
:104610001B68FB7540F2D413C1F200034FF0010296
:104620001A701DE040F2D813C1F200031A6840F27C
:10463000D413C1F200031B78DBB24FEAC30302FAC2
:1046400003F3FB7540F2D413C1F200031B78DBB215
:1046500003F10103DAB240F2D413C1F200031A707D
:1046600040F2D413C1F200031B78DBB2042B06D155
:1046700040F2D413C1F200034FF000021A70FB7D28
:104680001A463B691A703B6903F1FF333B617B8932
:1046900003F1FF337B817B89002B8FD14FF0000327
:1046A000184607F11807BD4680BD00BF90B587B01A
:1046B00000AFF8600B467A607B81FA687B8903F172
:1046C000FF3313443B61FFF76DF90346BB75BB7DB8
:1046D000002B70D0BB7D73E03C693B6903F1FF3375
:1046E0003B614FF00003FB7540F2D413C1F20003AD
:1046F0001B78DBB2002B28D14CF20003C5F200037B
:104700004CF20002C5F20002D2F8282242F0010267
:10471000C3F82822FEF708FF4CF20003C5F200039D
:10472000D3F8182240F2D813C1F200031A6040F205
:10473000D813C1F200031B68FB7540F2D413C1F219
:1047400000034FF001021A701DE040F2D813C1F2CD
:1047500000031A6840F2D413C1F200031B78DBB2E5
:104760004FEAC30302FA03F3FB7540F2D413C1F21C
:1047700000031B78DBB203F10103DAB240F2D41379
:10478000C1F200031A7040F2D413C1F200031B7887
:10479000DBB2042B06D140F2D413C1F200034FF078
:1047A00000021A70FB7D20461946FFF751FA7B89FB
:1047B00003F1FF337B817B89002B8DD14FF0000308
:1047C000184607F11C07BD4690BD00BF80B588B0F4
:1047D00000AF78600B467B807B68BB604FF00003C6
:1047E0007B7340F20C33C1F20003DB887A889A4273
:1047F00006D940F20C33C1F20003DB887B8009E26A
:104800007B88002B40F0068240F2DC13C1F20003EB
:104810001B78DBB2002B0AD04CF20003C5F2000378
:1048200040F2E012C1F200021268C3F81C224CF2FE
:104830000003C5F20003D3F8283203F03C034FEA2B
:104840009303DBB23B744CF20003C5F200034FF05C
:104850003002C3F808224CF20003C5F200033A7C90
:104860004FEA024242F4A062C3F810224CF2000365
:10487000C5F20003D3F8003203F01003002BF5D08B
:104880004CF20003C5F200034FF01002C3F80822F7
:104890006FF005037B744CF20003C5F200034FF088
:1048A0003002C3F808224CF20003C5F200037A7C00
:1048B0004FEA024242F4A062C3F810224CF2000315
:1048C000C5F20003D3F8003203F01003002BF5D03B
:1048D0004CF20003C5F200034FF01002C3F80822A7
:1048E00098E14CF20003C5F20003D3F8283203F03C
:1048F0003C034FEA9303DBB2BB744CF20003C5F2F6
:1049000000034FF03002C3F808224CF20003C5F256
:104910000003BA7C4FEA024242F4A062C3F81022BC
:104920004CF20003C5F20003D3F8003203F0100389
:10493000002BF5D04CF20003C5F200034FF010023B
:10494000C3F808224CF20003C5F20003D3F8283262
:1049500003F03C034FEA9303DBB2FB744CF2000319
:10496000C5F20003FA7C4FEA024242F40072C3F837
:1049700010224CF20003C5F20003D3F8003203F01A
:104980002003002BF5D04CF20003C5F200034FF0DA
:104990002002C3F808224CF20003C5F20003D3F84A
:1049A0001432DBB203F00403002B0CBF00230123FD
:1049B000002B02D04FF0010365E14CF20003C5F279
:1049C0000003D3F830224CF20003C5F20003D3F801
:1049D000283203F03C034FEA93037B617B694FEA83
:1049E0005303D9B27B69DBB203F001030B44DBB2A2
:1049F0004FF0010101FA03F302EA0303002B01D097
:104A000000BF1BE140F20933C1F200031B78DBB2A7
:104A1000002B02D14FF0020335E14CF20003C5F246
:104A20000003D3F820329BB24FEA83534FEA9353EB
:104A3000FB8177E0BB681B78BA6802F10102BA60BB
:104A40007B7640F2DC13C1F200031B78DBB2032B50
:104A50003AD17A7E40F2DC13C1F200031B78DBB25C
:104A60004FEAC30302FA03F31A4640F2E013C1F21D
:104A700000031B6842EA030240F2E013C1F20003A4
:104A80001A604CF20003C5F200034CF20002C5F2BA
:104A90000002D2F8282242F00202C3F82822FEF7D0
:104AA00043FD4CF20003C5F2000340F2E012C1F2F4
:104AB00000021268C3F81C2240F2DC13C1F20003AA
:104AC0004FF000021A7025E07A7E40F2DC13C1F24A
:104AD00000031B78DBB24FEAC30302FA03F31A4662
:104AE00040F2E013C1F200031B6842EA030240F205
:104AF000E013C1F200031A6040F2DC13C1F20003BC
:104B00001B78DBB203F10103DAB240F2DC13C1F22D
:104B100000031A707B8803F1FF337B80FB8903F16C
:104B20000103FB817B88002B02D0FB89072B81D9F5
:104B3000FB89082B14BF002301237B7340F2DC1395
:104B4000C1F200031B78DBB2002B0AD04CF2000349
:104B5000C5F2000340F2E012C1F200021268C3F88D
:104B60001C224CF20003C5F20003D3F8283203F0F4
:104B70003C034FEA9303DBB2BB764CF20003C5F271
:104B800000034FF03002C3F808224CF20003C5F2D4
:104B90000003BA7E4FEA024242F4A062C3F8102238
:104BA0004CF20003C5F20003D3F8003203F0100307
:104BB000002BF5D04CF20003C5F200034FF01002B9
:104BC000C3F808226FF00503FB764CF20003C5F230
:104BD00000034FF03002C3F808224CF20003C5F284
:104BE0000003FA7E4FEA024242F4A062C3F81022A8
:104BF0004CF20003C5F20003D3F8003203F01003B7
:104C0000002BF5D04CF20003C5F200034FF0100268
:104C1000C3F808227B88002B7FF463AE7B7B002BDC
:104C20007FF45FAE0AE040F20933C1F200031B7863
:104C3000DBB2002B02D14FF0020324E04CF2000360
:104C4000C5F20003D3F830224CF20003C5F2000392
:104C5000D3F8283203F03C034FEA9303FB61FB696E
:104C60004FEA5303D9B2FB69DBB203F001030B44F3
:104C7000DBB24FF0010101FA03F302EA0303002B58
:104C8000D1D04FF00003184607F12007BD4680BD84
:104C900080B588B000AF78600B467B807B68BB60D6
:104CA0004FF000037B7340F20C33C1F20003DB884A
:104CB0007A889A4206D940F20C33C1F20003DB88AD
:104CC0007B800DE27B88002B40F00A8240F2DC13EF
:104CD000C1F200031B78DBB2002B0AD04CF20003B8
:104CE000C5F2000340F2E012C1F200021268C3F8FC
:104CF0001C224CF20003C5F20003D3F8283203F063
:104D00003C034FEA9303DBB23B744CF20003C5F261
:104D100000034FF03002C3F808224CF20003C5F242
:104D200000033A7C4FEA024242F4A062C3F8102228
:104D30004CF20003C5F20003D3F8003203F0100375
:104D4000002BF5D04CF20003C5F200034FF0100227
:104D5000C3F808226FF005037B744CF20003C5F220
:104D600000034FF03002C3F808224CF20003C5F2F2
:104D700000037A7C4FEA024242F4A062C3F8102298
:104D80004CF20003C5F20003D3F8003203F0100325
:104D9000002BF5D04CF20003C5F200034FF01002D7
:104DA000C3F808229CE14CF20003C5F20003D3F8DB
:104DB000283203F03C034FEA9303DBB2BB744CF29E
:104DC0000003C5F200034FF03002C3F808224CF292
:104DD0000003C5F20003BA7C4FEA024242F4A0622B
:104DE000C3F810224CF20003C5F20003D3F80032DE
:104DF00003F01003002BF5D04CF20003C5F20003C2
:104E00004FF01002C3F808224CF20003C5F2000371
:104E1000D3F8283203F03C034FEA9303DBB2FB7470
:104E20004CF20003C5F20003FA7C4FEA024242F45E
:104E30000072C3F810224CF20003C5F20003D3F84D
:104E4000003203F02003002BF5D04CF20003C5F232
:104E500000034FF02002C3F808224CF20003C5F211
:104E60000003D3F81432DBB203F00403002B0CBFB1
:104E700000230123002B02D04FF0010369E14CF223
:104E80000003C5F20003D3F830224CF20003C5F250
:104E90000003D3F8283203F03C034FEA93037B610D
:104EA0007B694FEA5303D9B27B69DBB203F001039C
:104EB0000B44DBB24FF0010101FA03F302EA0303F2
:104EC000002B01D000BF1FE140F20933C1F2000303
:104ED0001B78DBB2002B02D14FF0020339E14CF218
:104EE0000003C5F20003D3F820329BB24FEA83538C
:104EF0004FEA9353FB817AE0BB68BA6802F1010282
:104F0000BA601846FEF78CFE03467B7640F2DC134F
:104F1000C1F200031B78DBB2032B3AD17A7E40F258
:104F2000DC13C1F200031B78DBB24FEAC30302FAC1
:104F300003F31A4640F2E013C1F200031B6842EA91
:104F4000030240F2E013C1F200031A604CF20003C6
:104F5000C5F200034CF20002C5F20002D2F828228A
:104F600042F00202C3F82822FEF7DEFA4CF20003F8
:104F7000C5F2000340F2E012C1F200021268C3F869
:104F80001C2240F2DC13C1F200034FF000021A7041
:104F900025E07A7E40F2DC13C1F200031B78DBB21D
:104FA0004FEAC30302FA03F31A4640F2E013C1F2D8
:104FB00000031B6842EA030240F2E013C1F200035F
:104FC0001A6040F2DC13C1F200031B78DBB203F17C
:104FD0000103DAB240F2DC13C1F200031A707B88DD
:104FE00003F1FF337B80FB8903F10103FB817B88A5
:104FF000002B03D0FB89072B7FF67EAFFB89082BA4
:1050000014BF002301237B7340F2DC13C1F20003C1
:105010001B78DBB2002B0AD04CF20003C5F2000370
:1050200040F2E012C1F200021268C3F81C224CF2F6
:105030000003C5F20003D3F8283203F03C034FEA23
:105040009303DBB2BB764CF20003C5F200034FF0D2
:105050003002C3F808224CF20003C5F20003BA7E06
:105060004FEA024242F4A062C3F810224CF200035D
:10507000C5F20003D3F8003203F01003002BF5D083
:105080004CF20003C5F200034FF01002C3F80822EF
:105090006FF00503FB764CF20003C5F200034FF0FE
:1050A0003002C3F808224CF20003C5F20003FA7E76
:1050B0004FEA024242F4A062C3F810224CF200030D
:1050C000C5F20003D3F8003203F01003002BF5D033
:1050D0004CF20003C5F200034FF01002C3F808229F
:1050E0007B88002B7FF45FAE7B7B002B7FF45BAE75
:1050F0000AE040F20933C1F200031B78DBB2002B57
:1051000002D14FF0020324E04CF20003C5F2000389
:10511000D3F830224CF20003C5F20003D3F8283252
:1051200003F03C034FEA9303FB61FB694FEA53032F
:10513000D9B2FB69DBB203F001030B44DBB24FF0E1
:10514000010101FA03F302EA0303002BD1D04FF06F
:105150000003184607F12007BD4680BD80B588B022
:1051600000AF78600B467B807B68BB604FF000032C
:105170007B7340F20C33C1F20003DB887A889A42D9
:1051800006D940F20C33C1F20003DB887B800DE2CC
:105190007B88002B40F00A8240F2DC13C1F200034E
:1051A0001B78DBB2002B0AD04CF20003C5F20003DF
:1051B00040F2E012C1F200021268C3F81C224CF265
:1051C0000003C5F20003D3F8283203F03C034FEA92
:1051D0009303DBB23B744CF20003C5F200034FF0C3
:1051E0003002C3F808224CF20003C5F200033A7CF7
:1051F0004FEA024242F4A062C3F810224CF20003CC
:10520000C5F20003D3F8003203F01003002BF5D0F1
:105210004CF20003C5F200034FF01002C3F808225D
:105220006FF005037B744CF20003C5F200034FF0EE
:105230003002C3F808224CF20003C5F200037A7C66
:105240004FEA024242F4A062C3F810224CF200037B
:10525000C5F20003D3F8003203F01003002BF5D0A1
:105260004CF20003C5F200034FF01002C3F808220D
:105270009CE14CF20003C5F20003D3F8283203F09E
:105280003C034FEA9303DBB2BB744CF20003C5F25C
:1052900000034FF03002C3F808224CF20003C5F2BD
:1052A0000003BA7C4FEA024242F4A062C3F8102223
:1052B0004CF20003C5F20003D3F8003203F01003F0
:1052C000002BF5D04CF20003C5F200034FF01002A2
:1052D000C3F808224CF20003C5F20003D3F82832C9
:1052E00003F03C034FEA9303DBB2FB744CF2000380
:1052F000C5F20003FA7C4FEA024242F40072C3F89E
:1053000010224CF20003C5F20003D3F8003203F080
:105310002003002BF5D04CF20003C5F200034FF040
:105320002002C3F808224CF20003C5F20003D3F8B0
:105330001432DBB203F00403002B0CBF0023012363
:10534000002B02D04FF0010369E14CF20003C5F2DB
:105350000003D3F830224CF20003C5F20003D3F867
:10536000283203F03C034FEA93037B617B694FEAE9
:105370005303D9B27B69DBB203F001030B44DBB208
:105380004FF0010101FA03F302EA0303002B01D0FD
:1053900000BF1FE140F20933C1F200031B78DBB20A
:1053A000002B02D14FF0020339E14CF20003C5F2A9
:1053B0000003D3F820329BB24FEA83534FEA935352
:1053C000FB817AE0BB68BA6802F10102BA60184654
:1053D000FEF732FC03467B7640F2DC13C1F2000399
:1053E0001B78DBB2032B3AD17A7E40F2DC13C1F298
:1053F00000031B78DBB24FEAC30302FA03F31A4639
:1054000040F2E013C1F200031B6842EA030240F2DB
:10541000E013C1F200031A604CF20003C5F200036E
:105420004CF20002C5F20002D2F8282242F0020239
:10543000C3F82822FEF778F84CF20003C5F2000307
:1054400040F2E012C1F200021268C3F81C2240F2DE
:10545000DC13C1F200034FF000021A7025E07A7EDF
:1054600040F2DC13C1F200031B78DBB24FEAC30346
:1054700002FA03F31A4640F2E013C1F200031B687C
:1054800042EA030240F2E013C1F200031A6040F264
:10549000DC13C1F200031B78DBB203F10103DAB2C3
:1054A00040F2DC13C1F200031A707B8803F1FF3372
:1054B0007B80FB8903F10103FB817B88002B03D0F8
:1054C000FB89072B7FF67EAFFB89082B14BF0023D7
:1054D00001237B7340F2DC13C1F200031B78DBB2C3
:1054E000002B0AD04CF20003C5F2000340F2E01298
:1054F000C1F200021268C3F81C224CF20003C5F28C
:105500000003D3F8283203F03C034FEA9303DBB2E5
:10551000BB764CF20003C5F200034FF03002C3F833
:1055200008224CF20003C5F20003BA7E4FEA0242A1
:1055300042F4A062C3F810224CF20003C5F200034B
:10554000D3F8003203F01003002BF5D04CF2000327
:10555000C5F200034FF01002C3F808226FF00503F4
:10556000FB764CF20003C5F200034FF03002C3F8A3
:1055700008224CF20003C5F20003FA7E4FEA024211
:1055800042F4A062C3F810224CF20003C5F20003FB
:10559000D3F8003203F01003002BF5D04CF20003D7
:1055A000C5F200034FF01002C3F808227B88002BDD
:1055B0007FF45FAE7B7B002B7FF45BAE0AE040F2B2
:1055C0000933C1F200031B78DBB2002B02D14FF08C
:1055D000020324E04CF20003C5F20003D3F83022AA
:1055E0004CF20003C5F20003D3F8283203F03C0369
:1055F0004FEA9303FB61FB694FEA5303D9B2FB699E
:10560000DBB203F001030B44DBB24FF0010101FAFE
:1056100003F302EA0303002BD1D04FF00003184636
:1056200007F12007BD4680BD80B588B000AF786027
:105630000B467B807A687B8803F1FF331344BB60A1
:105640004FF000037B7340F20C33C1F20003DB88A0
:105650007A889A4206D940F20C33C1F20003DB8803
:105660007B8009E27B88002B40F0068240F2DC134D
:10567000C1F200031B78DBB2002B0AD04CF200030E
:10568000C5F2000340F2E012C1F200021268C3F852
:105690001C224CF20003C5F20003D3F8283203F0B9
:1056A0003C034FEA9303DBB23B744CF20003C5F2B8
:1056B00000034FF03002C3F808224CF20003C5F299
:1056C00000033A7C4FEA024242F4A062C3F810227F
:1056D0004CF20003C5F20003D3F8003203F01003CC
:1056E000002BF5D04CF20003C5F200034FF010027E
:1056F000C3F808226FF005037B744CF20003C5F277
:1057000000034FF03002C3F808224CF20003C5F248
:1057100000037A7C4FEA024242F4A062C3F81022EE
:105720004CF20003C5F20003D3F8003203F010037B
:10573000002BF5D04CF20003C5F200034FF010022D
:10574000C3F8082298E14CF20003C5F20003D3F835
:10575000283203F03C034FEA9303DBB2BB744CF2F4
:105760000003C5F200034FF03002C3F808224CF2E8
:105770000003C5F20003BA7C4FEA024242F4A06281
:10578000C3F810224CF20003C5F20003D3F8003234
:1057900003F01003002BF5D04CF20003C5F2000318
:1057A0004FF01002C3F808224CF20003C5F20003C8
:1057B000D3F8283203F03C034FEA9303DBB2FB74C7
:1057C0004CF20003C5F20003FA7C4FEA024242F4B5
:1057D0000072C3F810224CF20003C5F20003D3F8A4
:1057E000003203F02003002BF5D04CF20003C5F289
:1057F00000034FF02002C3F808224CF20003C5F268
:105800000003D3F81432DBB203F00403002B0CBF07
:1058100000230123002B02D04FF0010365E14CF27D
:105820000003C5F20003D3F830224CF20003C5F2A6
:105830000003D3F8283203F03C034FEA93037B6163
:105840007B694FEA5303D9B27B69DBB203F00103F2
:105850000B44DBB24FF0010101FA03F302EA030348
:10586000002B01D000BF1BE140F20933C1F200035D
:105870001B78DBB2002B02D14FF0020335E14CF272
:105880000003C5F20003D3F820329BB24FEA8353E2
:105890004FEA9353FB8177E0BB681B78BA6802F14B
:1058A000FF32BA607B7640F2DC13C1F200031B7852
:1058B000DBB2032B3AD17A7E40F2DC13C1F2000353
:1058C0001B78DBB24FEAC30302FA03F31A4640F235
:1058D000E013C1F200031B6842EA030240F2E01346
:1058E000C1F200031A604CF20003C5F200034CF24F
:1058F0000002C5F20002D2F8282242F00202C3F8E8
:105900002822FDF711FE4CF20003C5F2000340F21D
:10591000E012C1F200021268C3F81C2240F2DC134C
:10592000C1F200034FF000021A7025E07A7E40F2C7
:10593000DC13C1F200031B78DBB24FEAC30302FAA7
:1059400003F31A4640F2E013C1F200031B6842EA77
:10595000030240F2E013C1F200031A6040F2DC13CC
:10596000C1F200031B78DBB203F10103DAB240F2AB
:10597000DC13C1F200031A707B8803F1FF337B80D4
:10598000FB8903F10103FB817B88002B02D0FB899B
:10599000072B81D9FB89082B14BF002301237B73BC
:1059A00040F2DC13C1F200031B78DBB2002B0AD0FB
:1059B0004CF20003C5F2000340F2E012C1F2000213
:1059C0001268C3F81C224CF20003C5F20003D3F89E
:1059D000283203F03C034FEA9303DBB2BB764CF270
:1059E0000003C5F200034FF03002C3F808224CF266
:1059F0000003C5F20003BA7E4FEA024242F4A062FD
:105A0000C3F810224CF20003C5F20003D3F80032B1
:105A100003F01003002BF5D04CF20003C5F2000395
:105A20004FF01002C3F808226FF00503FB764CF22A
:105A30000003C5F200034FF03002C3F808224CF215
:105A40000003C5F20003FA7E4FEA024242F4A0626C
:105A5000C3F810224CF20003C5F20003D3F8003261
:105A600003F01003002BF5D04CF20003C5F2000345
:105A70004FF01002C3F808227B88002B7FF463AE3E
:105A80007B7B002B7FF45FAE0AE040F20933C1F26A
:105A900000031B78DBB2002B02D14FF0020324E09D
:105AA0004CF20003C5F20003D3F830224CF200039D
:105AB000C5F20003D3F8283203F03C034FEA930306
:105AC000FB61FB694FEA5303D9B2FB69DBB203F018
:105AD00001030B44DBB24FF0010101FA03F302EAC8
