:1000000000800010C5000000C9030000CB03000001
:10001000CD030000CF030000D1030000000000006A
:10002000000000000000000000000000D3030000FA
:10003000D503000000000000D7030000D90800002D
:10004000DB030000DB030000DB030000DB03000038
:10005000DB030000DB030000DB030000DB03000028
:10006000DB030000DB030000DB030000DB03000018
:10007000DB030000DB030000DB030000DB03000008
:10008000DB030000DB030000DB030000DB030000F8
:10009000DB030000DB030000DB030000DB030000E8
:1000A000DB030000DB030000DB030000DB030000D8
:1000B000DB030000DB030000DB030000DB030000C8
:1000C000DB030000014880470148004705060000A7
:1000D000810A000010B540F21004C1F20004237838
:1000E00063B940F20000C0F2000028B140F6E02001
:1000F000C0F20000AFF300800121217010BD00BFED
:1001000008B540F20003C0F200034BB140F6E02016
:1001100040F21401C0F20000C1F20001AFF3008010
:1001200040F20000C1F20000016829B140F2000372
:10013000C0F2000303B1984708BD00BF4FF00004B0
:10014000EFF309842046704723461846034683F39D
:10015000098870474FF00004EFF308842046704789
:1001600023461846034683F30888704780B483B05B
:1001700000AF4FF000037B60EFF312837B607B687E
:10018000184607F10C07BD4680BC704780B483B0A9
:1001900000AF78607B6883F3118807F10C07BD46D8
:1001A00080BC704780B483B000AF4FF000037B6029
:1001B000EFF310837B607B68184607F10C07BD46A0
:1001C00080BC704780B483B000AF78607B6883F3F5
:1001D000108807F10C07BD4680BC704780B483B01F
:1001E00000AF4FF000037B60EFF313837B607B680D
:1001F000184607F10C07BD4680BC704780B483B039
:1002000000AF78607B6883F3138807F10C07BD4665
:1002100080BC704780B483B000AF4FF000037B60B8
:10022000EFF314837B607B68184607F10C07BD462B
:1002300080BC704780B483B000AF78607B6883F384
:10024000148807F10C07BD4680BC704780B485B0A8
:1002500000AF78604FF00003FB607B681BBAFB6067
:10026000FB68184607F11407BD4680BC704700BF05
:1002700080B485B000AF0346FB804FF00003FB6005
:10028000FB885BBAFB60FB68184607F11407BD46A4
:1002900080BC704780B485B000AF0346FB804FF050
:1002A0000003FB60FB88DBBAFB60FB68184607F1C4
:1002B0001407BD4680BC704780B485B000AF78603D
:1002C0004FF00003FB607B6893FAA3F3FB60FB68CD
:1002D000184607F11407BD4680BC704780B485B04E
:1002E00000AF78604FF00003FB737B68D3E84F3FAB
:1002F000FB73FB7B184607F11407BD4680BC7047B3
:1003000080B485B000AF78604FF00003FB817B685C
:10031000D3E85F3FFB81FB89184607F11407BD4610
:1003200080BC704780B485B000AF78604FF00003A8
:10033000FB607B6853E8003FFB60FB68184607F1F1
:100340001407BD4680BC704780B485B000AF03463B
:100350003960FB714FF00003FB603B68FA79C3E83A
:10036000432FFB60FB68184607F11407BD4680BCAD
:10037000704700BF80B485B000AF03463960FB8092
:100380004FF00003FB603B68FA88C3E8532FFB6023
:10039000FB68184607F11407BD4680BC704700BFD4
:1003A00080B485B000AF786039604FF00003FB6027
:1003B0003B687A6843E80023FB60FB68184607F156
:1003C0001407BD4680BC7047FEE7FEE7FEE7FEE788
:1003D000FEE7FEE7FEE7FEE7FEE7FEE780B400AFDC
:1003E0004CF20003C4F20F03D3F888304FEA1363D2
:1003F00003F00303032B40F0AC804CF20003C4F283
:100400000F03D3F80C3103F00303032B00F2F68043
:1004100001A252F823F000BF290400008D0400005F
:10042000F3040000290400004CF20003C4F20F039F
:10043000D3F888304FEA43434FEA534303F10102B4
:1004400041F20023C0F27A0303FB02F24CF20003F4
:10045000C4F20F03D3F888304FEA134303F0FF03CD
:1004600003F10103B2FBF3F24CF20003C4F20F03F9
:10047000D3F8043103F0FF0303F10103B2FBF3F2FD
:1004800040F20803C1F200031A60B8E04CF2000326
:10049000C4F20F03D3F888304FEA43434FEA534383
:1004A00003F1010243F20063C0F26E1303FB02F298
:1004B0004CF20003C4F20F03D3F888304FEA134321
:1004C00003F0FF0303F10103B2FBF3F24CF200036C
:1004D000C4F20F03D3F8043103F0FF0303F1010367
:1004E000B2FBF3F240F20803C1F200031A6000BF4E
:1004F00085E04CF20003C4F20F03D3F888304FEAD2
:1005000043434FEA534303F101034FF47A4202FBA2
:1005100003F24CF20003C4F20F03D3F888304FEA21
:10052000134303F0FF0303F10103B2FBF3F24CF2B8
:100530000003C4F20F03D3F8043103F0FF0303F107
:100540000103B2FBF3F240F20803C1F200031A60A8
:1005500055E04CF20003C4F20F03D3F80C3103F062
:100560000303032B4BD801A252F823F07D050000B2
:10057000A9050000D50500007D0500004CF2000330
:10058000C4F20F03D3F8043103F0FF0303F10102B7
:1005900040F60013C0F23D03B3FBF2F240F2080351
:1005A000C1F200031A602AE04CF20003C4F20F0308
:1005B000D3F8043103F0FF0303F1010241F60033E5
:1005C000C0F2B703B3FBF2F240F20803C1F200033A
:1005D0001A6014E04CF20003C4F20F03D3F80431A4
:1005E00003F0FF0303F101034FF4FA42B2FBF3F20D
:1005F00040F20803C1F200031A6000E000BFBD46EC
:1006000080BC704780B400AF4CF20003C4F20F030B
:100610004FF02002C3F8A0214CF20003C4F20F03F4
:10062000D3F8A03103F04003002BF5D04CF20003C7
:10063000C4F20F034FF00302C3F804214CF200038D
:10064000C4F20F034FF00102C3F80C214CF2000377
:10065000C4F20F0340F26302C0F20502C3F8842023
:100660004CF20003C4F20F034FF0AA02C3F88C202F
:100670004CF20003C4F20F034FF05502C3F88C2074
:100680004CF20003C4F20F034FF00102C3F88020C4
:100690004CF20003C4F20F034FF0AA02C3F88C20FF
:1006A0004CF20003C4F20F034FF05502C3F88C2044
:1006B0004CF20003C4F20F03D3F8883003F08063D8
:1006C000002BF5D04CF20003C4F20F034FF00302ED
:1006D000C3F880204CF20003C4F20F034FF0AA02CB
:1006E000C3F88C204CF20003C4F20F034FF0550204
:1006F000C3F88C204CF20003C4F20F03D3F8883007
:1007000003F04073002BF5D04CF20003C4F20F034A
:100710004FF02302C3F8A4204CF20003C4F20F03ED
:100720004FF0AA02C3F8AC204CF20003C4F20F034E
:100730004FF05502C3F8AC204CF20003C4F20F0393
:100740004FF00102C3F8A0204CF20003C4F20F03E3
:100750004FF0AA02C3F8AC204CF20003C4F20F031E
:100760004FF05502C3F8AC204CF20003C4F20F0363
:10077000D3F8A83003F48063002BF5D04CF20003CB
:10078000C4F20F034FF00302C3F8A0204CF20003A1
:10079000C4F20F034FF0AA02C3F8AC204CF20003DE
:1007A000C4F20F034FF05502C3F8AC204CF2000323
:1007B000C4F20F03D3F8A83003F44073002BF5D034
:1007C0004CF20003C4F20F034FF00002C3F8A8215B
:1007D0004CF20003C4F20F034FF00002C3F8AC2147
:1007E0004CF20003C4F20F0348F2DE72C0F228425A
:1007F000C3F8C4204CF20003C4F20F034FF0000210
:10080000C3F8C8214CF20003C4F20F0343F23A02CA
:100810001A60BD4680BC704780B483B000AF034609
:100820003960FB7197F90730002B10DA4EF6005350
:10083000CEF20003FA7902F00F02A2F104013A6845
:10084000D2B24FEAC202D2B20B441A760DE04EF297
:100850000013CEF2000397F907103A68D2B24FEABC
:10086000C202D2B20B4483F8002307F10C07BD4645
:1008700080BC704780B582B000AF78607A686FF056
:100880007F439A4202D94FF001031FE04EF210035A
:10089000CEF200037A6822F07F4202F1FF325A6002
:1008A0004FF0FF304FF01F01FFF7B6FF4EF210037D
:1008B000CEF200034FF000029A604EF21003CEF227
:1008C00000034FF007021A604FF00003184607F1CB
:1008D0000807BD4680BD00BF80B400AF40F22C03C6
:1008E000C1F200031B6803F1010240F22C03C1F2C4
:1008F00000031A60BD4680BC704700BF80B485B05D
:1009000000AF786040F22C03C1F200031B68FB606B
:1009100040F22C03C1F200031A68FB68C3EB020229
:100920007B689A42F4D307F11407BD4680BC704738
:1009300080B400AF4CF22003C2F209034FF0304202
:100940001A60BD4680BC704780B483B000AF786049
:100950004CF22003C2F209034CF22002C2F2090257
:1009600051697A6841EA02025A6107F10C07BD46F3
:1009700080BC704780B483B000AF78604CF2200335
:10098000C2F209034CF22002C2F2090251697A68EC
:100990006FEA020201EA02025A6107F10C07BD4642
:1009A00080BC704780B500AF40F20803C1F200037D
:1009B0001A6844F6D353C1F26203A3FB02134FEA51
:1009C00093131846FFF756FF0346002B00D0FEE7AF
:1009D000FFF7AEFF4FF08050FFF7B6FF4FF0640017
:1009E000FFF78CFF4FF08050FFF7C4FF4FF064001B
:1009F000FFF784FFEEE700BF1C4C1D4B22E0586858
:100A00009968DD6888420DD0002206E000EB020CF8
:100A10000832DCE9006741E902678C460831AA42E6
:100A2000F4D101E000EB050C61461869002204E0F6
:100A300008320026002741E9026708318242F7D1D7
:100A40001433013C002CDAD100F022F8094B0BB929
:100A5000204600E01868084901B109680022FFF744
:100A6000A1FF064B0BB1AFF30080FEE701000000D1
:100A7000040B000000000000000000000000000067
:100A800001498D460149084700800010F90900001E
:100A900070B540F6F02640F6F025C0F20006C0F230
:100AA0000005761BB61006D0002455F8243001341A
:100AB0009847A642F9D840F6F02540F6F426C0F251
:100AC0000005C0F20006761B00F00CF8B61006D048
:100AD000002455F8243001349847A642F9D870BD57
:100AE00000000000F8B500BFF8BC08BC9E46704787
:100AF00001010000F8B500BFF8BC08BC9E46704775
:100B0000D500000000000000200B000000000010D5
:080B10001000000020000000AD
:080B1800ACF5FF7F01000000B5
:100B2000000000000000000000E1F50500000000EA
:0400000300000A816E
:00000001FF
