:020000040000FA
:10000000F07F0010DD0D0000410E0000410E0000E9
:10001000410E00002F39FFEF410E000000000000EC
:10002000000000000000000000000000C9510000B6
:10003000410E000000000000D552000011530000E6
:10004000410E0000410E0000410E0000410E000074
:10005000410E0000410E0000410E0000410E000064
:10006000410E0000410E0000410E0000410E000054
:10007000410E0000410E0000410E0000410E000044
:10008000410E0000410E0000410E0000410E000034
:10009000410E0000410E0000410E0000410E000024
:1000A000A9170000410E0000410E0000410E0000A3
:1000B0000D810000410E0000410E0000410E0000C5
:1000C000410E0000410E0000410E000010B540F24C
:1000D0007804C1F20004237863B940F20000C0F252
:1000E000000028B140F2B810C0F20100AFF3008068
:1000F0000121217010BD00BF08B540F20003C0F21D
:1001000000034BB140F2B81040F27C01C0F2010094
:10011000C1F20001AFF3008040F27400C1F20000B0
:10012000016829B140F20003C0F2000303B198470F
:1001300008BD00BF80B588B004AF00F0FBF84FF0F9
:10014000020005F017F906F0F1FA4FF0010007F090
:10015000B9F94FF0020005F00BFF4FF0000006F078
:10016000D1FE4FF0000005F0FBFA06F019F806F09A
:1001700073FF4FF0020006F059FE4EF21843C0F232
:1001800000034FF0000200924FF0000201924FF086
:10019000000202924FF00002039241F60500C0F205
:1001A000000019464FF050024FF0000303F0CEF963
:1001B0004EF21C43C0F200034FF0030200924FF0D6
:1001C000000201924FF0000202924FF000020392EF
:1001D00049F69D70C0F2000019464FF4A0724FF02E
:1001E000000303F0B3F903F0A3FDFEE780B500AF11
:1001F00040F29403C1F200031B6803F1010240F2D4
:100200009403C1F200031A6040F29403C1F20003A8
:100210001A6841F287339A427DD940F29403C1F2C1
:1002200000034FF000021A6005F058FE0346012B50
:1002300009D040F20403C1F200034EF22042C0F2A2
:1002400000021A6067E006F045FA0346012B09D068
:1002500040F20403C1F200034EF25C42C0F200021D
:100260001A6058E005F01AFA0346012B09D040F253
:100270000403C1F200034EF29442C0F200021A607D
:1002800049E006F089FD0346012B09D040F2040342
:10029000C1F200034EF2D042C0F200021A603AE00E
:1002A00007F09EFA0346012B09D040F20403C1F285
:1002B00000034EF20852C0F200021A602BE005F073
:1002C00041FF0346012B09D040F20403C1F20003B1
:1002D0004EF24052C0F200021A601CE006F08CFEA2
:1002E0000346012B09D040F20403C1F200034EF291
:1002F0007852C0F200021A600DE007F071F8034670
:10030000012B08D040F20403C1F200034EF2B052B8
:10031000C0F200021A60BD4680BD00BF80B400AFCD
:1003200040F20403C1F200031B681846BD4680BCBE
:10033000704700BF80B584B000AF41F6F173C1F6DD
:10034000FF73FB604CF20003C4F20F034FF0000296
:10035000C3F8C4204CF20003C4F20F034FF4004270
:10036000C3F8C4204CF20003C4F202034FF00002B1
:100370009A624CF20003C4F20F03D3F8883003F002
:100380000073002B17D04CF20003C4F20F034FF0A0
:100390000102C3F880204CF20003C4F20F034FF0B7
:1003A000AA02C3F88C204CF20003C4F20F034FF0F2
:1003B0005502C3F88C204CF20003C4F20F034FF037
:1003C0000002C3F880204CF20003C4F20F034FF088
:1003D000AA02C3F88C204CF20003C4F20F034FF0C2
:1003E0005502C3F88C204CF20003C4F20F034CF208
:1003F0000002C4F20F02D2F8A02142F02002C3F89A
:10040000A0214CF20003C4F20F03D3F8A03103F093
:100410004003002BF5D04CF20003C4F20F034FF061
:100420000102C3F80C214CF20003C4F20F0340F2A6
:100430003102C0F20202C3F884204CF20003C4F27D
:100440000F034FF0AA02C3F88C204CF20003C4F251
:100450000F034FF05502C3F88C204CF20003C4F296
:100460000F034FF00102C3F880204CF20003C4F2E6
:100470000F034FF0AA02C3F88C204CF20003C4F221
:100480000F034FF05502C3F88C204CF20003C4F266
:100490000F034FF00302C3F804214CF20003C4F22F
:1004A0000F0344F23A021A604CF20003C4F20F0345
:1004B000D3F8883003F08063002BF5D04CF20003B2
:1004C000C4F20F034FF00302C3F880204CF2000384
:1004D000C4F20F034FF0AA02C3F88C204CF20003C1
:1004E000C4F20F034FF05502C3F88C204CF2000306
:1004F000C4F20F03D3F8883003F00073002BF5D05B
:100500004CF20003C4F20F03D3F8A83003F40073D5
:10051000002B17D04CF20003C4F20F034FF001027E
:10052000C3F8A0204CF20003C4F20F034FF0AA025C
:10053000C3F8AC204CF20003C4F20F034FF0550295
:10054000C3F8AC204CF20003C4F20F034FF00002DA
:10055000C3F8A0204CF20003C4F20F034FF0AA022C
:10056000C3F8AC204CF20003C4F20F034FF0550265
:10057000C3F8AC204CF20003C4F20F034FF0230287
:10058000C3F8A4204CF20003C4F20F034FF0AA02F8
:10059000C3F8AC204CF20003C4F20F034FF0550235
:1005A000C3F8AC204CF20003C4F20F034FF0010279
:1005B000C3F8A0204CF20003C4F20F034FF0AA02CC
:1005C000C3F8AC204CF20003C4F20F034FF0550205
:1005D000C3F8AC204CF20003C4F20F03D3F8A830E8
:1005E00003F48063002BF5D04CF20003C4F20F0338
:1005F0004FF00302C3F8A0204CF20003C4F20F0333
:100600004FF0AA02C3F8AC204CF20003C4F20F036F
:100610004FF05502C3F8AC204CF20003C4F20F03B4
:10062000D3F8A83003F40073002BF5D04CF200038C
:10063000C4F20F0345F25552C0F25552C3F8A82137
:1006400000F0D2FA45F2F003C1F200034FF00002CD
:100650001A704FF036037B6007F1040107F10402C2
:10066000FB68084611469847BB684FEA1363252B81
:1006700006D145F2F003C1F200034FF001021A70F7
:1006800007F11007BD4680BD80B483B000AF78602D
:100690003960FEE780B485B000AF4FF002037B60A5
:1006A0004FF00003BB604FF00103FB604CF200030E
:1006B000C4F20F034CF20002C4F20F02D2F8C420BD
:1006C00042F00202C3F8C4204CF20003C4F20F034C
:1006D0004CF20002C4F20F02D2F8A82122F00C0260
:1006E00042F00402C3F8A82144F20003C4F200035C
:1006F0007A685A6044F20003C4F20003BA681A67C9
:1007000044F20003C4F2000342F2AB62DA6044F246
:100710000003C4F20003FA685A6007F11407BD46EB
:1007200080BC704780B483B000AF786039607B686C
:10073000002B0AD07B681B683A68D2B21A707B68BB
:100740001B6803F101027B681A6007F10C07BD46C4
:1007500080BC70472DE9F04184B000AFF860B9600B
:100760007A603B604FF000044FF020067B68002B5E
:100770001EDD4FF00005D7F8088003E005F1010504
:1007800008F1010898F80030002BF7D17B689D42F2
:1007900003DB4FF000037B6003E07B68C5EB0303E2
:1007A0007B603B6803F00203002B01D04FF0300662
:1007B0003B6803F00103002B1BD109E0F8683146C8
:1007C000FFF7B0FF04F101047B6803F1FF337B60A6
:1007D0007B68002BF2DC0DE0BB681B78F8681946DB
:1007E000FFF7A0FF04F10104BB6803F10103BB6044
:1007F00000E000BFBB681B78002BEDD109E0F86872
:100800003146FFF78FFF04F101047B6803F1FF33EA
:100810007B607B68002BF2DC2346184607F110074B
:10082000BD46BDE8F08100BF2DE9F04589B000AFBD
:10083000F860B9607A603B604FF0000A4FF0000842
:10084000BD68BB68002B0FD14FF030033B754FF0F4
:1008500000037B7507F11403F86819463A6C7B6C4A
:10086000FFF778FF034654E03B68002B0BD07B6812
:100870000A2B08D1BB68002B05DA4FF0010ABB68D0
:10088000C3F100031D4607F1140303F10B044FF0FD
:100890000003237017E07B68B5FBF3F203FB02F360
:1008A000C3EB05031E46092E03DDBB6CA3F13A031F
:1008B0001E4404F1FF34F3B203F13003DBB22370C2
:1008C0007B68B5FBF3F5002DE5D1BAF1000F18D028
:1008D0003B6C002B10D07B6C03F00203002B0BD081
:1008E000F8684FF02D01FFF71DFF08F101083B6C80
:1008F00003F1FF333B6404E004F1FF344FF02D03B8
:100900002370F86821463A6C7B6CFFF723FF03469F
:100910004344184607F12407BD46BDE8F08500BFF3
:100920002DE9F0418AB004AFF860B9607A604FF009
:100930000004EDE0BB681B78252B40F0DB80BB6832
:1009400003F10103BB604FF000063546BB681B781E
:10095000002B00F0E380BB681B78252B00F0C980DA
:10096000BB681B782D2B0DD1BB6803F10103BB6065
:100970004FF0010607E0BB6803F10103BB6046F0DE
:10098000020600E000BFBB681B78302BF3D00FE0FD
:100990002B464FEA83032B444FEA43031D46BB68B3
:1009A0001B78A3F130031D44BB6803F10103BB6056
:1009B000BB681B782F2B03D9BB681B78392BE7D971
:1009C000BB681B78732B17D17B6803F104027A6034
:1009D0001B689846B8F1000F01D0434603E04EF281
:1009E000E453C0F20003F86819462A463346FFF77D
:1009F000B1FE03461C4487E0BB681B78642B14D10E
:100A00007B6803F104027A601B68009501964FF041
:100A100061020292F86819464FF00A024FF0010392
:100A2000FFF702FF03461C446EE0BB681B78782B7F
:100A300014D17B6803F104027A601B68009501966B
:100A40004FF061020292F86819464FF010024FF021
:100A50000003FFF7E9FE03461C4455E0BB681B7822
:100A6000582B14D17B6803F104027A601B6800954F
:100A700001964FF041020292F86819464FF01002B9
:100A80004FF00003FFF7D0FE03461C443CE0BB6878
:100A90001B78752B14D17B6803F104027A601B6804
:100AA000009501964FF061020292F86819464FF0E6
:100AB0000A024FF00003FFF7B7FE03461C4423E091
:100AC000BB681B78632B1ED17B6803F104027A603C
:100AD0001B68DBB23B754FF000037B7507F1140315
:100AE000F86819462A463346FFF734FE03461C448D
:100AF0000AE000BFBB681B78F8681946FFF712FED2
:100B000004F1010400E000BFBB6803F10103BB6016
:100B1000BB681B78002B7FF40DAF00E000BFFB68C3
:100B2000002B04D0FB681B684FF000021A702346AC
:100B3000184607F11807BD46BDE8F0810FB480B52F
:100B400082B000AF07F114037B604FF000003969F9
:100B50007A68FFF7E5FE0346184607F10807BD4629
:100B6000BDE8804004B070470EB480B585B000AFDA
:100B7000786007F12003FB6007F104031846F96968
:100B8000FA68FFF7CDFE0346184607F11407BD4685
:100B9000BDE8804003B070470CB480B584B000AFAE
:100BA0007860396007F11C03FB6007F10403184605
:100BB000B969FA68FFF7B4FE0346184607F1100753
:100BC000BD46BDE8804002B0704700BF80B485B02C
:100BD00000AFF860B9607A604FF00003184607F183
:100BE0001407BD4680BC704780B400AF4CF22003B0
:100BF000C2F209034FF04C521A604CF22003C2F2C9
:100C000009034FF04C52DA61BD4680BC704700BF0B
:100C100080B483B000AF786039607B68032B1BD849
:100C20003B68002B0CD04CF22003C2F20903796818
:100C300040F20802C1F2000252F82120DA610BE012
:100C40004CF22003C2F20903796840F20802C1F2B3
:100C5000000252F821209A6107F10C07BD4680BCC2
:100C6000704700BF80B483B000AF78607B68032B0F
:100C700028D84CF22003C2F209035A69796840F27D
:100C80000803C1F2000353F8213002EA0303002BEA
:100C90000CD04CF22003C2F20903796840F208023A
:100CA000C1F2000252F82120DA610BE04CF220037D
:100CB000C2F20903796840F20802C1F2000252F858
:100CC00021209A6107F10C07BD4680BC704700BF28
:100CD00080B483B000AF78607B68032B0ED84CF2F1
:100CE0002003C2F209035A69796840F20803C1F28D
:100CF000000353F8213002EA030301E04FF0000340
:100D0000184607F10C07BD4680BC704780B485B01B
:100D100000AFF860B9607A603B604FF0FF3318466F
:100D200007F11407BD4680BC704700BF80B485B092
:100D300000AFF860B9607A603B604FF0000318467E
:100D400007F11407BD4680BC704700BF80B485B072
:100D500000AFF860B9607A603B604FF0000318465E
:100D600007F11407BD4680BC704700BF80B483B054
:100D700000AF786039604FF00003184607F10C07A8
:100D8000BD4680BC704700BF80B483B000AF7860C0
:100D900039604FF00003184607F10C07BD4680BCD0
:100DA000704700BF80B485B000AFF860B9607A606A
:100DB0004FF00003184607F11407BD4680BC70478A
:100DC00080B483B000AF786039604FF000031846FC
:100DD00007F10C07BD4680BC704700BF80B582B0EC
:100DE00000AF40F2BC13C0F201033B6040F20003CD
:100DF000C1F200037B600BE03B681A687B681A60F5
:100E00007B6803F104037B603B6803F104033B60F0
:100E10007A6840F26C03C1F200039A42ECD30648B0
:100E200006494FF000028842B8BF40F8042BFADBB5
:100E3000FFF780F9FEE7000078000010DE71001077
:100E400080B400AFFEE700BF80B400AF4CF20003F7
:100E5000C4F20F03D3F888304FEA136303F003039F
:100E6000032B40F0AC804CF20003C4F20F03D3F824
:100E70000C3103F00303032B00F2F68001A252F8B9
:100E800023F000BF950E0000F90E00005F0F000078
:100E9000950E00004CF20003C4F20F03D3F8883023
:100EA0004FEA43434FEA534303F1010241F2002367
:100EB000C0F27A0303FB02F24CF20003C4F20F0308
:100EC000D3F888304FEA134303F0FF0303F1010323
:100ED000B2FBF3F24CF20003C4F20F03D3F8043177
:100EE00003F0FF0303F10103B2FBF3F240F2180336
:100EF000C1F200031A60B8E04CF20003C4F20F0321
:100F0000D3F888304FEA43434FEA534303F10102D9
:100F100043F20063C0F26E1303FB02F24CF20003D3
:100F2000C4F20F03D3F888304FEA134303F0FF03F2
:100F300003F10103B2FBF3F24CF20003C4F20F031E
:100F4000D3F8043103F0FF0303F10103B2FBF3F222
:100F500040F21803C1F200031A6000BF85E04CF2B2
:100F60000003C4F20F03D3F888304FEA43434FEA3B
:100F7000534303F101034FF47A4202FB03F24CF2B4
:100F80000003C4F20F03D3F888304FEA134303F091
:100F9000FF0303F10103B2FBF3F24CF20003C4F2CE
:100FA0000F03D3F8043103F0FF0303F10103B2FB95
:100FB000F3F240F21803C1F200031A6055E04CF25C
:100FC0000003C4F20F03D3F80C3103F00303032B27
:100FD0004BD801A252F823F0E90F000015100000D1
:100FE00041100000E90F00004CF20003C4F20F03AF
:100FF000D3F8043103F0FF0303F1010240F60013BC
:10100000C0F23D03B3FBF2F240F21803C1F2000359
:101010001A602AE04CF20003C4F20F03D3F8043143
:1010200003F0FF0303F1010241F60033C0F2B703FE
:10103000B3FBF2F240F21803C1F200031A6014E0AD
:101040004CF20003C4F20F03D3F8043103F0FF03A2
:1010500003F101034FF4FA42B2FBF3F240F218033A
:10106000C1F200031A6000E000BFBD4680BC7047BB
:1010700080B400AF4CF20003C4F20F034FF0200223
:10108000C3F8A0214CF20003C4F20F03D3F8A0313F
:1010900003F04003002BF5D04CF20003C4F20F0321
:1010A0004FF00302C3F804214CF20003C4F20F0313
:1010B0004FF00002C3F8A8214CF20003C4F20F0362
:1010C0004FF00002C3F8AC214CF20003C4F20F034E
:1010D0004FF00102C3F80C214CF20003C4F20F03DD
:1010E00040F26302C0F20502C3F884204CF2000310
:1010F000C4F20F034FF0AA02C3F88C204CF2000395
:10110000C4F20F034FF05502C3F88C204CF20003D9
:10111000C4F20F034FF00102C3F880204CF2000329
:10112000C4F20F034FF0AA02C3F88C204CF2000364
:10113000C4F20F034FF05502C3F88C204CF20003A9
:10114000C4F20F03D3F8883003F08063002BF5D08E
:101150004CF20003C4F20F034FF00302C3F88020E7
:101160004CF20003C4F20F034FF0AA02C3F88C2024
:101170004CF20003C4F20F034FF05502C3F88C2069
:101180004CF20003C4F20F03D3F8883003F040732D
:10119000002BF5D04CF20003C4F20F034FF02302F2
:1011A000C3F8A4204CF20003C4F20F034FF0AA02CC
:1011B000C3F8AC204CF20003C4F20F034FF0550209
:1011C000C3F8AC204CF20003C4F20F034FF001024D
:1011D000C3F8A0204CF20003C4F20F034FF0AA02A0
:1011E000C3F8AC204CF20003C4F20F034FF05502D9
:1011F000C3F8AC204CF20003C4F20F03D3F8A830BC
:1012000003F48063002BF5D04CF20003C4F20F030B
:101210004FF00302C3F8A0204CF20003C4F20F0306
:101220004FF0AA02C3F8AC204CF20003C4F20F0343
:101230004FF05502C3F8AC204CF20003C4F20F0388
:10124000D3F8A83003F44073002BF5D04CF2000320
:10125000C4F20F0348F2DE72C0F22842C3F8C42081
:101260004CF20003C4F20F034FF00002C3F8C82190
:101270004CF20003C4F20F0343F23A021A60BD4677
:1012800080BC70474FF00004EFF30984204670479C
:1012900023461846034683F3098870474FF000043D
:1012A000EFF308842046704723461846034683F32D
:1012B0000888704780B483B000AF4FF000037B60B4
:1012C000EFF312837B607B68184607F10C07BD467D
:1012D00080BC704780B483B000AF78607B6883F3D4
:1012E000118807F10C07BD4680BC704780B483B0FD
:1012F00000AF4FF000037B60EFF310837B607B68EF
:10130000184607F10C07BD4680BC704780B483B017
:1013100000AF78607B6883F3108807F10C07BD4647
:1013200080BC704780B483B000AF4FF000037B6097
:10133000EFF313837B607B68184607F10C07BD460B
:1013400080BC704780B483B000AF78607B6883F363
:10135000138807F10C07BD4680BC704780B483B08A
:1013600000AF4FF000037B60EFF314837B607B687A
:10137000184607F10C07BD4680BC704780B483B0A7
:1013800000AF78607B6883F3148807F10C07BD46D3
:1013900080BC704780B485B000AF78604FF0000328
:1013A000FB607B681BBAFB60FB68184607F11407FB
:1013B000BD4680BC704700BF80B485B000AF034617
:1013C000FB804FF00003FB60FB885BBAFB60FB68AF
:1013D000184607F11407BD4680BC704780B485B03D
:1013E00000AF0346FB804FF00003FB60FB88DBBAD5
:1013F000FB60FB68184607F11407BD4680BC7047C8
:1014000080B485B000AF78604FF00003FB607B686C
:1014100093FAA3F3FB60FB68184607F11407BD4677
:1014200080BC704780B485B000AF78604FF0000397
:10143000FB737B68D3E84F3FFB73FB7B184607F1D8
:101440001407BD4680BC704780B485B000AF78609B
:101450004FF00003FB817B68D3E85F3FFB81FB8992
:10146000184607F11407BD4680BC704780B485B0AC
:1014700000AF78604FF00003FB607B6853E8003FEB
:10148000FB60FB68184607F11407BD4680BC704737
:1014900080B485B000AF03463960FB714FF00003A4
:1014A000FB603B68FA79C3E8432FFB60FB68184692
:1014B00007F11407BD4680BC704700BF80B485B0FB
:1014C00000AF03463960FB804FF00003FB603B68D0
:1014D000FA88C3E8532FFB60FB68184607F114072E
:1014E000BD4680BC704700BF80B485B000AF786057
:1014F00039604FF00003FB603B687A6843E80023E3
:10150000FB60FB68184607F11407BD4680BC7047B6
:1015100080B483B000AF0346FB714EF20013CEF2ED
:10152000000397F907204FEA5212F97901F01F01E1
:101530004FF0010000FA01F143F8221007F10C0707
:10154000BD4680BC704700BF80B483B000AF034687
:101550003960FB7197F90730002B10DA4EF6005313
:10156000CEF20003FA7902F00F02A2F104013A6808
:10157000D2B24FEAC202D2B20B441A760DE04EF25A
:101580000013CEF2000397F907103A68D2B24FEA7F
:10159000C202D2B20B4483F8002307F10C07BD4608
:1015A00080BC704780B586B000AF02460B46FA712A
:1015B000BB714FF00003FB60FB79184640F29801C5
:1015C000C1F200014FF0400200F0AAFD03467B612A
:1015D0004FF000033B6117E040F2E003C1F200036B
:1015E00019683A6940F29803C1F200031A4407F1FE
:1015F0000C03084611461A464FF0000301F082FC26
:101600003B6903F101033B613A697B699A42E3DB81
:10161000FB68002B01D003F01FFE07F11807BD4641
:1016200080BD00BF80B586B000AF02460B46FA71A0
:10163000BB714FF00003FB6040F2E403C1F2000312
:101640001B68184601F0D2FD0346002B04D14FF071
:10165000000000F0ADFC34E04FF000033B6118E007
:1016600040F2E403C1F2000319683A6940F29803BA
:10167000C1F200031A4407F10C03084611461A464A
:1016800001F054FD0346012B07D13B6903F101032F
:101690003B613B693F2BE3DD00E000BF3B697B61C1
:1016A0007B69002B08DDFB79184640F29801C1F2F6
:1016B00000017A6900F0CEFCFB68002B01D003F03A
:1016C000CBFD07F11807BD4680BD00BF80B584B0D3
:1016D00000AFF860B9607A60FB685B78212B13D0AB
:1016E000222B1FD0202B1AD17B681B6840F21C00D4
:1016F000C1F2000019464FF007020CF0AFF8BB68CA
:101700004FF007021A600EE040F21C03C1F2000322
:101710007A681360BB684FF007021A6003E04FF06D
:10172000000302E000BF4FF00103184607F1100765
:10173000BD4680BD80B584B000AF78607B68DBB209
:10174000FB7340F2E403C1F200031A6807F10F03D0
:10175000104619464FF014024FF0000301F042FB0F
:101760000346012B01D17B6801E04FF0FF3318469F
:1017700007F11007BD4680BD80B582B000AF40F2D2
:10178000E003C1F200031A6807F107031046194687
:101790004FF0FF324FF0000301F000FCFB791846D8
:1017A00007F10807BD4680BD80B500AF00F048FDD9
:1017B000BD4680BD80B582B000AF0346FB8040F2DD
:1017C000E403C1F200031B68184601F00FFD034655
:1017D000002B03D04FF0200000F0EAFB07F10807D0
:1017E000BD4680BD80B483B000AFEFF3108362B616
:1017F00070477B607B68184607F10C07BD4680BCCC
:10180000704700BF80B584B000AF78604FF014001F
:101810004FF0010101F0D8F9024640F2E003C1F2B5
:1018200000031A604FF014004FF0010101F0CCF9F1
:10183000024640F2E403C1F200031A6040F2E00302
:10184000C1F200031B68002B06D040F2E403C1F292
:1018500000031B68002B03D14FF0000001F04EFF86
:1018600000F052FE4EF2EC50C0F2000000F084FE98
:101870004FF0010041F2CD61C0F2000140F2D80208
:10188000C1F2000200F0E4F94FF081004FF00001D6
:1018900000F0E6FA4FF0820041F22561C0F200014B
:1018A00000F0DEFA4FF0050041F2A551C0F2000150
:1018B00000F0D6FA41F2B570C0F2000000F034FB3F
:1018C0004FF0200000F074FB4FF018004FF00601BD
:1018D000FFF73AFE4FF01800FFF71AFE4FF0010035
:1018E00000F054FB00E000BFFFF746FF0346FB603B
:1018F000FB68B3F1FF3FF6D0FB6803F10103184624
:10190000FFF718FFF0E700BF80B586B000AFF860C2
:10191000B9607A60FB681B784FEA5313DBB203F0BF
:1019200003037B617A6940F2FC03C1F2000353F8C0
:1019300022303B613B69002B02D14FF0000305E0F0
:101940003B69F868B9687A6898470346184607F112
:101950001807BD4680BD00BF80B584B000AF034608
:10196000FB714FF080004FF0010100F04DFB40F2A1
:10197000E803C1F20003BB604FF00003FB6003E02B
:10198000FB6803F10103FB60FB68072BF8DD07F13F
:101990001007BD4680BD00BF80B582B000AF40F2E9
:1019A000F403C1F200031B68402B03DD4FF040033A
:1019B0007B6005E040F2F403C1F200031B687B602A
:1019C00040F2F003C1F200031B684FF0800019469B
:1019D0007A6800F03FFB40F2F003C1F200031A689E
:1019E0007B681A4440F2F003C1F200031A6040F22F
:1019F000F403C1F200031A687B68C3EB020240F2F1
:101A0000F403C1F200031A6007F10807BD4680BD68
:101A100080B584B000AF02460B46FA71BB71FB790A
:101A2000002B40F00781BB7903F00403002B00F08A
:101A300085804FF0000040F2E801C1F200014FF054
:101A4000080200F06DFB40F2E803C1F200031B78CE
:101A50004FEA5313DBB203F00303FB60FA6840F272
:101A60000C13C1F2000353F8222040F2F003C1F23C
:101A700000031A6040F2E803C1F20003DB881A4653
:101A800040F2F403C1F200031A6040F2E803C1F22D
:101A90000003DB881A4640F2F803C1F200031A6023
:101AA00040F2E803C1F20003DB88002B0AD040F2C9
:101AB000E803C1F200031B784FEAD313DBB2012B1A
:101AC00040F0BE8040F2E800C1F2000040F2F801B0
:101AD000C1F2000140F2F002C1F20002FFF714FF70
:101AE0000346002B04D1BB791846FFF735FFAAE067
:101AF00040F2E803C1F20003DB881A4640F2F80323
:101B0000C1F200031B689A420ADD40F2F803C1F2F9
:101B100000031A6840F2F403C1F200031A600AE0FD
:101B200040F2E803C1F20003DB881A4640F2F403F6
:101B3000C1F200031A60FFF72FFF84E040F2F403C4
:101B4000C1F200031B68002B69DD40F2F003C1F213
:101B500000031A6840F2F403C1F200031B684FF05F
:101B6000000011461A4600F0DBFA0346BB60BB6872
:101B7000002B04DABB791846FFF7EEFE63E040F273
:101B8000F003C1F200031A68BB681A4440F2F00384
:101B9000C1F200031A6040F2F403C1F200031A68B4
:101BA000BB68C3EB020240F2F403C1F200031A6007
:101BB00040F2F403C1F200031B68002B42D140F253
:101BC000E803C1F200031B784FEA5313DBB203F0C2
:101BD0000303FB60FA6840F20C13C1F2000353F8F0
:101BE000222040F2F003C1F200031A6040F2E80044
:101BF000C1F2000040F2F801C1F2000140F2F0022F
:101C0000C1F20002FFF780FE0346002B04D1BB792E
:101C10001846FFF7A1FE16E0FFF7BEFE13E04FF0F7
:101C200000004FF000014FF0000200F079FA034687
:101C3000BB6008E0FB79802B05D1FFF7ADFE02E029
:101C400000BF00E000BF07F11007BD4680BD00BF28
:101C500080B485B000AFF860B9607A60FA6840F28D
:101C6000FC03C1F20003B96843F82210FA6840F29D
:101C70000C13C1F20003796843F8221007F114072E
:101C8000BD4680BC704700BF80B483B000AF7860B1
:101C90004CF20003C5F20003D3F800227B6802EA8D
:101CA00003027B689A42F3D14CF20003C5F20003B1
:101CB0007A68C3F8082207F10C07BD4680BC70475C
:101CC00080B582B000AF0346FB714CF20003C5F251
:101CD00000034FF03002C3F808224CF20003C5F2B3
:101CE0000003FA794FEA024242F4A062C3F81022DC
:101CF0004FF01000FFF7C8FF07F10807BD4680BD91
:101D000080B582B000AF02460B46FA71BB80FB790A
:101D10001846FFF7D5FF4CF20003C5F20003BA885E
:101D20004FEA024242F48072C3F810224FF01000D2
:101D3000FFF7AAFF07F10807BD4680BD80B582B056
:101D400000AF0346FB71FB791846FFF7B9FF4CF271
:101D50000003C5F20003FA794FEA024242F400722E
:101D6000C3F810224FF02000FFF78EFF4CF2000363
:101D7000C5F20003D3F81432DBB2184607F10807A6
:101D8000BD4680BD80B582B000AF78600B467B80D9
:101D90004CF20003C5F200034CF20002C5F200024F
:101DA000D2F844124FF001007A6800FA02F241EAD8
:101DB0000202C3F844224CF20003C5F200037A6821
:101DC000C3F848224CF20003C5F200037A88C3F836
:101DD0004C224FF48070FFF757FF07F10807BD460C
:101DE00080BD00BF80B582B000AF786039607B688D
:101DF000DBB243F04003DBB2DAB23B68002B02D027
:101E00004FF0000301E04FF0200310461946FFF7A2
:101E100077FF07F10807BD4680BD00BF80B584B0DD
:101E200000AF02460B46FA71BB80FB7903F00F034B
:101E30004FEA4302FB794FEAD313DBB242EA0303D2
:101E4000FB60BB88F8681946FFF79CFFF8684FF005
:101E50000101FFF7C7FF07F11007BD4680BD00BFB6
:101E600080B485B000AF03463960FB71FB7903F0A5
:101E70000F034FEA4302FB794FEAD313DBB242EA86
:101E80000303FB60FB684FEAD37213444FEA63031A
:101E90001A4640F22013C1F20003396843F82210B9
:101EA0004CF20003C5F200034CF20002C5F200023E
:101EB000D2F834124FF00100FA6800FA02F241EA57
:101EC0000202C3F834224CF20003C5F200034CF2C4
:101ED0000002C5F20002D2F8042242F00402C3F864
:101EE000042207F11407BD4680BC704780B483B05C
:101EF00000AF786040F21C13C1F200037A681A60E8
:101F00004CF20003C5F200034CF20002C5F20002DD
:101F1000D2F8042242F00802C3F8042207F10C07A9
:101F2000BD4680BC704700BF80B483B000AF78600E
:101F300040F26013C1F200037A681A604CF20003A9
:101F4000C5F200034CF20002C5F20002D2F80422EE
:101F500042F00102C3F8042207F10C07BD4680BC21
:101F6000704700BF80B582B000AF0346FB71FB79BC
:101F70006FEA43636FEA5363DBB24FF0D000194658
:101F8000FFF7BEFE07F10807BD4680BD80B582B0F1
:101F900000AF78607B68002B0CBF002301234FF05B
:101FA000FE001946FFF7ACFE07F10807BD4680BDED
:101FB00080B582B000AF0346FB71FB794FF0F300B0
:101FC0001946FFF79DFE07F10807BD4680BD00BF1B
:101FD00080B584B000AF0346FB71FB7903F00F03BB
:101FE0004FEA4302FB794FEAD313DBB242EA030321
:101FF000FB60FB68DBB21846FFF7A0FE03461846FD
:1020000007F11007BD4680BD80B584B000AF034620
:102010003960FB71FB7903F00F034FEA4302FB7950
:102020004FEAD313DBB242EA0303FB60FB68DBB287
:1020300043F04003DBB2DAB23B68002B0CBF002355
:10204000012310461946FFF75BFE07F11007BD4656
:1020500080BD00BF80B586B000AF0346B9607A602E
:10206000FB73FB7B03F00F034FEA4302FB7B4FEA5A
:10207000D313DBB242EA03037B614CF20003C5F2E7
:102080000003FA7B02F00F024FEA820242F00202E2
:10209000C3F828224CF20003C5F200037A68C3F8A3
:1020A000242223E04CF20003C5F20003BA6802F1D7
:1020B000030212784FEA0261BA6802F10202127852
:1020C0004FEA024241EA0201BA6802F101021278C3
:1020D0004FEA022241EA0201BA68127841EA02029A
:1020E000C3F81C22BB6803F10403BB604CF200037D
:1020F000C5F20003D3F8283203F00203002BD1D13C
:102100007B69DBB21846FFF7DBFD4FF0FA00FFF703
:10211000D7FD7B68184607F11807BD4680BD00BF94
:1021200080B588B000AF0346B9607A60FB73FB7B73
:1021300003F00F034FEA4302FB7B4FEAD313DBB2FA
:1021400042EA03037B614CF20003C5F20003FA7B11
:1021500002F00F024FEA820242F00102C3F8282285
:102160004CF20003C5F20003D3F82032FB61FB6997
:1021700003F40063002BF3D0FB6903F48063002BAE
:1021800002D14FF0FF3343E0FB694FEA83534FEA3C
:102190009353FB614FF00003BB614FF000033B61C1
:1021A00020E03B6903F00303002B06D14CF200034F
:1021B000C5F20003D3F81832BB61BB68002B09D00D
:1021C0003A697B689A4205DA3A69BB681344BA698E
:1021D000D2B21A70BB694FEA1323BB613B6903F1AA
:1021E00001033B61FA693B699A42DADC4CF2000375
:1021F000C5F200034FF00002C3F828227B69DBB26E
:102200001846FFF75DFD4FF0F200FFF759FDFB693F
:10221000184607F12007BD4680BD00BF80B582B0DB
:1022200000AF78607B68002B0CBF002301234FF0C8
:10223000D8001946FFF764FD07F10807BD4680BDC9
:1022400080B586B000AF4CF20003C5F20003D3F8AE
:1022500000327B607B6803F00103DBB2002B1CD0F3
:102260004CF20003C5F200034FF00102C3F808224C
:1022700040F26013C1F200031B68002B0DD04FF039
:10228000F500FFF75BFD0346FB8240F26013C1F2ED
:1022900000031B68FA8A104698477B6803F008031E
:1022A000002B25D04CF20003C5F200034FF00802CA
:1022B000C3F808224FF0FE00FFF740FD0346BB7352
:1022C000BB7B03F01A03002B12D0BB7B03F015037A
:1022D000FB7340F21C13C1F200031B68002B07D0F4
:1022E00040F21C13C1F200031B68FA7B10469847AA
:1022F0007B6803F00403002B68D04CF20003C5F2A6
:1023000000034FF00402C3F808224FF000033B61C2
:1023100059E04FF001023B6902FA03F3BB604CF253
:102320000003C5F20003D3F83022BB6802EA0303BE
:10233000002B44D04CF20003C5F20003BA68C3F886
:1023400038224FF02000FFF79FFC4CF20003C5F24B
:102350000003D3F814327B737B7B03F01F03FB7302
:102360003B694FEAD37213444FEA63031A4640F2C3
:102370002013C1F2000353F82230002B1FD03B6919
:102380004FEAD37213444FEA63031A4640F2201314
:10239000C1F2000353F822203B694FEAC313D9B2BC
:1023A0003B694FEA6303DBB2DBB203F00F0341EAA0
:1023B0000303DBB2D9B2FB7B0846194690473B6961
:1023C00003F101033B613B691F2BA2DD07F11807F5
:1023D000BD4680BD80B500AF4CF20003C4F20203DD
:1023E0004CF20002C4F20202D26822F0405222F003
:1023F0003002DA604CF20003C4F202034CF2000235
:10240000C4F20202D26842F0005242F01002DA60D6
:102410004CF20003C4F202034CF20002C4F20202C6
:10242000526822F070525A604CF20003C4F2020368
:102430004CF20002C4F20202526842F0A0525A600A
:102440004CF20003C4F20F034CF20002C4F20F027C
:10245000D2F8C42042F00042C3F8C4204CF200037A
:10246000C5F200034FF01202C3F8F42F4CF2000340
:10247000C5F20003D3F8F83F03F01203122BF5D195
:102480004CF20003C5F200034FF00002C3F804222F
:102490004CF20003C5F200034FF0FF32C3F80822EC
:1024A0004CF20003C5F200034FF00002C3F82C22E7
:1024B0004CF20003C5F200034FF00002C3F83422CF
:1024C0004CF20003C5F200034FF0FF32C3F838228C
:1024D0004CF20003C5F200034FF00002C3F84022A3
:1024E0004FF00000FFF764FD4FF001031846BD46B2
:1024F00080BD00BF80B483B000AF0346FB7107F11D
:102500000C07BD4680BC704780B500AFFFF762FF87
:1025100042F2F540C0F20000FFF7E8FC4FF0000087
:1025200041F61121C0F20001FFF79AFC4FF0800044
:1025300041F61121C0F20001FFF792FC4FF00000BC
:102540004FF04001FFF76AFC4FF080004FF0400170
:10255000FFF764FC4FF0000042F6A911C0F2000141
:1025600040F26412C1F20002FFF772FB4FF0010368
:102570001846BD4680BD00BF80B483B000AF786010
:1025800040F27413C1F200037A681A6007F10C0775
:10259000BD4680BC704700BF80B489B000AFBA6050
:1025A0007B600346FB810B46BB81FB894FEA13230B
:1025B0009BB2BB75FB89FB7540F27413C1F200033B
:1025C0001B68BB614FF00003FB6131E0BB6903F1A5
:1025D00001031B78BA7D9A4225D1FA7DFB699A42A4
:1025E0001DD17B68BA691A60BB7D022B0FD1BB6914
:1025F00003F102031B781A46BB6903F103031B783E
:102600004FEA032342EA0302BB681A6004E0BB6995
:102610001B781A46BB681A604FF001030EE0FB6995
:1026200003F10103FB61BB691B78BA691344BB6109
:10263000BB691B78002BC9D14FF00003184607F186
:102640002407BD4680BC704780B586B000AF024607
:102650000B46FA71BB71FB79002B04D14FF00000DF
:10266000FFF7DCFD52E040F27413C1F200031B6877
:10267000FB604FF0FF33FB744FF0FF333B753DE0E1
:10268000FB6803F101031B78042B09D0052B0DD047
:10269000022B2ED1FB6803F105031B78FB7428E0A5
:1026A000FB6803F103031B783B7522E0FA7CFB799E
:1026B0009A421ED13A7DBB799A421AD1FB6803F146
:1026C00002031B787B75FB6803F104031B781A4631
:1026D000FB6803F105031B784FEA03239BB242EA30
:1026E00003039BB2FB827A7DFB8A10461946FFF7F3
:1026F00095FBFB681B78FA681344FB60FB681B784A
:10270000002BBDD14FF00100FFF788FD4FF0010312
:10271000184607F11807BD4680BD00BF80B586B0DA
:1027200000AFF860B9607A607B681B687B61FB680A
:102730005B78092B61D801A252F823F065270000CD
:10274000EF270000FB270000EF270000FB27000019
:102750008327000091270000F5270000A92700002B
:10276000C12700007B694FF000021A707B6903F1FA
:1027700001034FF000021A70BB684FF002021A60AA
:102780003EE0FB685B88DBB21846FFF7EBFB37E007
:10279000FB685A88FB689B8810461946BA687B68B4
:1027A000FFF7FAFE03462DE040F26C13C1F200037E
:1027B0001A787B691A70BB684FF001021A601FE03B
:1027C000FB685B88DBB218464FF00001FFF73CFF67
:1027D0000346002B02D14FF0000313E0FB685B8837
:1027E000DAB240F26C13C1F200031A7008E04FF045
:1027F000000307E04FF0000304E04FF0000301E0A6
:102800004FF00103184607F11807BD4680BD00BF11
:1028100080B487B000AFF860B9607A607B681B68ED
:102820007B61FB685B780B2B41D801A252F823F047
:10283000612800007F280000AF2800007F280000EA
:10284000AF280000AF280000AF280000AF2800002C
:10285000AF280000AF28000085280000972800005E
:102860007B694FF000021A707B6903F101034FF09E
:1028700000021A70BB684FF002021A601AE04FF0B3
:10288000000319E07B694FF000021A70BB684FF03B
:1028900001021A600EE0FB685B88002B02D04FF04B
:1028A000000309E0BB684FF000021A6002E04FF03D
:1028B000000301E04FF00103184607F11C07BD4675
:1028C00080BC704780B586B000AFF860B9607A60B0
:1028D0007B681B687B61FB685B780C2B59D801A275
:1028E00052F823F0192900004D2900009329000017
:1028F0006D2900009329000093290000932900000E
:1029000093290000932900009329000093290000D7
:10291000932900008D290000FB689B88DBB21846D4
:10292000FFF756FB034603F00203002B0CBF002207
:1029300001227B691A707B6903F101034FF00002E9
:102940001A70BB684FF002021A6025E0FB685B88D2
:10295000002B08D1FB689B88DBB218464FF00001C2
:10296000FFF752FB18E04FF0000317E0FB685B88AD
:10297000002B08D1FB689B88DBB218464FF00101A1
:10298000FFF742FB08E04FF0000307E04FF00003C1
:1029900004E04FF0000301E04FF00103184607F197
:1029A0001807BD4680BD00BF80B584B000AFF86099
:1029B000B9607A6040F27013C1F200031B68002B0B
:1029C0000ED040F27013C1F200031B68F868B968BA
:1029D0007A6898470346002B02D04FF0010320E0AD
:1029E000FB681B7803F01F03012B0AD0022B0FD0CA
:1029F000002B14D1F868B9687A68FFF78FFE034698
:102A00000FE0F868B9687A68FFF702FF034608E04C
:102A1000F868B9687A68FFF755FF034601E04FF0A0
:102A20000003184607F11007BD4680BD80B483B08F
:102A300000AF786040F27013C1F200037A681A6048
:102A400007F10C07BD4680BC704700BF80B483B05F
:102A500000AF78607B6803F108031A467B685A6010
:102A60007B684FF0FF329A607B6803F108031A46D7
:102A70007B68DA607B6803F108031A467B681A6199
:102A80007B684FF000021A6007F10C07BD4680BC5E
:102A9000704700BF80B483B000AF78607B684FF0B0
:102AA00000021A6107F10C07BD4680BC704700BFE9
:102AB00080B485B000AF786039607B685B68FB608C
:102AC000FB685A683B685A607B685A683B689A6042
:102AD000FB685B683A689A603A68FB685A603A68D3
:102AE0007B685A603B687A681A617B681B6803F1EF
:102AF00001027B681A6007F11407BD4680BC70476D
:102B000080B485B000AF786039603B681B68FB60BB
:102B1000FB68B3F1FF3F03D17B681B69BB600DE02D
:102B20007B6803F10803BB6002E0BB685B68BB60C5
:102B3000BB685B681A68FB689A42F6D9BB685A683A
:102B40003B685A603B685B683A689A603B68BA6861
:102B50009A603A68BB685A603B687A681A617B6819
:102B60001B6803F101027B681A6007F11407BD4678
:102B700080BC704780B485B000AF78607B685B68CC
:102B80007A6892689A607B689B687A6852685A6033
:102B90007B681B69FB60FB685A687B689A4203D1BB
:102BA0007B689A68FB685A607B684FF000021A6184
:102BB000FB681B6803F1FF32FB681A6007F114071A
:102BC000BD4680BC704700BF80B584B000AF786060
:102BD00039607B68002B55D04FF04C0002F08CF927
:102BE0000346BB60BB68002B4CD07B683A6802FB95
:102BF00003F303F10103FB60F86802F07DF903467B
:102C00001A46BB681A60BB681B68002B37D0BB68CC
:102C10001A687B68396801FB03F31A44BB685A6081
:102C2000BB684FF000029A63BB681A68BB689A6081
:102C3000BB681A687B6803F1FF33396801FB03F353
:102C40001A44BB68DA60BB687A68DA63BB683A68C2
:102C50001A64BB684FF0FF325A64BB684FF0FF3212
:102C60009A64BB6803F110031846FFF7EFFEBB68D8
:102C700003F124031846FFF7E9FEBB6804E0B868D7
:102C800002F01CFA4FF00003184607F11007BD468A
:102C900080BD00BF80B582B000AF4FF04C0002F0A5
:102CA0002BF903467B607B68002B38D07B684FF0A4
:102CB00000025A607B684FF000021A607B684FF098
:102CC00000029A607B684FF00002DA607B684FF088
:102CD00000029A637B684FF00102DA637B684FF071
:102CE00000021A647B684FF0FF325A647B684FF031
:102CF000FF329A647B6803F110031846FFF7A6FEC3
:102D00007B6803F124031846FFF7A0FE78684FF0B4
:102D100000014FF000024FF0000300F063F87B6801
:102D2000184607F10807BD4680BD00BF90B585B0C5
:102D300000AF78607B685C6802F01AF803469C423A
:102D400016D17B68DB6803F1FF327B68DA607B6851
:102D5000DB68002B08D178684FF000014FF00002CB
:102D60004FF0000300F03EF84FF00103FB6002E07B
:102D70004FF00003FB60FB68184607F11407BD46DF
:102D800090BD00BF90B585B000AF786039607B68BA
:102D90005C6801F0EDFF03469C4209D17B68DB686B
:102DA00003F101027B68DA604FF00103FB6012E07F
:102DB00078684FF000013A684FF0000300F0EEF839
:102DC0000346FB60FB68012B05D17B68DB6803F1E0
:102DD00001027B68DA60FB68184607F11407BD46FC
:102DE00090BD00BF80B588B000AFF860B9607A6070
:102DF0003B604FF00003FB6100E000BF02F038FAD7
:102E0000FB689A6BFB68DB6B9A4218D2F868B9686A
:102E10003A6800F00DFAFB685B6A002B0AD0FB6889
:102E200003F12403184601F05DFC0346012B01D198
:102E300002F012FA02F032FA4FF001035DE07B6813
:102E4000002B04D102F02AFA4FF0000355E0FB6991
:102E5000002B07D107F11403184601F0ADFC4FF029
:102E60000103FB6102F01AFA00F0B2FF02F000FA6F
:102E7000FB685B6CB3F1FF3F03D1FB684FF00002CE
:102E80005A64FB689B6CB3F1FF3F03D1FB684FF0C2
:102E900000029A6402F002FA07F1140207F1040337
:102EA0001046194601F0A0FC0346002B1ED1F8681D
:102EB00000F0C4FA0346002B12D0FB6803F11002A5
:102EC0007B681046194601F0A3FBF86800F03EFA53
:102ED00000F090FF0346002B8FD102F0BDF98DE783
:102EE000F86800F033FA00F085FF87E7F86800F033
:102EF0002DFA00F07FFF4FF00003184607F120077E
:102F0000BD4680BD80B586B000AFF860B9607A601C
:102F10003B604FF000037B614FF0280080F3118885
:102F2000FB689A6BFB68DB6B9A4229D2F868B96838
:102F30003A6800F07DF9FB689B6CB3F1FF3F11D15B
:102F4000FB685B6A002B14D0FB6803F1240318466E
:102F500001F0C8FB0346002B0DD07B684FF0010247
:102F60001A6009E0FB689B6C03F10102FB689A643C
:102F700002E000BF00E000BF4FF001033B6102E050
:102F80004FF000033B614FF0000080F311883B6974
:102F9000184607F11807BD4680BD00BF80B588B050
:102FA00000AFF860B9607A603B604FF00003BB612E
:102FB00000E000BF02F05CF9FB689B6B002B44D083
:102FC000FB68DB68FB61F868B96800F097F93B685B
:102FD000002B1FD1FB689B6B03F1FF32FB689A63E8
:102FE000FB681B68002B05D101F0C2FE03461A46A0
:102FF000FB685A60FB681B69002B1ED0FB6803F15D
:103000001003184601F06EFB0346012B17D102F0A6
:1030100023F915E0FB68FA69DA60FB685B6A002B4C
:103020000ED0FB6803F12403184601F05BFB034656
:10303000002B05D002F010F902E000BF00E000BF55
:1030400002F02CF94FF001036BE07B68002B04D1F8
:1030500002F024F94FF0000363E0BB69002B07D1B5
:1030600007F11003184601F0A7FB4FF00103BB6105
:1030700002F014F900F0ACFE02F0FAF8FB685B6CA9
:10308000B3F1FF3F03D1FB684FF000025A64FB68C5
:103090009B6CB3F1FF3F03D1FB684FF000029A64D1
:1030A00002F0FCF807F1100207F10403104619467C
:1030B00001F09AFB0346002B2CD1F86800F096F93A
:1030C0000346002B20D0FB681B68002B08D102F0C0
:1030D000CFF8FB685B68184601F05AFE02F0DEF894
:1030E000FB6803F124027B681046194601F090FA50
:1030F000F86800F02BF900F07DFE0346002B7FF40A
:1031000058AF02F0A9F855E7F86800F01FF900F091
:1031100071FE4FE7F86800F019F900F06BFE4FF010
:103120000003184607F12007BD4680BD80B586B074
:1031300000AFF860B9607A604FF000037B614FF038
:10314000280080F31188FB689B6B002B2ED0F86859
:10315000B96800F0D3F8FB689B6B03F1FF32FB68A2
:103160009A63FB685B6CB3F1FF3F11D1FB681B698D
:10317000002B14D0FB6803F11003184601F0B2FADB
:103180000346002B0DD07B684FF001021A6009E066
:10319000FB685B6C03F10102FB685A6402E000BF4C
:1031A00000E000BF4FF001033B6102E04FF000037D
:1031B0003B614FF0000080F311883B69184607F12E
:1031C0001807BD4680BD00BF80B584B000AF7860F1
:1031D00002F04EF87B689B6BFB6002F05FF8FB68C7
:1031E000184607F11007BD4680BD00BF80B485B00A
:1031F00000AF78607B689B6BFB60FB68184607F14B
:103200001407BD4680BC704780B582B000AF7860BF
:10321000786800F071F97B681B68184601F04EFF72
:10322000786801F04BFF07F10807BD4680BD00BF7D
:1032300080B584B000AFF860B9607A60FB681B6C41
:10324000002B0DD1FB681B68002B49D1FB685B6824
:10325000184601F009FEFB684FF000025A6042E098
:103260007B68002B1AD1FB689A68FB681B6C1046C0
:10327000B9681A460AF0F2FAFB689A68FB681B6C98
:103280001A44FB689A60FB689A68FB685B689A421C
:1032900028D3FB681A68FB689A6024E0FB68DA6848
:1032A000FB681B6C1046B9681A460AF0D7FAFB682F
:1032B000DA68FB681B6CC3F100031A44FB68DA6030
:1032C000FB68DA68FB681B689A420CD2FB685A6894
:1032D000FB681B6CC3F100031A44FB68DA6002E070
:1032E00000BF00E000BFFB689B6B03F10102FB68BD
:1032F0009A6307F11007BD4680BD00BF80B582B05C
:1033000000AF786039607B681B68002B19D07B6840
:10331000DA687B681B6C1A447B68DA607B68DA6861
:103320007B685B689A4203D37B681A687B68DA60C3
:103330007B68DA687B681B6C386811461A460AF0AD
:103340008DFA07F10807BD4680BD00BF80B582B089
:1033500000AF786001F08CFF14E07B685B6A002BA3
:1033600015D07B6803F12403184601F0BBF903462E
:10337000002B01D001F08CFA7B689B6C03F1FF32CB
:103380007B689A647B689B6C002BE6DC00E000BFE6
:103390007B684FF0FF329A6401F080FF01F068FF14
:1033A00014E07B681B69002B15D07B6803F11003C8
:1033B000184601F097F90346002B01D001F068FA96
:1033C0007B685B6C03F1FF327B685A647B685B6CE3
:1033D000002BE6DC00E000BF7B684FF0FF325A6450
:1033E00001F05CFF07F10807BD4680BD80B584B0E1
:1033F00000AF786001F03CFF7B689B6B002B14BF33
:1034000000230123FB6001F049FFFB68184607F128
:103410001007BD4680BD00BF80B485B000AF7860A6
:103420007B689B6B002B14BF00230123FB60FB68B0
:10343000184607F11407BD4680BC704780B584B0BC
:1034400000AF786001F014FF7B689A6B7B68DB6BE0
:103450009A4214BF00230123FB6001F01FFFFB68A9
:10346000184607F11007BD4680BD00BF80B485B087
:1034700000AF78607B689A6B7B68DB6B9A4214BF05
:1034800000230123FB60FB68184607F11407BD46C3
:1034900080BC704780B485B000AF786039604FF071
:1034A0000003FB601FE0FA6845F2F403C1F2000379
:1034B00053F83230002B12D1FA6845F2F403C1F20E
:1034C0000003396843F83210FB6845F2F402C1F298
:1034D00000024FEAC30313447A685A6006E0FB68AF
:1034E00003F10103FB60FB68092BDCD907F114072A
:1034F000BD4680BC704700BF80B485B000AF786027
:103500004FF00003FB6019E0FB6845F2F402C1F2E2
:1035100000024FEAC30313445A687B689A4209D1F8
:10352000FA6845F2F403C1F200034FF0000143F8DA
:10353000321006E0FB6803F10103FB60FB68092B16
:10354000E2D907F11407BD4680BC704780B58AB048
:1035500002AFF860B9603B601346FB80FB881846F9
:10356000396B01F091FA0346BB61BB69002B00F097
:10357000A080BB691A6BFB8803F1FF334FEA83031A
:103580001344FB61FB6923F00703FB61FB88009395
:10359000B869B968BA6A7B6B01F08EF9F869F968A5
:1035A0003A6801F0E1FD03461A46BB691A6001F072
:1035B0005FFE40F25023C1F200031B6803F10102D9
:1035C00040F25023C1F200031A6040F25023C1F2CE
:1035D00000031B68012B08D140F27813C1F20003ED
:1035E000BA691A6001F0AAF915E040F26023C1F24D
:1035F00000031B68002B0ED140F27813C1F20003C8
:103600001B68DA6ABB6A9A4205D840F27813C1F2A5
:103610000003BA691A60BB69DA6A40F25823C1F242
:1036200000031B689A4206D9BB69DA6A40F2582344
:10363000C1F200031A6040F27423C1F200031A6859
:10364000BB691A6440F27423C1F200031B6803F1E2
:10365000010240F27423C1F200031A60BB69DA6A06
:1036600040F25C23C1F200031B689A4206D9BB6991
:10367000DA6A40F25C23C1F200031A60BB69DA6ABD
:1036800013464FEA830313444FEA83031A4640F27A
:103690007C13C1F200031A44BB6903F10403104612
:1036A0001946FFF705FA4FF001037B6101F0F6FDC3
:1036B00002E04FF0FF337B617B69012B17D1FB6A7E
:1036C000002B02D0FB6ABA691A6040F26023C1F293
:1036D00000031B68002B0AD040F27813C1F20003EC
:1036E0001B68DA6ABB6A9A4201D201F0B5FD7B69B8
:1036F000184607F12007BD4680BD00BF80B584B0E5
:1037000000AF786001F0B4FD40F27813C1F200031D
:103710001B687A689A4202D14FF000037B607B6895
:10372000002B05D140F27813C1F200031B6800E0C2
:103730007B68FB60FB6803F104031846FFF71AFA85
:10374000FB689B6A002B05D0FB6803F11803184641
:10375000FFF710FAFB6803F1040340F22420C1F2E2
:1037600000001946FFF7A4F940F23823C1F2000324
:103770001B6803F1010240F23823C1F200031A6012
:1037800040F27423C1F200031B6803F1010240F20E
:103790007423C1F200031A6001F080FD40F260233F
:1037A000C1F200031B68002B04D07B68002B01D101
:1037B00001F052FD07F11007BD4680BD80B586B00F
:1037C00000AF786039604FF000037B6100F000FBD0
:1037D0007B681A683B681344FB607B681A6840F298
:1037E0005423C1F200031B689A4210D97B681A68FF
:1037F000FB689A421CD940F25423C1F200031B68B3
:10380000FA689A4216D94FF001037B6113E07B6896
:103810001A68FB689A4207D840F25423C1F20003A9
:103820001B68FA689A4206D94FF001037B6102E0F7
:1038300000BF00E000BF7B68FA681A607B69002B5C
:1038400039D040F27813C1F200031B6803F104037E
:103850001846FFF78FF940F27813C1F200031B6896
:10386000FA685A6040F25423C1F200031B68FA68F8
:103870009A4210D240F20C23C1F200031A6840F2BF
:103880007813C1F200031B6803F1040310461946C4
:10389000FFF736F90FE040F20823C1F200031A687F
:1038A00040F27813C1F200031B6803F104031046D1
:1038B0001946FFF725F900F09DFA03463B613B6985
:1038C000002B01D101F0C8FC07F11807BD4680BDEF
:1038D00080B584B000AF78604FF00003FB607B6878
:1038E000002B47D000F074FA40F25423C1F20003D9
:1038F0001A687B681344BB6040F27813C1F200037E
:103900001B6803F104031846FFF734F940F27813FB
:10391000C1F200031B68BA685A6040F25423C1F236
:1039200000031B68BA689A4210D240F20C23C1F21D
:1039300000031A6840F27813C1F200031B6803F118
:10394000040310461946FFF7DBF80FE040F20823A6
:10395000C1F200031A6840F27813C1F200031B6839
:1039600003F1040310461946FFF7CAF800F042FAC3
:103970000346FB60FB68002B01D101F06DFC07F1F1
:103980001007BD4680BD00BF80B584B000AF786031
:1039900001F06EFC7B68002B05D140F27813C1F278
:1039A00000031B6800E07B68BB60BB68DB6AFB60F0
:1039B00001F074FCFB68184607F11007BD4680BD96
:1039C00080B586B000AF786039604FF000037B614E
:1039D0003B68042B02D94FF004033B6001F048FC24
:1039E00040F27813C1F200031B687A689A4202D150
:1039F0004FF000037B607B68002B05D140F2781309
:103A0000C1F200031B6800E07B68FB60FB685B6C35
:103A10003B613A693B689A4264D03A683B699A4292
:103A200006D97B68002B0AD04FF001037B6107E0C9
:103A30007B68002B04D14FF001037B6100E000BFE5
:103A4000FB685A6CFB68DB6A9A4202D1FB683A68F1
:103A5000DA62FB683A685A643B68C3F10502FB68A6
:103A60009A61FB6859693A6913464FEA8303134424
:103A70004FEA83031A4640F27C13C1F20003134459
:103A800099422AD1FB6803F104031846FFF772F844
:103A9000FB68DA6A40F25C23C1F200031B689A42B9
:103AA00006D9FB68DA6A40F25C23C1F200031A60AF
:103AB000FB68DA6A13464FEA830313444FEA830331
:103AC0001A4640F27C13C1F200031A44FB6803F16A
:103AD000040310461946FEF7EBFF7B69012B01D169
:103AE00001F0BAFB01F0DAFB07F11807BD4680BD13
:103AF00080B584B000AF786001F0BAFB40F2781373
:103B0000C1F200031B687A689A4202D14FF00003A9
:103B10007B607B68002B05D140F27813C1F2000373
:103B20001B6800E07B68FB60FB6803F10403184638
:103B3000FFF720F8FB689B6A002B05D0FB6803F1B8
:103B400018031846FFF716F8FB6803F1040340F268
:103B50003C20C1F200001946FEF7AAFF01F09EFBCF
:103B60007B68002B01D101F077FB07F11007BD4600
:103B700080BD00BF80B485B000AF78604FF0000317
:103B8000BB607B68FB60FB685A6940F23C23C1F272
:103B900000039A420ED1FB689A6A40F21023C1F2E8
:103BA00000039A4206D0FB689B6A002B02D14FF0BB
:103BB0000103BB60BB68184607F11407BD4680BC13
:103BC000704700BF80B584B000AF78607B68FB6051
:103BD000FB68002B48D040F27813C1F200031B6849
:103BE000FA689A4240D001F043FBF868FFF7C2FF41
:103BF0000346012B36D1FB6803F104031846FEF798
:103C0000B9FFFB68DA6A40F25C23C1F200031B686B
:103C10009A4206D9FB68DA6A40F25C23C1F20003DB
:103C20001A60FB68DA6A13464FEA830313444FEACB
:103C300083031A4640F27C13C1F200031A44FB6866
:103C400003F1040310461946FEF732FFFB68DA6AF7
:103C500040F27813C1F200031B68DB6A9A4201D379
:103C600001F0FAFA01F01AFB07F11007BD4680BD1A
:103C700080B584B000AF78604FF00003BB607B6814
:103C8000FB60F868FFF776FF0346012B49D140F24D
:103C90006423C1F200031B68002B38D1FB68DA6A89
:103CA00040F27813C1F200031B68DB6A9A4234BF0A
:103CB00000230123BB60FB6803F104031846FEF7F1
:103CC00059FFFB68DA6A40F25C23C1F200031B680B
:103CD0009A4206D9FB68DA6A40F25C23C1F200031B
:103CE0001A60FB68DA6A13464FEA830313444FEA0B
:103CF00083031A4640F27C13C1F200031A44FB68A6
:103D000003F1040310461946FEF7D2FE09E0FB68F2
:103D100003F1180340F21020C1F200001946FEF72B
:103D2000C7FEBB68184607F11007BD4680BD00BF3F
:103D300080B586B004AF4EF27C63C0F200034FF052
:103D4000000200924FF0000201924FF00002029236
:103D50004FF00002039244F6A900C0F20000194699
:103D60004FF050024FF00003FFF7F0FB03467B607B
:103D70007B68012B15D14FF0280080F3118840F2A9
:103D80006023C1F200034FF001021A6040F2542395
:103D9000C1F200034FF000021A60FCF77BFC01F057
:103DA0002BFA07F10807BD4680BD00BF80B500AF04
:103DB0004FF0280080F3118840F26023C1F2000325
:103DC0004FF000021A6001F041FABD4680BD00BF0D
:103DD00080B400AF40F26423C1F200031B6803F11A
:103DE000010240F26423C1F200031A60BD4680BCA8
:103DF000704700BF90B583B000AF4FF000033B6049
:103E000001F036FA40F26423C1F200031B6803F1AB
:103E1000FF3240F26423C1F200031A6040F26423CF
:103E2000C1F200031B68002B40F08C8040F250234D
:103E3000C1F200031B68002B00F084804FF00003E8
:103E40007B6036E004F118031846FEF793FE04F198
:103E500004031846FEF78EFEE26A40F25C23C1F2CC
:103E600000031B689A4205D9E26A40F25C23C1F262
:103E700000031A60E26A13464FEA830313444FEAD1
:103E800083031A4640F27C13C1F200031A4404F182
:103E9000040310461946FEF70BFEE26A40F278135F
:103EA000C1F200031B68DB6A9A4202D34FF00103A0
:103EB0007B6040F21023C1F200031B68002B06D088
:103EC00040F21023C1F20003DB68DB6801E04FF031
:103ED00000031C46002CB5D140F26823C1F2000358
:103EE0001B68002B18D00DE000F0C2F940F26823E7
:103EF000C1F200031B6803F1FF3240F26823C1F2F4
:103F000000031A6040F26823C1F200031B68002B13
:103F1000EAD14FF001037B607B68012B06D040F2B1
:103F20006C23C1F200031B68012B0BD14FF001037E
:103F30003B6040F26C23C1F200034FF000021A60B4
:103F400001F08AF901F0AAF93B68184607F10C075D
:103F5000BD4690BD80B582B000AF01F089F940F256
:103F60005423C1F200031B687B6001F097F97B6862
:103F7000184607F10807BD4680BD00BF80B400AFFA
:103F800040F25023C1F200031B681846BD4680BCB6
:103F9000704700BF80B584B000AF7860FFF718FFAE
:103FA0007B684FF000021A707B6818464EF28461FD
:103FB000C0F2000109F084FD40F25823C1F2000371
:103FC0001B6803F10103FB60FB6803F1FF33FB6037
:103FD000FA6813464FEA830313444FEA83031A46F1
:103FE00040F27C13C1F2000313441B68002B12D073
:103FF000FA6813464FEA830313444FEA83031A46D1
:1040000040F27C13C1F200031344786819464FF064
:10401000520200F073FDFB68002BD5D140F208235B
:10402000C1F200031B681B68002B0AD040F2082372
:10403000C1F200031B68786819464FF0420200F095
:104040005DFD40F20C23C1F200031B681B68002BCE
:104050000AD040F20C23C1F200031B6878681946AD
:104060004FF0420200F04AFD40F22423C1F2000367
:104070001B68002B08D0786840F22421C1F20001AF
:104080004FF0440200F03AFD40F23C23C1F200033D
:104090001B68002B08D0786840F23C21C1F2000177
:1040A0004FF0530200F02AFDFFF7A4FE07F11007BE
:1040B000BD4680BD80B584B000AF786044F2000397
:1040C000C4F200039B68FB60FFF782FE7B684FF041
:1040D00000021A707B6818464EF28461C0F200013B
:1040E00009F0EEFC40F25823C1F200031B6803F113
:1040F0000103BB60BB6803F1FF33BB60BA681346C2
:104100004FEA830313444FEA83031A4640F27C13B9
:10411000C1F2000313441B68002B11D0BA68134688
:104120004FEA830313444FEA83031A4640F27C1399
:10413000C1F20003134478681946FA6800F044FDA0
:10414000BB68002BD6D140F20823C1F200031B68E4
:104150001B68002B09D040F20823C1F200031B6842
:1041600078681946FA6800F02FFD40F20C23C1F27E
:1041700000031B681B68002B09D040F20C23C1F21E
:1041800000031B6878681946FA6800F01DFD40F2CC
:104190002423C1F200031B68002B07D0786840F28B
:1041A0002421C1F20001FA6800F00EFD40F23C2328
:1041B000C1F200031B68002B07D0786840F23C2155
:1041C000C1F20001FA6800F0FFFCFFF713FE07F1EF
:1041D0001007BD4680BD00BF80B582B000AF7860DB
:1041E000396001F045F87A6840F2B023C1F200036B
:1041F0001A6040F2B423C1F200037A681A603B6887
:10420000A3F108027B681A4440F2B823C1F200030C
:104210001A6040F2BC23C1F200034FF001021A60A1
:1042200001F03CF807F10807BD4680BD80B582B0BB
:1042300000AF01F01DF840F2BC23C1F200034FF0C3
:1042400000021A6001F02AF840F2B023C1F2000324
:104250001B681A4640F2B423C1F200031B68C3EB8B
:1042600002037B607B68184607F10807BD4680BDE6
:1042700090B583B000AF40F26423C1F200031B6825
:10428000002B40F0828040F25423C1F200031B68EF
:1042900003F1010240F25423C1F200031A6040F21C
:1042A0005423C1F200031B68002B58D140F20823AD
:1042B000C1F200031B687B6040F20C23C1F20003D3
:1042C0001A6840F20823C1F200031A6040F20C237E
:1042D000C1F200037A681A6040F27023C1F2000351
:1042E0001B6803F1010240F27023C1F200031A605F
:1042F00035E0626840F25423C1F200031B689A4221
:1043000051D804F104031846FEF734FCA36A002BCD
:1043100004D004F118031846FEF72CFCE26A40F2C0
:104320005C23C1F200031B689A4205D9E26A40F29D
:104330005C23C1F200031A60E26A13464FEA83036A
:1043400013444FEA83031A4640F27C13C1F2000380
:104350001A4404F1040310461946FEF7A9FB40F283
:104360000823C1F200031B681B68002B07D040F232
:104370000823C1F200031B68DB68DB6801E04FF033
:1043800000031C46002CB4D10DE040F26823C1F2BA
:1043900000031B6803F1010240F26823C1F200032D
:1043A0001A60FBF723FF40F26823C1F200031B6889
:1043B000002B01D1FBF71AFF07F10C07BD4690BD9A
:1043C00080B582B000AF40F26423C1F200031B68E5
:1043D000002B07D040F26C23C1F200034FF0010222
:1043E0001A6011E144F20003C4F200039B683B60D1
:1043F00040F27813C1F200031A68916C40F2AC23CA
:10440000C1F200031B683868C3EB00030B449364DC
:1044100040F2AC23C1F200033A681A6040F278130C
:10442000C1F200031B681A6840F27813C1F200035E
:104430001B681B6B9A4210D840F27813C1F200033C
:104440001B681A4640F27813C1F200031B6803F19F
:10445000340310461946FCF717F940F27813C1F2FD
:1044600000031B681B6B18464EF2CC61C0F20001C2
:104470004FF0140209F0C0F90346002B1ED040F2A1
:104480007813C1F200031B681A4640F27813C1F298
:1044900000031B6803F1340310461946FCF7F4F8D7
:1044A0000DE040F25C23C1F200031B6803F1FF3210
:1044B00040F25C23C1F200031A6000E000BF40F24A
:1044C0005C23C1F200031A6813464FEA83031344C6
:1044D0004FEA83031A4640F27C13C1F200031344EF
:1044E0001B68002BDDD040F25C23C1F200031A6888
:1044F00013464FEA830313444FEA83031A4640F2FC
:104500007C13C1F2000313447B607B685B685A68CC
:104510007B685A607B685A687B6803F108039A429B
:1045200004D17B685B685A687B685A607B685B680B
:10453000DB681A4640F27813C1F200031A6040F2B9
:10454000BC23C1F200031B68002B5DD040F278133E
:10455000C1F200031B681A6C40F22403C1F200038D
:104560001B689A4250D040F2B023C1F200031B688E
:1045700003F1080240F2B823C1F200031B689A421B
:104580003BD240F27813C1F200031B681A6C40F270
:104590002403C1F200031A6040F2B023C1F2000309
:1045A0001B681A4640F25423C1F200031B681360D3
:1045B00040F2B023C1F200031B6803F1040240F291
:1045C000B023C1F200031A6040F2B023C1F200032D
:1045D0001B681A4640F22403C1F200031B681360F3
:1045E00040F2B023C1F200031B6803F1040240F261
:1045F000B023C1F200031A6006E040F2BC23C1F20E
:1046000000034FF000021A6007F10807BD4680BDA5
:1046100080B584B000AF7860396040F27813C1F2A1
:1046200000031B6803F1180378681946FEF768FA5F
:1046300040F27813C1F200031B6803F1040318462B
:10464000FEF798FA3B68B3F1FF3F0ED140F27813C2
:10465000C1F200031B6803F1040340F23C20C1F2E5
:1046600000001946FEF724FA37E040F25423C1F265
:1046700000031A683B681344FB6040F27813C1F2F0
:1046800000031B68FA685A6040F25423C1F2000329
:104690001B68FA689A4210D240F20C23C1F2000360
:1046A0001A6840F27813C1F200031B6803F1040397
:1046B00010461946FEF724FA0FE040F20823C1F233
:1046C00000031A6840F27813C1F200031B6803F17B
:1046D000040310461946FEF713FA07F11007BD460A
:1046E00080BD00BF80B584B000AF78607B681B6878
:1046F000002B03D07B68DB68DB6801E04FF0000330
:10470000BB60BB6803F118031846FEF733FA40F2AA
:104710006423C1F200031B68002B2BD1BB6803F19B
:1047200004031846FEF726FABB68DA6A40F25C23F7
:10473000C1F200031B689A4206D9BB68DA6A40F2EC
:104740005C23C1F200031A60BB68DA6A13464FEAC1
:10475000830313444FEA83031A4640F27C13C1F2E9
:1047600000031A44BB6803F1040310461946FEF720
:104770009FF909E0BB6803F1180340F21020C1F271
:1047800000001946FEF794F9BB68DA6A40F2781324
:10479000C1F200031B68DB6A9A4203D34FF00103A6
:1047A000FB6002E04FF00003FB60FB68184607F176
:1047B0001007BD4680BD00BF80B483B000AF7860F5
:1047C00040F27023C1F200031A687B681A6040F25D
:1047D0005423C1F200031A687B685A6007F10C0782
:1047E000BD4680BC704700BF80B584B000AF786024
:1047F000396000F03DFD3B681B68B3F1FF3F03D11A
:104800004FF00003FB603AE07B681A6840F27023C7
:10481000C1F200031B689A420CD07B685A6840F2D0
:104820005423C1F200031B689A4203D84FF00103DE
:10483000FB6024E040F25423C1F200031A687B6855
:104840005B68C3EB02023B681B689A4214D23B6868
:104850001A687B68596840F25423C1F200031B6850
:10486000C3EB01031A443B681A607868FFF7A4FFA2
:104870004FF00003FB6002E04FF00103FB6000F02B
:104880000DFDFB68184607F11007BD4680BD00BF4F
:1048900080B400AF40F26C23C1F200034FF001027C
:1048A0001A60BD4680BC704780B582B000AF7860AA
:1048B00000F096F8FCE700BF80B584B000AFF86068
:1048C000B9607A603B60FB6803F134031A46BB6849
:1048D000104619464FF00C0209F05AFAFB684FF0E7
:1048E000000283F83F207B68042B02D94FF00403B9
:1048F0007B60FB687A68DA62FB687A685A64FB68F6
:1049000003F104031846FEF7C5F8FB6803F118032A
:104910001846FEF7BFF8FB68FA681A617B68C3F1B6
:104920000502FB689A61FB68FA685A62FB684FF0FF
:1049300000029A6407F11007BD4680BD80B582B0C1
:1049400000AF4FF000037B6013E07A6813464FEA34
:10495000830313444FEA83031A4640F27C13C1F2E7
:10496000000313441846FEF771F87B6803F1010356
:104970007B607B68042BE8D940F2E010C1F20000B4
:10498000FEF764F840F2F410C1F20000FEF75EF8A2
:1049900040F21020C1F20000FEF758F840F2242047
:1049A000C1F20000FEF752F840F23C20C1F20000D4
:1049B000FEF74CF840F20823C1F2000340F2E01287
:1049C000C1F200021A6040F20C23C1F2000340F26F
:1049D000F412C1F200021A6007F10807BD4680BD5B
:1049E00080B582B000AF40F23823C1F200031B68EB
:1049F000002B43D0FFF7ECF940F22423C1F200036F
:104A00001B68002B14BF002301233B60FFF7F2F962
:104A10003B68002B32D100F02BFC40F22423C1F282
:104A200000031B68002B03D0164B5B68DB6801E0BA
:104A30004FF000037B607B6803F104031846FEF728
:104A400099F840F25023C1F200031B6803F1FF32D2
:104A500040F25023C1F200031A6040F23823C1F241
:104A600000031B6803F1FF3240F23823C1F2000358
:104A70001A6000F013FC786800F06AF907F1080783
:104A8000BD4680BD2C02001080B584B000AF034647
:104A90003960FB804FF04C0000F02EFA0346FB60BB
:104AA000FB68002B23D03B68002B07D1FB884FEA23
:104AB0008303184600F020FA034600E03B68FA68DA
:104AC0001363FB681B6B002B06D1F86800F0F6FA45
:104AD0004FF00003FB600AE0FB681A6BFB884FEAAB
:104AE000830310464FF0A5011A4608F07FFFFB68CC
:104AF000184607F11007BD4680BD00BF80B58EB0D7
:104B000004AFF860B9601346FB71BB683B623B6A57
:104B10005B685A683B6A5A603B6A5A683B6A03F1B1
:104B200008039A4204D13B6A5B685A683B6A5A6040
:104B30003B6A5B68DB68BB61BB687B627B6A5B6806
:104B40005A687B6A5A607B6A5A687B6A03F1080379
:104B50009A4204D17B6A5B685A687B6A5A607B6AB6
:104B60005B68DB687B617B691B6B184600F0B6F8FD
:104B70000346FB837B6903F134031A4697F9073038
:104B80007969D1F82CC0F88B7969096CCDF800C02F
:104B90000190029140F2C020C1F200004EF2886103
:104BA000C0F20001FBF7E0FFFB68184640F2C021AD
:104BB000C1F2000108F084FF7A69BB699A42BBD157
:104BC00007F12807BD4680BD80B58CB002AFF86004
:104BD000B9607A60BB683B623B6A5B685A683B6A53
:104BE0005A603B6A5A683B6A03F108039A4204D14F
:104BF0003B6A5B685A683B6A5A603B6A5B68DB6881
:104C0000BB61BB687B627B6A5B685A687B6A5A607F
:104C10007B6A5A687B6A03F108039A4204D17B6A73
:104C20005B685A687B6A5A607B6A5B68DB687B6199
:104C30007B68002B4AD07B699B6C002B0ED17B6973
:104C400003F1340340F27820C1F200004EF29C617F
:104C5000C0F200011A46FBF787FF2FE07B699B6CCF
:104C60004FF0640202FB03F27B68B2FBF3F3FB61DB
:104C7000FB69002B12D07B6903F134031A467B6970
:104C80009B6CF969009140F27820C1F200004EF26D
:104C9000AC61C0F20001FBF767FF0FE07B6903F135
:104CA00034031A467B699B6C40F27820C1F2000005
:104CB0004EF2BC61C0F20001FBF756FFFB681846DC
:104CC00040F27821C1F2000108F0FAFE7A69BB696E
:104CD0009A4296D107F12807BD4680BD90B482B0B4
:104CE00000AF78604FF0000406E07B6803F1010339
:104CF0007B6004F101039CB27B681B78A52BF4D088
:104D00004FEA94039CB22346184607F10807BD46B4
:104D100090BC704780B586B000AF78607B68002B90
:104D200005D140F27813C1F200031B6800E07B68F4
:104D3000FB60FB681B6B3B613869FFF7CFFF0346E5
:104D40007B617B69184607F11807BD4680BD00BF2F
:104D500080B582B000AF78607B681B6B184600F0AE
:104D6000ADF9786800F0AAF907F10807BD4680BDE3
:104D700080B483B000AF40F27813C1F200031B6827
:104D80007B607B68184607F10C07BD4680BC704706
:104D900080B584B000AF78607B68FB60FB68DA6A3E
:104DA00040F27813C1F200031B68DB6A9A4257D2C3
:104DB00040F27813C1F200031B68DB6AC3F10502FD
:104DC000FB689A61FB685969FB68DA6A13464FEA27
:104DD000830313444FEA83031A4640F27C13C1F263
:104DE00000031344994233D1FB6803F104031846CE
:104DF000FDF7C0FE40F27813C1F200031B68DA6AC7
:104E0000FB68DA62FB68DA6A40F25C23C1F20003F5
:104E10001B689A4206D9FB68DA6A40F25C23C1F249
:104E200000031A60FB68DA6A13464FEA83031344EF
:104E30004FEA83031A4640F27C13C1F200031A447E
:104E4000FB6803F1040310461946FDF731FE07E045
:104E500040F27813C1F200031B68DA6AFB68DA6279
:104E600007F11007BD4680BD80B584B000AF786003
:104E70007B68FB607B68002B3AD0FB68DA6AFB68D2
:104E80005B6C9A4234D0FB6803F104031846FDF7CB
:104E900071FEFB685A6CFB68DA62FB68DB6AC3F17F
:104EA0000502FB689A61FB68DA6A40F25C23C1F292
:104EB00000031B689A4206D9FB68DA6A40F25C2359
:104EC000C1F200031A60FB68DA6A13464FEA8303F3
:104ED00013444FEA83031A4640F27C13C1F20003E5
:104EE0001A44FB6803F1040310461946FDF7E0FD80
:104EF00007F11007BD4680BD80B58AB000AF78606D
:104F00004FF00003BB61FEF763FF44F60C73C1F280
:104F100000031B68002B3AD140F2F822C1F20002D4
:104F200044F6F863C1F200031A6044F6F863C1F274
:104F300000034FF000025A6044F60073C1F2000310
:104F40004FF498425A6044F60073C1F200034FF0E8
:104F500000021A6040F2F823C1F20003FB61FB6912
:104F60004FF498425A60FA6944F60073C1F20003A4
:104F7000136044F60873C1F200034FF498421A60BC
:104F800044F60C73C1F200034FF001021A607B6813
:104F9000002B12D04EF2E063C0F200031B887A6847
:104FA00013447B607B6803F00703002B05D07B680C
:104FB00023F0070303F108037B607B68002B74D0A8
:104FC0007A6844F6FF339A426FD844F6F863C1F228
:104FD00000033B6144F6F863C1F200031B68FB6009
:104FE00004E0FB683B61FB681B68FB60FB685A6878
:104FF0007B689A4203D2FB681B68002BF1D1FA68E8
:1050000044F60073C1F200039A424ED03B691A681D
:105010004EF2E063C0F200031B881344BB61FB68DF
:105020001A683B691A60FB685A687B68C3EB020226
:105030004EF2E063C0F200031B884FEA43039A423A
:1050400026D9FA687B6813447B61FB685A687B68E1
:10505000C3EB02027B695A60FB687A685A607B691D
:105060005B687B6244F6F863C1F200033B6202E0D6
:105070003B6A1B683B623B6A1B685A687B6A9A42C0
:10508000F6D33B6A1A687B691A603B6A7A691A60D0
:1050900044F60873C1F200031A687B68C3EB02028E
:1050A00044F60873C1F200031A60FEF7A3FEBB6961
:1050B000184607F12807BD4680BD00BF80B586B001
:1050C00000AF78607B68BB607B68002B35D04EF208
:1050D000E063C0F200031B88C3F10003BA68134405
:1050E000BB60BB68FB60FEF773FEFB685B687B61BF
:1050F00044F6F863C1F200033B6102E03B691B68C0
:105100003B613B691B685A687B699A42F6D33B69ED
:105110001A68FB681A603B69FA681A60FB685A688B
:1051200044F60873C1F200031B681A4444F608737E
:10513000C1F200031A60FEF75DFE07F11807BD46D5
:1051400080BD00BF80B400AF44F60873C1F2000315
:105150001B681846BD4680BC704700BF80B400AFD6
:10516000BD4680BC704700BF80B485B000AFF8601A
:10517000B9607A60FB68A3F10403FB60FB684FF041
:1051800080721A60FB68A3F10403FB60BA68FB68D5
:105190001A60FB68A3F10403FB60FB684FF0000298
:1051A0001A60FB68A3F11403FB607A68FB681A605D
:1051B000FB68A3F12003FB60FB68184607F11407A6
:1051C000BD4680BC704700BF064B19680868B0E850
:1051D000F00F80F309884FF0000080F311884EF043
:1051E0000D0E70477801001002480068006880F3D7
:1051F000088800DF08ED00E080B500AF4EF62053D0
:10520000CEF200034EF62052CEF20002126842F4B3
:1052100078021A604EF62053CEF200034EF620526A
:10522000CEF20002126842F078421A6000F08CF868
:1052300040F22803C1F200034FF000021A60FFF7AA
:10524000D3FF4FF000031846BD4680BD80B400AFC9
:10525000BD4680BC704700BF80B400AF4EF604531B
:10526000CEF200034FF080521A60BD4680BC7047FA
:1052700080B400AF4FF0280080F3118840F228037B
:10528000C1F200031B6803F1010240F22803C1F2DE
:1052900000031A60BD4680BC704700BF80B400AFF9
:1052A00040F22803C1F200031B6803F1FF3240F211
:1052B0002803C1F200031A6040F22803C1F2000380
:1052C0001B68002B03D14FF0000080F31188BD460E
:1052D00080BC7047EFF309800C4B1A6820E9F00F8F
:1052E00010602DE908404FF0280080F31188FFF787
:1052F00067F84FF0000080F31188BDE80840196896
:105300000868B0E8F00F80F3098870477801001052
:1053100080B582B000AF4EF60453CEF200034FF0DA
:1053200080521A604FF000037B604FF0280080F33A
:105330001188FEF79DFF4FF0000080F3118807F100
:105340000807BD4680BD00BF80B400AF4EF2140315
:10535000CEF2000348F2B722C0F201021A604EF208
:105360001003CEF200034FF007021A60BD4680BC66
:10537000704700BF80B590B004AF78604FF0010374
:105380003B624FF005037B624FF47A73BB624FF0D0
:105390000003FB624FF00C00FFF7AEFD0346BB605D
:1053A000386A4FF00201FDF70FFC0246BB681A6035
:1053B000BB68BA6A5A60BA6844F61073C1F2000357
:1053C00093604FF00C00FFF797FD0346FB60BB684E
:1053D0001A68FB681A60FB68FA6A5A60FA6844F651
:1053E0001873C1F2000393604EF2E863C0F2000349
:1053F0007A6800924FF0000201924FF00002029290
:105400004FF00002039245F22960C0F200001946F5
:105410004FF05002BB68FEF799F84EF2F063C0F20D
:1054200000034FF0000200924FF0000201924FF093
:10543000000202924FF00002039245F2C550C0F202
:10544000000019464FF05002FB68FEF77FF84FF05E
:105450000C00FFF751FD03463B61386A4FF0020133
:10546000FDF7B2FB02463B691A603B69FA6A5A6073
:105470003B69504A9A604FF00C00FFF73DFD034630
:105480007B613B691A687B691A607B69BA6A5A60FA
:105490007B69494A9A604EF2F863C0F200034FF00C
:1054A000000200924FF0000201924FF000020292BF
:1054B0004FF00002039245F22960C0F20000194645
:1054C0004FF050023B69FEF741F84EF20073C0F214
:1054D00000037A6800924FF0000201924FF0000240
:1054E00002924FF00002039245F2C550C0F2000054
:1054F00019464FF050027B69FEF728F84FF00C0078
:10550000FFF7FAFC0346BB61786A4FF00201FDF732
:105510005BFB0246BB691A60BB69BA6A5A60BB6929
:10552000264A9A604FF00C00FFF7E6FC0346FB6149
:10553000BB691A68FB691A60FB69BA6A5A60FB6941
:105540001F4A9A604EF20873C0F200034FF0000247
:1055500000924FF0000201924FF0000202924FF0D1
:105560000002039245F2C550C0F2000019464FF008
:105570005002BB69FDF7EAFF4EF21073C0F2000360
:105580004FF0000200924FF0000201924FF0000233
:1055900002924FF00002039245F22960C0F200002F
:1055A00019464FF05002FB69FDF7D0FF07F13007B5
:1055B000BD4680BD1A4F0010124F00101C4F001046
:1055C000144F001080B586B000AF78604FF0000334
:1055D000FB814FF00003FB827B683B613B691968EC
:1055E0003B695B6807F10E02084611461A464FF008
:1055F0000003FDF7F7FB0346012B03D04FF0010337
:10560000FB82EBE7B7F91630002B07D13B699B68AB
:105610001A8892B202F1010292B21A80FB8903F158
:1056200001039BB2FB81D9E780B586B000AF7860FB
:105630004FF00003FB814FF00003FB827B683B616E
:1056400000E000BF3B6919683B695B6807F10C0229
:10565000084611461A464FF00003FDF79FFC03462B
:10566000012BEED1BB89FA899A4205D0BB89FB8117
:105670004FF00103FB82E5E7B7F91630002B07D1A5
:105680003B699B681A8892B202F1010292B21A80B9
:10569000FB8903F10103FB81D4E700BF80B483B031
:1056A00000AF4FF001033B604FF000037B604DE023
:1056B0007A6844F61073C1F2000333F812309AB2DC
:1056C000796844F62073C1F2000333F8113012B246
:1056D0001BB29A4202D14FF000033B607A687968AE
:1056E00044F61073C1F2000333F8113099B244F656
:1056F0002073C1F2000323F812107A6844F618737D
:10570000C1F2000333F812309AB2796844F6287374
:10571000C1F2000333F8113012B21BB29A4202D127
:105720004FF000033B607A68796844F61873C1F261
:10573000000333F8113099B244F62873C1F2000324
:1057400023F812107B6803F101037B607B68022B56
:10575000AEDD3B68184607F10C07BD4680BC7047BC
:1057600080B588B004AF78604FF005004FF00401B9
:10577000FDF72AFA0346BB604EF21873C0F200032D
:10578000B8681946FDF786FE4EF22873C0F2000392
:105790007A6800924FF0000201924FF000020292EC
:1057A0004FF00002039245F68100C0F20000194656
:1057B0004FF05002BB68FDF7C9FEFDF76BFA0346D8
:1057C000FB604EF23073C0F20003F8681946FDF733
:1057D00061FE4EF24073C0F200034FF000020092EF
:1057E0004FF0000201924FF0000202924FF00002CF
:1057F000039245F6E940C0F2000019464FF050020E
:10580000FB68FDF7A3FE4EF24873C0F200034FF0B1
:105810000202009244F64472C1F2000201924FF07B
:10582000000202924FF00002039245F64960C0F276
:10583000000019464FF050024FF00003FDF786FEBE
:105840004EF25073C0F200034FF00302009244F690
:105850004072C1F2000201924FF0000202924FF03A
:105860000002039245F67560C0F2000019464FF041
:105870005002FB68FDF76AFE07F11007BD4680BDC8
:1058800080B586B000AF78607B687B61786944F64C
:105890003471C1F200014FF000024FF00103FDF737
:1058A000A1FA7869FDF790FC0346012B06D044F677
:1058B0003073C1F200034FF001021A6007F11003C8
:1058C000786919464FF000024FF00003FDF766FBC0
:1058D0000346012B06D044F63073C1F200034FF0AB
:1058E00001021A6044F63473C1F200031A683B697E
:1058F0009A4206D044F63073C1F200034FF0010221
:105900001A607869FDF760FC0346002B06D044F668
:105910003073C1F200034FF001021A60786944F657
:105920003471C1F200014FF000024FF00003FDF7A7
:1059300059FA7869FDF748FC0346012B06D044F676
:105940003073C1F200034FF001021A6007F1100337
:10595000786919464FF000024FF00003FDF71EFB77
:105960000346012B06D044F63073C1F200034FF01A
:1059700001021A607869FDF727FC0346002B06D068
:1059800044F63073C1F200034FF001021A6044F68E
:105990003473C1F200031A683B699A4206D044F698
:1059A0003073C1F200034FF001021A604FF002039E
:1059B0003B610DE007F11003786919464FF00002D2
:1059C0004FF00003FDF70EFA3B6903F101033B6161
:1059D0003B69042BEED97869FDF7F6FB0346032BF0
:1059E00006D044F63073C1F200034FF001021A6092
:1059F0004FF001033B6107F11003786919464FF03E
:105A000000024FF00103FDF7EDF94FF000033B6199
:105A100007F11003786919464FF000024FF00103B7
:105A2000FDF7E0F97869FDF7CFFB0346052B06D0BB
:105A300044F63073C1F200034FF001021A6007F11F
:105A40001003786919464FF000024FF00103FDF78B
:105A5000C9F90346002B06D044F63073C1F20003A7
:105A60004FF001021A6007F11003786919464FF0F0
:105A700000024FF00003FDF7B5F90346002B06D0F6
:105A800044F63073C1F200034FF001021A604FF088
:105A900000033B6145E007F10C03786919464FF0BC
:105AA00000024FF00103FDF779FA0346012B06D0FF
:105AB00044F63073C1F200034FF001021A603A69F4
:105AC000FB689A4206D044F63073C1F200034FF0EF
:105AD00001021A60FB686FEA0303FB6007F10C0325
