:020000040000FA
:1000000000800010C50000004D0700004F070000F1
:1000100051070000F961FFEF5507000000000000E4
:100020000000000000000000000000005707000072
:1000300059070000000000005B070000FD01000000
:100040005F0700005F0700005F0700005F07000018
:100050005F0700005F0700005F0700005F07000008
:100060005F0700005F0700005F0700005F070000F8
:100070005F0700005F0700005F0700005F070000E8
:100080005F0700005F0700005F0700005F070000D8
:100090005F0700005F0700005F0700005F070000C8
:1000A0005F0700005F0700005F0700005F070000B8
:1000B0005F0700005F0700005F0700005F070000A8
:1000C0005F070000014880470148004739050000EC
:1000D000E907000010B540F21004C1F200042378D3
:1000E00063B940F20000C0F2000028B140F64800B9
:1000F000C0F20000AFF300800121217010BD00BFED
:1001000008B540F20003C0F200034BB140F64800CE
:1001100040F21401C0F20000C1F20001AFF3008010
:1001200040F20000C1F20000016829B140F2000372
:10013000C0F2000303B1984708BD00BF80B483B08C
:1001400000AF03463960FB7197F90730002B10DAD6
:100150004EF60053CEF20003FA7902F00F02A2F13C
:1001600004013A68D2B24FEAC202D2B20B441A7604
:100170000DE04EF20013CEF2000397F907103A6833
:10018000D2B24FEAC202D2B20B4483F8002307F185
:100190000C07BD4680BC704780B582B000AF786068
:1001A0007A686FF07F439A4202D94FF001031FE053
:1001B0004EF21003CEF200037A6822F07F4202F181
:1001C000FF325A604FF0FF304FF01F01FFF7B6FFCC
:1001D0004EF21003CEF200034FF000029A604EF28E
:1001E0001003CEF200034FF007021A604FF0000335
:1001F000184607F10807BD4680BD00BF80B400AFB8
:1002000040F22C03C1F200031B6803F1010240F22B
:100210002C03C1F200031A60BD4680BC704700BFCA
:1002200080B485B000AF786040F22C03C1F20003C7
:100230001B68FB6040F22C03C1F200031A68FB68E4
:10024000C3EB02027B689A42F4D307F11407BD4660
:1002500080BC704780B400AF4CF20003C4F20203CC
:100260004FF000021A614CF22003C2F209034FF46E
:1002700080221A60BD4680BC704700BF80B400AFCA
:100280004CF22003C2F209034CF22002C2F209022E
:10029000526942F480225A61BD4680BC704700BF5B
:1002A00080B400AF4CF22003C2F209034CF22002EA
:1002B000C2F20902526922F480225A61BD4680BC12
:1002C000704700BF80B500AF40F20803C1F20003E1
:1002D0001A6844F6D353C1F26203A3FB02134FEA38
:1002E00093131846FFF758FF0346002B00D0FEE794
:1002F000FFF7B0FFFFF7C2FF4FF06400FFF790FF7A
:10030000FFF7CEFF4FF06400FFF78AFFF2E700BF70
:1003100080B400AF4CF20003C4F20F03D3F888306E
:100320004FEA136303F00303032B40F0AC804CF25D
:100330000003C4F20F03D3F80C3103F00303032BC3
:1003400000F2F68001A252F823F000BF5D03000026
:10035000C1030000270400005D0300004CF200030D
:10036000C4F20F03D3F888304FEA43434FEA5343B4
:1003700003F1010241F20023C0F27A0303FB02F20F
:100380004CF20003C4F20F03D3F888304FEA134352
:1003900003F0FF0303F10103B2FBF3F24CF200039D
:1003A000C4F20F03D3F8043103F0FF0303F1010398
:1003B000B2FBF3F240F20803C1F200031A60B8E0A6
:1003C0004CF20003C4F20F03D3F888304FEA4343E2
:1003D0004FEA534303F1010243F20063C0F26E138C
:1003E00003FB02F24CF20003C4F20F03D3F888308F
:1003F0004FEA134303F0FF0303F10103B2FBF3F2EF
:100400004CF20003C4F20F03D3F8043103F0FF03EE
:1004100003F10103B2FBF3F240F20803C1F200035F
:100420001A6000BF85E04CF20003C4F20F03D3F85A
:1004300088304FEA43434FEA534303F101034FF43B
:100440007A4202FB03F24CF20003C4F20F03D3F82A
:1004500088304FEA134303F0FF0303F10103B2FBBB
:10046000F3F24CF20003C4F20F03D3F8043103F0AB
:10047000FF0303F10103B2FBF3F240F20803C1F200
:1004800000031A6055E04CF20003C4F20F03D3F8E6
:100490000C3103F00303032B4BD801A252F823F0D5
:1004A000B1040000DD04000009050000B1040000F3
:1004B0004CF20003C4F20F03D3F8043103F0FF033E
:1004C00003F1010240F60013C0F23D03B3FBF2F268
:1004D00040F20803C1F200031A602AE04CF2000364
:1004E000C4F20F03D3F8043103F0FF0303F1010258
:1004F00041F60033C0F2B703B3FBF2F240F2080357
:10050000C1F200031A6014E04CF20003C4F20F03BE
:10051000D3F8043103F0FF0303F101034FF4FA426F
:10052000B2FBF3F240F20803C1F200031A6000E0EC
:1005300000BFBD4680BC704780B400AF4CF20003E2
:10054000C4F20F034FF02002C3F8A0214CF20003C5
:10055000C4F20F03D3F8A03103F04003002BF5D011
:100560004CF20003C4F20F034FF00302C3F804215E
:100570004CF20003C4F20F034FF00102C3F80C2148
:100580004CF20003C4F20F0340F26302C0F2050212
:10059000C3F884204CF20003C4F20F034FF0AA0208
:1005A000C3F88C204CF20003C4F20F034FF0550245
:1005B000C3F88C204CF20003C4F20F034FF0010289
:1005C000C3F880204CF20003C4F20F034FF0AA02DC
:1005D000C3F88C204CF20003C4F20F034FF0550215
:1005E000C3F88C204CF20003C4F20F03D3F8883018
:1005F00003F08063002BF5D04CF20003C4F20F032C
:100600004FF00302C3F880204CF20003C4F20F0342
:100610004FF0AA02C3F88C204CF20003C4F20F037F
:100620004FF05502C3F88C204CF20003C4F20F03C4
:10063000D3F8883003F04073002BF5D04CF2000360
:10064000C4F20F034FF02302C3F8A4204CF20003BE
:10065000C4F20F034FF0AA02C3F8AC204CF200031F
:10066000C4F20F034FF05502C3F8AC204CF2000364
:10067000C4F20F034FF00102C3F8A0204CF20003B4
:10068000C4F20F034FF0AA02C3F8AC204CF20003EF
:10069000C4F20F034FF05502C3F8AC204CF2000334
:1006A000C4F20F03D3F8A83003F48063002BF5D015
:1006B0004CF20003C4F20F034FF00302C3F8A02072
:1006C0004CF20003C4F20F034FF0AA02C3F8AC20AF
:1006D0004CF20003C4F20F034FF05502C3F8AC20F4
:1006E0004CF20003C4F20F03D3F8A83003F44073B4
:1006F000002BF5D04CF20003C4F20F034FF00002C0
:10070000C3F8A8214CF20003C4F20F034FF000021B
:10071000C3F8AC214CF20003C4F20F0348F2DE72BE
:10072000C0F22842C3F8C4204CF20003C4F20F0305
:100730004FF00002C3F8C8214CF20003C4F20F03CB
:1007400043F23A021A60BD4680BC7047FEE7FEE7FE
:10075000FEE7FEE7FEE7FEE7FEE7FEE7FEE7FEE771
:100760001C4C1D4B22E058689968DD6888420DD00A
:10077000002206E000EB020C0832DCE9006741E9E8
:1007800002678C460831AA42F4D101E000EB050C67
:1007900061461869002204E008320026002741E97A
:1007A000026708318242F7D11433013C002CDAD1C0
:1007B00000F022F8094B0BB9204600E01868084900
:1007C00001B109680022FFF77DFD064B0BB1AFF3C5
:1007D0000080FEE7010000006C080000000000003F
:1007E000000000000000000001498D460149084753
:1007F000008000106107000070B540F6580640F612
:100800005805C0F20006C0F20005761BB61006D0EF
:10081000002455F8243001349847A642F9D840F610
:10082000580540F65C06C0F20005C0F20006761BD3
:1008300000F00CF8B61006D0002455F8243001342E
:100840009847A642F9D870BD00000000F8B500BF77
:10085000F8BC08BC9E46704701010000F8B500BF17
:10086000F8BC08BC9E467047D500000000000000A0
:1008700088080000000000101000000020000000A8
:1008800044F8FF7F010000000000000000000000AD
:0808900000E1F5050000000085
:00000001FF
